{
  "_format": "hh-sol-artifact-1",
  "contractName": "TestOracle",
  "sourceName": "contracts/TestOracle.sol",
  "abi": [
    {
      "inputs": [
        {
          "internalType": "address",
          "name": "muon_",
          "type": "address"
        },
        {
          "internalType": "uint32",
          "name": "appId_",
          "type": "uint32"
        },
        {
          "internalType": "uint256",
          "name": "minimumRequiredSignatures_",
          "type": "uint256"
        },
        {
          "internalType": "uint256",
          "name": "validEpoch_",
          "type": "uint256"
        },
        {
          "internalType": "address",
          "name": "admin",
          "type": "address"
        },
        {
          "internalType": "address",
          "name": "setter",
          "type": "address"
        }
      ],
      "stateMutability": "nonpayable",
      "type": "constructor"
    },
    {
      "anonymous": false,
      "inputs": [
        {
          "indexed": true,
          "internalType": "bytes32",
          "name": "role",
          "type": "bytes32"
        },
        {
          "indexed": true,
          "internalType": "bytes32",
          "name": "previousAdminRole",
          "type": "bytes32"
        },
        {
          "indexed": true,
          "internalType": "bytes32",
          "name": "newAdminRole",
          "type": "bytes32"
        }
      ],
      "name": "RoleAdminChanged",
      "type": "event"
    },
    {
      "anonymous": false,
      "inputs": [
        {
          "indexed": true,
          "internalType": "bytes32",
          "name": "role",
          "type": "bytes32"
        },
        {
          "indexed": true,
          "internalType": "address",
          "name": "account",
          "type": "address"
        },
        {
          "indexed": true,
          "internalType": "address",
          "name": "sender",
          "type": "address"
        }
      ],
      "name": "RoleGranted",
      "type": "event"
    },
    {
      "anonymous": false,
      "inputs": [
        {
          "indexed": true,
          "internalType": "bytes32",
          "name": "role",
          "type": "bytes32"
        },
        {
          "indexed": true,
          "internalType": "address",
          "name": "account",
          "type": "address"
        },
        {
          "indexed": true,
          "internalType": "address",
          "name": "sender",
          "type": "address"
        }
      ],
      "name": "RoleRevoked",
      "type": "event"
    },
    {
      "anonymous": false,
      "inputs": [
        {
          "indexed": false,
          "internalType": "uint32",
          "name": "oldValue",
          "type": "uint32"
        },
        {
          "indexed": false,
          "internalType": "uint32",
          "name": "newValue",
          "type": "uint32"
        }
      ],
      "name": "SetAppId",
      "type": "event"
    },
    {
      "anonymous": false,
      "inputs": [
        {
          "indexed": false,
          "internalType": "uint256",
          "name": "oldValue",
          "type": "uint256"
        },
        {
          "indexed": false,
          "internalType": "uint256",
          "name": "newValue",
          "type": "uint256"
        }
      ],
      "name": "SetMinimumRequiredSignatures",
      "type": "event"
    },
    {
      "anonymous": false,
      "inputs": [
        {
          "indexed": false,
          "internalType": "address",
          "name": "oldValue",
          "type": "address"
        },
        {
          "indexed": false,
          "internalType": "address",
          "name": "newValue",
          "type": "address"
        }
      ],
      "name": "SetMuon",
      "type": "event"
    },
    {
      "anonymous": false,
      "inputs": [
        {
          "indexed": false,
          "internalType": "uint256",
          "name": "oldValue",
          "type": "uint256"
        },
        {
          "indexed": false,
          "internalType": "uint256",
          "name": "newValue",
          "type": "uint256"
        }
      ],
      "name": "SetValiTime",
      "type": "event"
    },
    {
      "anonymous": false,
      "inputs": [
        {
          "indexed": false,
          "internalType": "uint256",
          "name": "oldValue",
          "type": "uint256"
        },
        {
          "indexed": false,
          "internalType": "uint256",
          "name": "newValue",
          "type": "uint256"
        }
      ],
      "name": "SetValidEpoch",
      "type": "event"
    },
    {
      "inputs": [],
      "name": "DEFAULT_ADMIN_ROLE",
      "outputs": [
        {
          "internalType": "bytes32",
          "name": "",
          "type": "bytes32"
        }
      ],
      "stateMutability": "view",
      "type": "function"
    },
    {
      "inputs": [],
      "name": "SETTER_ROLE",
      "outputs": [
        {
          "internalType": "bytes32",
          "name": "",
          "type": "bytes32"
        }
      ],
      "stateMutability": "view",
      "type": "function"
    },
    {
      "inputs": [],
      "name": "appId",
      "outputs": [
        {
          "internalType": "uint32",
          "name": "",
          "type": "uint32"
        }
      ],
      "stateMutability": "view",
      "type": "function"
    },
    {
      "inputs": [],
      "name": "getPrice",
      "outputs": [
        {
          "internalType": "uint256",
          "name": "",
          "type": "uint256"
        }
      ],
      "stateMutability": "view",
      "type": "function"
    },
    {
      "inputs": [
        {
          "internalType": "bytes32",
          "name": "role",
          "type": "bytes32"
        }
      ],
      "name": "getRoleAdmin",
      "outputs": [
        {
          "internalType": "bytes32",
          "name": "",
          "type": "bytes32"
        }
      ],
      "stateMutability": "view",
      "type": "function"
    },
    {
      "inputs": [
        {
          "internalType": "bytes32",
          "name": "role",
          "type": "bytes32"
        },
        {
          "internalType": "address",
          "name": "account",
          "type": "address"
        }
      ],
      "name": "grantRole",
      "outputs": [],
      "stateMutability": "nonpayable",
      "type": "function"
    },
    {
      "inputs": [
        {
          "internalType": "bytes32",
          "name": "role",
          "type": "bytes32"
        },
        {
          "internalType": "address",
          "name": "account",
          "type": "address"
        }
      ],
      "name": "hasRole",
      "outputs": [
        {
          "internalType": "bool",
          "name": "",
          "type": "bool"
        }
      ],
      "stateMutability": "view",
      "type": "function"
    },
    {
      "inputs": [],
      "name": "lastPriceUpdate",
      "outputs": [
        {
          "internalType": "uint256",
          "name": "",
          "type": "uint256"
        }
      ],
      "stateMutability": "view",
      "type": "function"
    },
    {
      "inputs": [],
      "name": "minimumRequiredSignatures",
      "outputs": [
        {
          "internalType": "uint256",
          "name": "",
          "type": "uint256"
        }
      ],
      "stateMutability": "view",
      "type": "function"
    },
    {
      "inputs": [],
      "name": "muon",
      "outputs": [
        {
          "internalType": "address",
          "name": "",
          "type": "address"
        }
      ],
      "stateMutability": "view",
      "type": "function"
    },
    {
      "inputs": [
        {
          "internalType": "bytes32",
          "name": "role",
          "type": "bytes32"
        },
        {
          "internalType": "address",
          "name": "account",
          "type": "address"
        }
      ],
      "name": "renounceRole",
      "outputs": [],
      "stateMutability": "nonpayable",
      "type": "function"
    },
    {
      "inputs": [
        {
          "internalType": "bytes32",
          "name": "role",
          "type": "bytes32"
        },
        {
          "internalType": "address",
          "name": "account",
          "type": "address"
        }
      ],
      "name": "revokeRole",
      "outputs": [],
      "stateMutability": "nonpayable",
      "type": "function"
    },
    {
      "inputs": [
        {
          "internalType": "uint32",
          "name": "appId_",
          "type": "uint32"
        }
      ],
      "name": "setAppId",
      "outputs": [],
      "stateMutability": "nonpayable",
      "type": "function"
    },
    {
      "inputs": [
        {
          "internalType": "uint256",
          "name": "minimumRequiredSignatures_",
          "type": "uint256"
        }
      ],
      "name": "setMinimumRequiredSignatures",
      "outputs": [],
      "stateMutability": "nonpayable",
      "type": "function"
    },
    {
      "inputs": [
        {
          "internalType": "address",
          "name": "muon_",
          "type": "address"
        }
      ],
      "name": "setMuon",
      "outputs": [],
      "stateMutability": "nonpayable",
      "type": "function"
    },
    {
      "inputs": [
        {
          "components": [
            {
              "internalType": "uint256",
              "name": "price",
              "type": "uint256"
            },
            {
              "internalType": "uint256",
              "name": "timestamp",
              "type": "uint256"
            },
            {
              "internalType": "bytes",
              "name": "reqId",
              "type": "bytes"
            },
            {
              "components": [
                {
                  "internalType": "uint256",
                  "name": "signature",
                  "type": "uint256"
                },
                {
                  "internalType": "address",
                  "name": "owner",
                  "type": "address"
                },
                {
                  "internalType": "address",
                  "name": "nonce",
                  "type": "address"
                }
              ],
              "internalType": "struct SchnorrSign[]",
              "name": "sigs",
              "type": "tuple[]"
            }
          ],
          "internalType": "struct IOracle.Signature",
          "name": "signature",
          "type": "tuple"
        }
      ],
      "name": "setPrice",
      "outputs": [],
      "stateMutability": "nonpayable",
      "type": "function"
    },
    {
      "inputs": [
        {
          "internalType": "uint256",
          "name": "validEpoch_",
          "type": "uint256"
        }
      ],
      "name": "setValidEpoch",
      "outputs": [],
      "stateMutability": "nonpayable",
      "type": "function"
    },
    {
      "inputs": [
        {
          "internalType": "bytes4",
          "name": "interfaceId",
          "type": "bytes4"
        }
      ],
      "name": "supportsInterface",
      "outputs": [
        {
          "internalType": "bool",
          "name": "",
          "type": "bool"
        }
      ],
      "stateMutability": "view",
      "type": "function"
    },
    {
      "inputs": [],
      "name": "validEpoch",
      "outputs": [
        {
          "internalType": "uint256",
          "name": "",
          "type": "uint256"
        }
      ],
      "stateMutability": "view",
      "type": "function"
    }
  ],
  "bytecode": "0x60806040523480156200001157600080fd5b50604051620017b4380380620017b4833981016040819052620000349162000202565b6001600160a01b038616158015906200005557506001600160a01b03821615155b80156200006a57506001600160a01b03811615155b620000bb5760405162461bcd60e51b815260206004820152601d60248201527f4f7261636c653a205a45524f5f414444524553535f4445544543544544000000604482015260640160405180910390fd5b6001805463ffffffff8716600160a01b026001600160c01b03199091166001600160a01b0389161717905560038390556002849055620000fd60008362000135565b620001297f61c92169ef077349011ff0b1383c894d86c5f0b41d986366b58a6cf31e93beda8262000135565b5050505050506200027c565b62000141828262000145565b5050565b6000828152602081815260408083206001600160a01b038516845290915290205460ff1662000141576000828152602081815260408083206001600160a01b03851684529091529020805460ff19166001179055620001a13390565b6001600160a01b0316816001600160a01b0316837f2f8788117e7eff1d82e926ec794901d17c78024a50270940304540a733656f0d60405160405180910390a45050565b80516001600160a01b0381168114620001fd57600080fd5b919050565b60008060008060008060c087890312156200021c57600080fd5b6200022787620001e5565b9550602087015163ffffffff811681146200024157600080fd5b60408801516060890151919650945092506200026060808801620001e5565b91506200027060a08801620001e5565b90509295509295509295565b611528806200028c6000396000f3fe608060405234801561001057600080fd5b50600436106101515760003560e01c806380afdea8116100cd578063a2011b3f11610081578063d547741f11610066578063d547741f14610339578063e35d16531461034c578063f7ae9b6e1461035557600080fd5b8063a2011b3f1461030a578063a217fddf1461033157600080fd5b806391d14854116100b257806391d14854146102ae57806398d5fdca146102f25780639b3467041461030157600080fd5b806380afdea81461025e5780638e9999ac1461029b57600080fd5b80632f2ff15d116101245780633708af92116101095780633708af921461022f5780636949faeb1461024257806377ee96c71461024b57600080fd5b80632f2ff15d1461020957806336568abe1461021c57600080fd5b806301ffc9a71461015657806311490d291461017e5780631607df9e146101c3578063248a9ca3146101d8575b600080fd5b610169610164366004610ec2565b610368565b60405190151581526020015b60405180910390f35b60015461019e9073ffffffffffffffffffffffffffffffffffffffff1681565b60405173ffffffffffffffffffffffffffffffffffffffff9091168152602001610175565b6101d66101d1366004610f04565b610401565b005b6101fb6101e6366004610f04565b60009081526020819052604090206001015490565b604051908152602001610175565b6101d6610217366004610f46565b61046d565b6101d661022a366004610f46565b610497565b6101d661023d3660046110f8565b61054f565b6101fb60055481565b6101d661025936600461120c565b6107c7565b6001546102869074010000000000000000000000000000000000000000900463ffffffff1681565b60405163ffffffff9091168152602001610175565b6101d66102a9366004611227565b61088d565b6101696102bc366004610f46565b60009182526020828152604080842073ffffffffffffffffffffffffffffffffffffffff93909316845291905290205460ff1690565b680d8d726b7177a800006101fb565b6101fb60035481565b6101fb7f61c92169ef077349011ff0b1383c894d86c5f0b41d986366b58a6cf31e93beda81565b6101fb600081565b6101d6610347366004610f46565b610963565b6101fb60025481565b6101d6610363366004610f04565b610988565b60007fffffffff0000000000000000000000000000000000000000000000000000000082167f7965db0b0000000000000000000000000000000000000000000000000000000014806103fb57507f01ffc9a7000000000000000000000000000000000000000000000000000000007fffffffff000000000000000000000000000000000000000000000000000000008316145b92915050565b7f61c92169ef077349011ff0b1383c894d86c5f0b41d986366b58a6cf31e93beda61042b816109f4565b60035460408051918252602082018490527f6715e681c0e25309ee129635cc00a0c2e18a6ba3bd351fc4e2cc43c18a42e6e2910160405180910390a150600355565b600082815260208190526040902060010154610488816109f4565b6104928383610a01565b505050565b73ffffffffffffffffffffffffffffffffffffffff81163314610541576040517f08c379a000000000000000000000000000000000000000000000000000000000815260206004820152602f60248201527f416363657373436f6e74726f6c3a2063616e206f6e6c792072656e6f756e636560448201527f20726f6c657320666f722073656c66000000000000000000000000000000000060648201526084015b60405180910390fd5b61054b8282610af1565b5050565b60025481606001515110156105c0576040517f08c379a000000000000000000000000000000000000000000000000000000000815260206004820152601f60248201527f4f7261636c653a20494e53554646494349454e545f5349474e415455524553006044820152606401610538565b4260035482602001516105d3919061127c565b101561063b576040517f08c379a000000000000000000000000000000000000000000000000000000000815260206004820152601960248201527f4f7261636c653a205349474e41545552455f45585049524544000000000000006044820152606401610538565b6001548151602080840151604080517fffffffff0000000000000000000000000000000000000000000000000000000074010000000000000000000000000000000000000000870460e01b168185015260248101949094526044808501929092528051808503909201825260648401808252825192909301919091209085015160608601517fe80876cf00000000000000000000000000000000000000000000000000000000909352909373ffffffffffffffffffffffffffffffffffffffff169263e80876cf92610713929186919060680161130e565b6020604051808303816000875af1158015610732573d6000803e3d6000fd5b505050506040513d601f19601f82011682018060405250810190610756919061139b565b6107bc576040517f08c379a000000000000000000000000000000000000000000000000000000000815260206004820152601d60248201527f4f7261636c653a20554e56455249464945445f5349474e4154555245530000006044820152606401610538565b505160045542600555565b7f61c92169ef077349011ff0b1383c894d86c5f0b41d986366b58a6cf31e93beda6107f1816109f4565b6001546040805173ffffffffffffffffffffffffffffffffffffffff928316815291841660208301527f4c8697ba13ff39b68a4162330fe12e737d6730d7057a6559a8fadfbfdafab8e1910160405180910390a150600180547fffffffffffffffffffffffff00000000000000000000000000000000000000001673ffffffffffffffffffffffffffffffffffffffff92909216919091179055565b7f61c92169ef077349011ff0b1383c894d86c5f0b41d986366b58a6cf31e93beda6108b7816109f4565b6001546040805163ffffffff740100000000000000000000000000000000000000009093048316815291841660208301527fc11199c9503e4170ffa9169992e543acf16753412b171bfe973cab923dfcf7d1910160405180910390a1506001805463ffffffff90921674010000000000000000000000000000000000000000027fffffffffffffffff00000000ffffffffffffffffffffffffffffffffffffffff909216919091179055565b60008281526020819052604090206001015461097e816109f4565b6104928383610af1565b7f61c92169ef077349011ff0b1383c894d86c5f0b41d986366b58a6cf31e93beda6109b2816109f4565b60025460408051918252602082018490527f092a1c3df5a46c69efd992cb36b8936380869a45e840ac982b066e80e9ff1643910160405180910390a150600255565b6109fe8133610ba8565b50565b60008281526020818152604080832073ffffffffffffffffffffffffffffffffffffffff8516845290915290205460ff1661054b5760008281526020818152604080832073ffffffffffffffffffffffffffffffffffffffff85168452909152902080547fffffffffffffffffffffffffffffffffffffffffffffffffffffffffffffff00166001179055610a933390565b73ffffffffffffffffffffffffffffffffffffffff168173ffffffffffffffffffffffffffffffffffffffff16837f2f8788117e7eff1d82e926ec794901d17c78024a50270940304540a733656f0d60405160405180910390a45050565b60008281526020818152604080832073ffffffffffffffffffffffffffffffffffffffff8516845290915290205460ff161561054b5760008281526020818152604080832073ffffffffffffffffffffffffffffffffffffffff8516808552925280832080547fffffffffffffffffffffffffffffffffffffffffffffffffffffffffffffff0016905551339285917ff6391f5c32d9c69d2a47ea670b442974b53935d1edc7fd64eb21e047a839171b9190a45050565b60008281526020818152604080832073ffffffffffffffffffffffffffffffffffffffff8516845290915290205460ff1661054b57610bfe8173ffffffffffffffffffffffffffffffffffffffff166014610c78565b610c09836020610c78565b604051602001610c1a9291906113bd565b604080517fffffffffffffffffffffffffffffffffffffffffffffffffffffffffffffffe0818403018152908290527f08c379a00000000000000000000000000000000000000000000000000000000082526105389160040161143e565b60606000610c87836002611451565b610c9290600261127c565b67ffffffffffffffff811115610caa57610caa610f72565b6040519080825280601f01601f191660200182016040528015610cd4576020820181803683370190505b5090507f300000000000000000000000000000000000000000000000000000000000000081600081518110610d0b57610d0b61148e565b60200101907effffffffffffffffffffffffffffffffffffffffffffffffffffffffffffff1916908160001a9053507f780000000000000000000000000000000000000000000000000000000000000081600181518110610d6e57610d6e61148e565b60200101907effffffffffffffffffffffffffffffffffffffffffffffffffffffffffffff1916908160001a9053506000610daa846002611451565b610db590600161127c565b90505b6001811115610e52577f303132333435363738396162636465660000000000000000000000000000000085600f1660108110610df657610df661148e565b1a60f81b828281518110610e0c57610e0c61148e565b60200101907effffffffffffffffffffffffffffffffffffffffffffffffffffffffffffff1916908160001a90535060049490941c93610e4b816114bd565b9050610db8565b508315610ebb576040517f08c379a000000000000000000000000000000000000000000000000000000000815260206004820181905260248201527f537472696e67733a20686578206c656e67746820696e73756666696369656e746044820152606401610538565b9392505050565b600060208284031215610ed457600080fd5b81357fffffffff0000000000000000000000000000000000000000000000000000000081168114610ebb57600080fd5b600060208284031215610f1657600080fd5b5035919050565b803573ffffffffffffffffffffffffffffffffffffffff81168114610f4157600080fd5b919050565b60008060408385031215610f5957600080fd5b82359150610f6960208401610f1d565b90509250929050565b7f4e487b7100000000000000000000000000000000000000000000000000000000600052604160045260246000fd5b6040516060810167ffffffffffffffff81118282101715610fc457610fc4610f72565b60405290565b6040516080810167ffffffffffffffff81118282101715610fc457610fc4610f72565b604051601f82017fffffffffffffffffffffffffffffffffffffffffffffffffffffffffffffffe016810167ffffffffffffffff8111828210171561103457611034610f72565b604052919050565b600082601f83011261104d57600080fd5b8135602067ffffffffffffffff82111561106957611069610f72565b611077818360051b01610fed565b8281526060928302850182019282820191908785111561109657600080fd5b8387015b858110156110eb5781818a0312156110b25760008081fd5b6110ba610fa1565b813581526110c9868301610f1d565b8682015260406110da818401610f1d565b90820152845292840192810161109a565b5090979650505050505050565b6000602080838503121561110b57600080fd5b823567ffffffffffffffff8082111561112357600080fd5b908401906080828703121561113757600080fd5b61113f610fca565b82358152838301358482015260408301358281111561115d57600080fd5b8301601f8101881361116e57600080fd5b80358381111561118057611180610f72565b6111b0867fffffffffffffffffffffffffffffffffffffffffffffffffffffffffffffffe0601f84011601610fed565b81815289878385010111156111c457600080fd5b8187840188830137600087838301015280604085015250505060608301359350818411156111f157600080fd5b6111fd8785850161103c565b60608201529695505050505050565b60006020828403121561121e57600080fd5b610ebb82610f1d565b60006020828403121561123957600080fd5b813563ffffffff81168114610ebb57600080fd5b7f4e487b7100000000000000000000000000000000000000000000000000000000600052601160045260246000fd5b6000821982111561128f5761128f61124d565b500190565b60005b838110156112af578181015183820152602001611297565b838111156112be576000848401525b50505050565b600081518084526112dc816020860160208601611294565b601f017fffffffffffffffffffffffffffffffffffffffffffffffffffffffffffffffe0169290920160200192915050565b60006060808352611321818401876112c4565b602086818601526040858303818701528287518085528385019150838901945060005b8181101561138b578551805184528581015173ffffffffffffffffffffffffffffffffffffffff908116878601529085015116848401529484019491860191600101611344565b50909a9950505050505050505050565b6000602082840312156113ad57600080fd5b81518015158114610ebb57600080fd5b7f416363657373436f6e74726f6c3a206163636f756e74200000000000000000008152600083516113f5816017850160208801611294565b7f206973206d697373696e6720726f6c65200000000000000000000000000000006017918401918201528351611432816028840160208801611294565b01602801949350505050565b602081526000610ebb60208301846112c4565b6000817fffffffffffffffffffffffffffffffffffffffffffffffffffffffffffffffff04831182151516156114895761148961124d565b500290565b7f4e487b7100000000000000000000000000000000000000000000000000000000600052603260045260246000fd5b6000816114cc576114cc61124d565b507fffffffffffffffffffffffffffffffffffffffffffffffffffffffffffffffff019056fea26469706673582212204d282016ac101408ac232bd16335cb46d21a8d864dd446042d561d72ff4ae44964736f6c634300080d0033",
  "linkReferences": {},
  "deployedLinkReferences": {}
}