{
  "_format": "hh-sol-artifact-1",
  "contractName": "DeiBonds",
  "sourceName": "contracts/DeiBonds.sol",
  "abi": [
    {
      "inputs": [
        {
          "internalType": "address",
          "name": "admin",
          "type": "address"
        },
        {
          "internalType": "address",
          "name": "trusty",
          "type": "address"
        },
        {
          "internalType": "address",
          "name": "deus_",
          "type": "address"
        },
        {
          "internalType": "address",
          "name": "exitToken_",
          "type": "address"
        },
        {
          "internalType": "address",
          "name": "entryToken_",
          "type": "address"
        },
        {
          "internalType": "address",
          "name": "nft_",
          "type": "address"
        },
        {
          "internalType": "address",
          "name": "apyCalculator_",
          "type": "address"
        },
        {
          "internalType": "address",
          "name": "preMaturityExitCalculator_",
          "type": "address"
        },
        {
          "internalType": "address",
          "name": "oracle_",
          "type": "address"
        },
        {
          "internalType": "uint256",
          "name": "capacity_",
          "type": "uint256"
        }
      ],
      "stateMutability": "nonpayable",
      "type": "constructor"
    },
    {
      "anonymous": false,
      "inputs": [
        {
          "indexed": false,
          "internalType": "uint256",
          "name": "bondId",
          "type": "uint256"
        }
      ],
      "name": "BuyBond",
      "type": "event"
    },
    {
      "anonymous": false,
      "inputs": [
        {
          "indexed": false,
          "internalType": "uint256",
          "name": "bondId",
          "type": "uint256"
        },
        {
          "indexed": false,
          "internalType": "uint256",
          "name": "claimAmount",
          "type": "uint256"
        }
      ],
      "name": "Claim",
      "type": "event"
    },
    {
      "anonymous": false,
      "inputs": [
        {
          "indexed": false,
          "internalType": "uint256",
          "name": "bondId",
          "type": "uint256"
        }
      ],
      "name": "MaturityExitBond",
      "type": "event"
    },
    {
      "anonymous": false,
      "inputs": [
        {
          "indexed": false,
          "internalType": "address",
          "name": "account",
          "type": "address"
        }
      ],
      "name": "Paused",
      "type": "event"
    },
    {
      "anonymous": false,
      "inputs": [
        {
          "indexed": false,
          "internalType": "uint256",
          "name": "bondId",
          "type": "uint256"
        }
      ],
      "name": "PrematureWithdraw",
      "type": "event"
    },
    {
      "anonymous": false,
      "inputs": [
        {
          "indexed": true,
          "internalType": "bytes32",
          "name": "role",
          "type": "bytes32"
        },
        {
          "indexed": true,
          "internalType": "bytes32",
          "name": "previousAdminRole",
          "type": "bytes32"
        },
        {
          "indexed": true,
          "internalType": "bytes32",
          "name": "newAdminRole",
          "type": "bytes32"
        }
      ],
      "name": "RoleAdminChanged",
      "type": "event"
    },
    {
      "anonymous": false,
      "inputs": [
        {
          "indexed": true,
          "internalType": "bytes32",
          "name": "role",
          "type": "bytes32"
        },
        {
          "indexed": true,
          "internalType": "address",
          "name": "account",
          "type": "address"
        },
        {
          "indexed": true,
          "internalType": "address",
          "name": "sender",
          "type": "address"
        }
      ],
      "name": "RoleGranted",
      "type": "event"
    },
    {
      "anonymous": false,
      "inputs": [
        {
          "indexed": true,
          "internalType": "bytes32",
          "name": "role",
          "type": "bytes32"
        },
        {
          "indexed": true,
          "internalType": "address",
          "name": "account",
          "type": "address"
        },
        {
          "indexed": true,
          "internalType": "address",
          "name": "sender",
          "type": "address"
        }
      ],
      "name": "RoleRevoked",
      "type": "event"
    },
    {
      "anonymous": false,
      "inputs": [
        {
          "indexed": false,
          "internalType": "address",
          "name": "oldValue",
          "type": "address"
        },
        {
          "indexed": false,
          "internalType": "address",
          "name": "newValue",
          "type": "address"
        }
      ],
      "name": "SetApyCalculator",
      "type": "event"
    },
    {
      "anonymous": false,
      "inputs": [
        {
          "indexed": false,
          "internalType": "uint256",
          "name": "oldValue",
          "type": "uint256"
        },
        {
          "indexed": false,
          "internalType": "uint256",
          "name": "newValue",
          "type": "uint256"
        }
      ],
      "name": "SetCap",
      "type": "event"
    },
    {
      "anonymous": false,
      "inputs": [
        {
          "indexed": false,
          "internalType": "uint256",
          "name": "oldValue",
          "type": "uint256"
        },
        {
          "indexed": false,
          "internalType": "uint256",
          "name": "newValue",
          "type": "uint256"
        }
      ],
      "name": "SetClaimInterval",
      "type": "event"
    },
    {
      "anonymous": false,
      "inputs": [
        {
          "indexed": false,
          "internalType": "address",
          "name": "oldValue",
          "type": "address"
        },
        {
          "indexed": false,
          "internalType": "address",
          "name": "newValue",
          "type": "address"
        }
      ],
      "name": "SetNft",
      "type": "event"
    },
    {
      "anonymous": false,
      "inputs": [
        {
          "indexed": false,
          "internalType": "address",
          "name": "oldValue",
          "type": "address"
        },
        {
          "indexed": false,
          "internalType": "address",
          "name": "newValue",
          "type": "address"
        }
      ],
      "name": "SetOracle",
      "type": "event"
    },
    {
      "anonymous": false,
      "inputs": [
        {
          "indexed": false,
          "internalType": "address",
          "name": "oldValue",
          "type": "address"
        },
        {
          "indexed": false,
          "internalType": "address",
          "name": "newValue",
          "type": "address"
        }
      ],
      "name": "SetPreMaturityExitCalculator",
      "type": "event"
    },
    {
      "anonymous": false,
      "inputs": [
        {
          "indexed": false,
          "internalType": "uint256",
          "name": "oldValue",
          "type": "uint256"
        },
        {
          "indexed": false,
          "internalType": "uint256",
          "name": "newValue",
          "type": "uint256"
        }
      ],
      "name": "SetSoldBond",
      "type": "event"
    },
    {
      "anonymous": false,
      "inputs": [
        {
          "indexed": false,
          "internalType": "address",
          "name": "account",
          "type": "address"
        }
      ],
      "name": "Unpaused",
      "type": "event"
    },
    {
      "inputs": [],
      "name": "DEFAULT_ADMIN_ROLE",
      "outputs": [
        {
          "internalType": "bytes32",
          "name": "",
          "type": "bytes32"
        }
      ],
      "stateMutability": "view",
      "type": "function"
    },
    {
      "inputs": [],
      "name": "PAUSER_ROLE",
      "outputs": [
        {
          "internalType": "bytes32",
          "name": "",
          "type": "bytes32"
        }
      ],
      "stateMutability": "view",
      "type": "function"
    },
    {
      "inputs": [],
      "name": "TRUSTY_ROLE",
      "outputs": [
        {
          "internalType": "bytes32",
          "name": "",
          "type": "bytes32"
        }
      ],
      "stateMutability": "view",
      "type": "function"
    },
    {
      "inputs": [
        {
          "internalType": "address",
          "name": "token",
          "type": "address"
        },
        {
          "internalType": "address",
          "name": "to",
          "type": "address"
        }
      ],
      "name": "approve",
      "outputs": [],
      "stateMutability": "nonpayable",
      "type": "function"
    },
    {
      "inputs": [],
      "name": "apyCalculator",
      "outputs": [
        {
          "internalType": "address",
          "name": "",
          "type": "address"
        }
      ],
      "stateMutability": "view",
      "type": "function"
    },
    {
      "inputs": [
        {
          "internalType": "uint256",
          "name": "",
          "type": "uint256"
        }
      ],
      "name": "bonds",
      "outputs": [
        {
          "internalType": "uint256",
          "name": "amount",
          "type": "uint256"
        },
        {
          "internalType": "uint256",
          "name": "apy",
          "type": "uint256"
        },
        {
          "internalType": "uint256",
          "name": "duration",
          "type": "uint256"
        },
        {
          "internalType": "uint256",
          "name": "startTime",
          "type": "uint256"
        },
        {
          "internalType": "uint256",
          "name": "lastClaimTimestamp",
          "type": "uint256"
        }
      ],
      "stateMutability": "view",
      "type": "function"
    },
    {
      "inputs": [
        {
          "internalType": "address",
          "name": "user",
          "type": "address"
        }
      ],
      "name": "bondsOfOwner",
      "outputs": [
        {
          "components": [
            {
              "internalType": "uint256",
              "name": "amount",
              "type": "uint256"
            },
            {
              "internalType": "uint256",
              "name": "apy",
              "type": "uint256"
            },
            {
              "internalType": "uint256",
              "name": "duration",
              "type": "uint256"
            },
            {
              "internalType": "uint256",
              "name": "startTime",
              "type": "uint256"
            },
            {
              "internalType": "uint256",
              "name": "lastClaimTimestamp",
              "type": "uint256"
            }
          ],
          "internalType": "struct IDeiBonds.Bond[]",
          "name": "",
          "type": "tuple[]"
        },
        {
          "internalType": "uint256[]",
          "name": "",
          "type": "uint256[]"
        }
      ],
      "stateMutability": "view",
      "type": "function"
    },
    {
      "inputs": [
        {
          "internalType": "uint256",
          "name": "amount",
          "type": "uint256"
        },
        {
          "internalType": "uint256",
          "name": "minApy",
          "type": "uint256"
        }
      ],
      "name": "buyBond",
      "outputs": [],
      "stateMutability": "nonpayable",
      "type": "function"
    },
    {
      "inputs": [],
      "name": "capacity",
      "outputs": [
        {
          "internalType": "uint256",
          "name": "",
          "type": "uint256"
        }
      ],
      "stateMutability": "view",
      "type": "function"
    },
    {
      "inputs": [
        {
          "internalType": "uint256",
          "name": "bondId",
          "type": "uint256"
        }
      ],
      "name": "claim",
      "outputs": [],
      "stateMutability": "nonpayable",
      "type": "function"
    },
    {
      "inputs": [],
      "name": "claimInterval",
      "outputs": [
        {
          "internalType": "uint256",
          "name": "",
          "type": "uint256"
        }
      ],
      "stateMutability": "view",
      "type": "function"
    },
    {
      "inputs": [
        {
          "internalType": "uint256",
          "name": "bondId",
          "type": "uint256"
        },
        {
          "internalType": "uint256",
          "name": "deusPrice",
          "type": "uint256"
        }
      ],
      "name": "claimableDeus",
      "outputs": [
        {
          "internalType": "uint256",
          "name": "deusAmount",
          "type": "uint256"
        }
      ],
      "stateMutability": "view",
      "type": "function"
    },
    {
      "inputs": [],
      "name": "deus",
      "outputs": [
        {
          "internalType": "address",
          "name": "",
          "type": "address"
        }
      ],
      "stateMutability": "view",
      "type": "function"
    },
    {
      "inputs": [],
      "name": "entryToken",
      "outputs": [
        {
          "internalType": "address",
          "name": "",
          "type": "address"
        }
      ],
      "stateMutability": "view",
      "type": "function"
    },
    {
      "inputs": [],
      "name": "exitToken",
      "outputs": [
        {
          "internalType": "address",
          "name": "",
          "type": "address"
        }
      ],
      "stateMutability": "view",
      "type": "function"
    },
    {
      "inputs": [],
      "name": "getApy",
      "outputs": [
        {
          "internalType": "uint256",
          "name": "apyValue",
          "type": "uint256"
        }
      ],
      "stateMutability": "view",
      "type": "function"
    },
    {
      "inputs": [
        {
          "internalType": "bytes32",
          "name": "role",
          "type": "bytes32"
        }
      ],
      "name": "getRoleAdmin",
      "outputs": [
        {
          "internalType": "bytes32",
          "name": "",
          "type": "bytes32"
        }
      ],
      "stateMutability": "view",
      "type": "function"
    },
    {
      "inputs": [
        {
          "internalType": "bytes32",
          "name": "role",
          "type": "bytes32"
        },
        {
          "internalType": "uint256",
          "name": "index",
          "type": "uint256"
        }
      ],
      "name": "getRoleMember",
      "outputs": [
        {
          "internalType": "address",
          "name": "",
          "type": "address"
        }
      ],
      "stateMutability": "view",
      "type": "function"
    },
    {
      "inputs": [
        {
          "internalType": "bytes32",
          "name": "role",
          "type": "bytes32"
        }
      ],
      "name": "getRoleMemberCount",
      "outputs": [
        {
          "internalType": "uint256",
          "name": "",
          "type": "uint256"
        }
      ],
      "stateMutability": "view",
      "type": "function"
    },
    {
      "inputs": [
        {
          "internalType": "bytes32",
          "name": "role",
          "type": "bytes32"
        },
        {
          "internalType": "address",
          "name": "account",
          "type": "address"
        }
      ],
      "name": "grantRole",
      "outputs": [],
      "stateMutability": "nonpayable",
      "type": "function"
    },
    {
      "inputs": [
        {
          "internalType": "bytes32",
          "name": "role",
          "type": "bytes32"
        },
        {
          "internalType": "address",
          "name": "account",
          "type": "address"
        }
      ],
      "name": "hasRole",
      "outputs": [
        {
          "internalType": "bool",
          "name": "",
          "type": "bool"
        }
      ],
      "stateMutability": "view",
      "type": "function"
    },
    {
      "inputs": [
        {
          "internalType": "uint256",
          "name": "bondId",
          "type": "uint256"
        }
      ],
      "name": "maturityExit",
      "outputs": [],
      "stateMutability": "nonpayable",
      "type": "function"
    },
    {
      "inputs": [],
      "name": "nft",
      "outputs": [
        {
          "internalType": "address",
          "name": "",
          "type": "address"
        }
      ],
      "stateMutability": "view",
      "type": "function"
    },
    {
      "inputs": [],
      "name": "oracle",
      "outputs": [
        {
          "internalType": "address",
          "name": "",
          "type": "address"
        }
      ],
      "stateMutability": "view",
      "type": "function"
    },
    {
      "inputs": [],
      "name": "pause",
      "outputs": [],
      "stateMutability": "nonpayable",
      "type": "function"
    },
    {
      "inputs": [],
      "name": "paused",
      "outputs": [
        {
          "internalType": "bool",
          "name": "",
          "type": "bool"
        }
      ],
      "stateMutability": "view",
      "type": "function"
    },
    {
      "inputs": [],
      "name": "preMaturityExitCalculator",
      "outputs": [
        {
          "internalType": "address",
          "name": "",
          "type": "address"
        }
      ],
      "stateMutability": "view",
      "type": "function"
    },
    {
      "inputs": [
        {
          "internalType": "uint256",
          "name": "bondId",
          "type": "uint256"
        }
      ],
      "name": "prematureWithdraw",
      "outputs": [],
      "stateMutability": "nonpayable",
      "type": "function"
    },
    {
      "inputs": [
        {
          "internalType": "bytes32",
          "name": "role",
          "type": "bytes32"
        },
        {
          "internalType": "address",
          "name": "account",
          "type": "address"
        }
      ],
      "name": "renounceRole",
      "outputs": [],
      "stateMutability": "nonpayable",
      "type": "function"
    },
    {
      "inputs": [
        {
          "internalType": "bytes32",
          "name": "role",
          "type": "bytes32"
        },
        {
          "internalType": "address",
          "name": "account",
          "type": "address"
        }
      ],
      "name": "revokeRole",
      "outputs": [],
      "stateMutability": "nonpayable",
      "type": "function"
    },
    {
      "inputs": [
        {
          "internalType": "address",
          "name": "apyCalculator_",
          "type": "address"
        }
      ],
      "name": "setApyCalculator",
      "outputs": [],
      "stateMutability": "nonpayable",
      "type": "function"
    },
    {
      "inputs": [
        {
          "internalType": "uint256",
          "name": "cap",
          "type": "uint256"
        }
      ],
      "name": "setCap",
      "outputs": [],
      "stateMutability": "nonpayable",
      "type": "function"
    },
    {
      "inputs": [
        {
          "internalType": "uint256",
          "name": "claimInterval_",
          "type": "uint256"
        }
      ],
      "name": "setClaimInterval",
      "outputs": [],
      "stateMutability": "nonpayable",
      "type": "function"
    },
    {
      "inputs": [
        {
          "internalType": "address",
          "name": "nft_",
          "type": "address"
        }
      ],
      "name": "setNFT",
      "outputs": [],
      "stateMutability": "nonpayable",
      "type": "function"
    },
    {
      "inputs": [
        {
          "internalType": "address",
          "name": "oracle_",
          "type": "address"
        }
      ],
      "name": "setOracle",
      "outputs": [],
      "stateMutability": "nonpayable",
      "type": "function"
    },
    {
      "inputs": [
        {
          "internalType": "address",
          "name": "preMaturityExitCalculator_",
          "type": "address"
        }
      ],
      "name": "setPreMaturityExitCalculator",
      "outputs": [],
      "stateMutability": "nonpayable",
      "type": "function"
    },
    {
      "inputs": [
        {
          "internalType": "uint256",
          "name": "soldBond_",
          "type": "uint256"
        }
      ],
      "name": "setSoldBond",
      "outputs": [],
      "stateMutability": "nonpayable",
      "type": "function"
    },
    {
      "inputs": [],
      "name": "soldBond",
      "outputs": [
        {
          "internalType": "uint256",
          "name": "",
          "type": "uint256"
        }
      ],
      "stateMutability": "view",
      "type": "function"
    },
    {
      "inputs": [
        {
          "internalType": "bytes4",
          "name": "interfaceId",
          "type": "bytes4"
        }
      ],
      "name": "supportsInterface",
      "outputs": [
        {
          "internalType": "bool",
          "name": "",
          "type": "bool"
        }
      ],
      "stateMutability": "view",
      "type": "function"
    },
    {
      "inputs": [],
      "name": "unpause",
      "outputs": [],
      "stateMutability": "nonpayable",
      "type": "function"
    },
    {
      "inputs": [
        {
          "internalType": "address",
          "name": "token",
          "type": "address"
        },
        {
          "internalType": "uint256",
          "name": "amount",
          "type": "uint256"
        }
      ],
      "name": "withdrawERC20",
      "outputs": [],
      "stateMutability": "nonpayable",
      "type": "function"
    },
    {
      "inputs": [
        {
          "internalType": "uint256",
          "name": "amount",
          "type": "uint256"
        }
      ],
      "name": "withdrawETH",
      "outputs": [],
      "stateMutability": "nonpayable",
      "type": "function"
    }
  ],
  "bytecode": "0x608060405261a8c0600e553480156200001757600080fd5b50604051620042c7380380620042c78339810160408190526200003a9162000287565b6002805460ff191690556001600355600580546001600160a01b03199081166001600160a01b038b8116919091179092556006805482168a8416179055600780548216898416179055600880548216888416179055600a80548216878416179055600b8054821686841617905560098054909116918416919091179055600c819055620000c960008b62000105565b620000f57f0db189261133fd7647d3308512b693b47bed44004cac80fb59aa64b63a231e2c8a62000105565b505050505050505050506200034d565b62000111828262000115565b5050565b6200012c82826200015860201b620029331760201c565b60008281526001602090815260409091206200015391839062002a23620001f8821b17901c565b505050565b6000828152602081815260408083206001600160a01b038516845290915290205460ff1662000111576000828152602081815260408083206001600160a01b03851684529091529020805460ff19166001179055620001b43390565b6001600160a01b0316816001600160a01b0316837f2f8788117e7eff1d82e926ec794901d17c78024a50270940304540a733656f0d60405160405180910390a45050565b60006200020f836001600160a01b03841662000218565b90505b92915050565b6000818152600183016020526040812054620002615750815460018181018455600084815260208082209093018490558454848252828601909352604090209190915562000212565b50600062000212565b80516001600160a01b03811681146200028257600080fd5b919050565b6000806000806000806000806000806101408b8d031215620002a857600080fd5b620002b38b6200026a565b9950620002c360208c016200026a565b9850620002d360408c016200026a565b9750620002e360608c016200026a565b9650620002f360808c016200026a565b95506200030360a08c016200026a565b94506200031360c08c016200026a565b93506200032360e08c016200026a565b9250620003346101008c016200026a565b91506101208b015190509295989b9194979a5092959850565b613f6a806200035d6000396000f3fe608060405234801561001057600080fd5b50600436106102de5760003560e01c80636c73dd69116101865780639ca5814d116100e3578063d547741f11610097578063f14210a611610071578063f14210a6146106e5578063f2d57adf146106f8578063f56e9c661461070b57600080fd5b8063d547741f14610698578063dfccc67e146106ab578063e63ab1e9146106be57600080fd5b8063a217fddf116100c8578063a217fddf1461066a578063c2ca269a14610672578063ca15c8731461068557600080fd5b80639ca5814d14610644578063a1db97821461065757600080fd5b80637e5465ba1161013a5780639010d07c1161011f5780639010d07c146105e4578063911920c9146105f757806391d148541461060057600080fd5b80637e5465ba146105c95780638456cb59146105dc57600080fd5b80637adbf9731161016b5780637adbf973146105765780637c63362b146105895780637dc0d1d0146105a957600080fd5b80636c73dd69146105435780636e50fc461461055657600080fd5b806334ddb95d1161023f57806347786d37116101f35780635c975abb116101cd5780635c975abb146104c95780635cfc1a51146104d45780635f1c17c0146104dd57600080fd5b806347786d371461047657806347ccca02146104895780634bc537a8146104a957600080fd5b8063379607f511610224578063379607f51461044857806338ea0d711461045b5780633f4ba83a1461046e57600080fd5b806334ddb95d1461040e57806336568abe1461043557600080fd5b8063119d461411610296578063248a9ca31161027b578063248a9ca3146103c55780632aee25d3146103e85780632f2ff15d146103fb57600080fd5b8063119d46141461039d5780631fb922e0146103bd57600080fd5b806307406265116102c757806307406265146103505780630b433a12146103655780630f705cbf1461037c57600080fd5b806301ffc9a7146102e3578063035ea1f71461030b575b600080fd5b6102f66102f136600461379b565b61071e565b60405190151581526020015b60405180910390f35b600b5461032b9073ffffffffffffffffffffffffffffffffffffffff1681565b60405173ffffffffffffffffffffffffffffffffffffffff9091168152602001610302565b61036361035e3660046137dd565b61077a565b005b61036e600e5481565b604051908152602001610302565b61038f61038a366004613818565b610e71565b604051610302929190613870565b600a5461032b9073ffffffffffffffffffffffffffffffffffffffff1681565b61036e61112a565b61036e6103d33660046137dd565b60009081526020819052604090206001015490565b61036e6103f63660046138e5565b6111c3565b610363610409366004613907565b6113a5565b61036e7f0db189261133fd7647d3308512b693b47bed44004cac80fb59aa64b63a231e2c81565b610363610443366004613907565b6113cf565b6103636104563660046137dd565b611482565b6103636104693660046137dd565b611937565b6103636119a3565b6103636104843660046137dd565b6119d8565b60085461032b9073ffffffffffffffffffffffffffffffffffffffff1681565b60055461032b9073ffffffffffffffffffffffffffffffffffffffff1681565b60025460ff166102f6565b61036e600c5481565b61051b6104eb3660046137dd565b60046020819052600091825260409091208054600182015460028301546003840154939094015491939092909185565b604080519586526020860194909452928401919091526060830152608082015260a001610302565b6103636105513660046137dd565b611a44565b60075461032b9073ffffffffffffffffffffffffffffffffffffffff1681565b610363610584366004613818565b611f47565b60065461032b9073ffffffffffffffffffffffffffffffffffffffff1681565b60095461032b9073ffffffffffffffffffffffffffffffffffffffff1681565b6103636105d7366004613937565b61200d565b610363612078565b61032b6105f23660046138e5565b6120aa565b61036e600d5481565b6102f661060e366004613907565b60009182526020828152604080842073ffffffffffffffffffffffffffffffffffffffff93909316845291905290205460ff1690565b610363610652366004613818565b6120c9565b610363610665366004613965565b61218f565b61036e600081565b6103636106803660046138e5565b6121da565b61036e6106933660046137dd565b6126a8565b6103636106a6366004613907565b6126bf565b6103636106b9366004613818565b6126e4565b61036e7f65d7a28e3265b37a6474929f336521b332c1681b933f6cb9f3376673440d862a81565b6103636106f33660046137dd565b6127aa565b6103636107063660046137dd565b612801565b610363610719366004613818565b61286d565b60007fffffffff0000000000000000000000000000000000000000000000000000000082167f5a05180f000000000000000000000000000000000000000000000000000000001480610774575061077482612a45565b92915050565b60025460ff16156107ec576040517f08c379a000000000000000000000000000000000000000000000000000000000815260206004820152601060248201527f5061757361626c653a207061757365640000000000000000000000000000000060448201526064015b60405180910390fd5b600260035403610858576040517f08c379a000000000000000000000000000000000000000000000000000000000815260206004820152601f60248201527f5265656e7472616e637947756172643a207265656e7472616e742063616c6c0060448201526064016107e3565b60026003556008546040517f6352211e0000000000000000000000000000000000000000000000000000000081526004810183905260009173ffffffffffffffffffffffffffffffffffffffff1690636352211e90602401602060405180830381865afa1580156108cd573d6000803e3d6000fd5b505050506040513d601f19601f820116820180604052508101906108f19190613991565b905073ffffffffffffffffffffffffffffffffffffffff81163314610998576040517f08c379a000000000000000000000000000000000000000000000000000000000815260206004820152602160248201527f446569426f6e643a2053454e4445525f49535f4e4f545f424f4e445f4f574e4560448201527f520000000000000000000000000000000000000000000000000000000000000060648201526084016107e3565b6008546040517f4c0610ab00000000000000000000000000000000000000000000000000000000815260048101849052309173ffffffffffffffffffffffffffffffffffffffff1690634c0610ab90602401602060405180830381865afa158015610a07573d6000803e3d6000fd5b505050506040513d601f19601f82011682018060405250810190610a2b9190613991565b73ffffffffffffffffffffffffffffffffffffffff1614610aa8576040517f08c379a000000000000000000000000000000000000000000000000000000000815260206004820152601a60248201527f446569426f6e643a204e46545f4e4f545f535550504f5254454400000000000060448201526064016107e3565b600082815260046020818152604092839020835160a0810185528154815260018201549281019290925260028101549382018490526003810154606083018190529201546080820152914291610afd916139dd565b10610b64576040517f08c379a000000000000000000000000000000000000000000000000000000000815260206004820152601c60248201527f446569426f6e643a20424f4e445f49535f4e4f545f455850495245440000000060448201526064016107e3565b600954604080517f98d5fdca000000000000000000000000000000000000000000000000000000008152905160009273ffffffffffffffffffffffffffffffffffffffff16916398d5fdca9160048083019260209291908290030181865afa158015610bd4573d6000803e3d6000fd5b505050506040513d601f19601f82011682018060405250810190610bf891906139f5565b90506000610c0685836111c3565b90508015610c70576040517f08c379a000000000000000000000000000000000000000000000000000000000815260206004820152601860248201527f446569426f6e643a204e4f545f434c41494d45445f594554000000000000000060448201526064016107e3565b8251600d8054829190600090610c87908490613a0e565b9091555050600086815260046020818152604080842084905560075481517f313ce5670000000000000000000000000000000000000000000000000000000081529151859473ffffffffffffffffffffffffffffffffffffffff9092169363313ce5679380840193919291908290030181865afa158015610d0c573d6000803e3d6000fd5b505050506040513d601f19601f82011682018060405250810190610d309190613a25565b60ff1690506000600660009054906101000a900473ffffffffffffffffffffffffffffffffffffffff1673ffffffffffffffffffffffffffffffffffffffff1663313ce5676040518163ffffffff1660e01b8152600401602060405180830381865afa158015610da4573d6000803e3d6000fd5b505050506040513d601f19601f82011682018060405250810190610dc89190613a25565b60ff1690506000818310610de557610de08284613a0e565b610def565b610def8383613a0e565b9050610dfc81600a613b68565b610e069086613b74565b600654909450610e2d9073ffffffffffffffffffffffffffffffffffffffff163386612adc565b6040518a81527fb1a7e5897be2dc8c8790ec756ed0cf34d7f3d5518bfecd181b455550a25029f39060200160405180910390a1505060016003555050505050505050565b6008546040517f5a3f267200000000000000000000000000000000000000000000000000000000815273ffffffffffffffffffffffffffffffffffffffff8381166004830152606092839260009290911690635a3f267290602401600060405180830381865afa158015610ee9573d6000803e3d6000fd5b505050506040513d6000823e601f3d9081017fffffffffffffffffffffffffffffffffffffffffffffffffffffffffffffffe0168201604052610f2f9190810190613bde565b90506000815167ffffffffffffffff811115610f4d57610f4d613baf565b604051908082528060200260200182016040528015610fb057816020015b610f9d6040518060a0016040528060008152602001600081526020016000815260200160008152602001600081525090565b815260200190600190039081610f6b5790505b5090506000805b835181101561111d576008548451309173ffffffffffffffffffffffffffffffffffffffff1690634c0610ab90879085908110610ff657610ff6613cba565b60200260200101516040518263ffffffff1660e01b815260040161101c91815260200190565b602060405180830381865afa158015611039573d6000803e3d6000fd5b505050506040513d601f19601f8201168201806040525081019061105d9190613991565b73ffffffffffffffffffffffffffffffffffffffff160361110b576004600085838151811061108e5761108e613cba565b602002602001015181526020019081526020016000206040518060a0016040529081600082015481526020016001820154815260200160028201548152602001600382015481526020016004820154815250508383806110ed90613ce9565b9450815181106110ff576110ff613cba565b60200260200101819052505b8061111581613ce9565b915050610fb7565b5090959194509092505050565b600a54604080517f1fb922e0000000000000000000000000000000000000000000000000000000008152905160009273ffffffffffffffffffffffffffffffffffffffff1691631fb922e09160048083019260209291908290030181865afa15801561119a573d6000803e3d6000fd5b505050506040513d601f19601f820116820180604052508101906111be91906139f5565b905090565b6000828152600460208181526040808420815160a081018352815481526001820154938101939093526002810154918301829052600381015460608401819052930154608083015290918391611218916139dd565b90506000814211611229574261122b565b815b90506000600e54846060015185608001516112469190613a0e565b6112509190613b74565b600e5460608601516112629085613a0e565b61126c9190613b74565b6112769190613a0e565b90506000600e54856040015161128c9190613b74565b905060006112a282670de0b6b3a7640000613d21565b602087015187516112b4908690613d21565b6112be9190613d21565b6112c89190613b74565b905087600760009054906101000a900473ffffffffffffffffffffffffffffffffffffffff1673ffffffffffffffffffffffffffffffffffffffff1663313ce5676040518163ffffffff1660e01b8152600401602060405180830381865afa158015611338573d6000803e3d6000fd5b505050506040513d601f19601f8201168201806040525081019061135c9190613a25565b611367906012613d5e565b61137290600a613d81565b61137c9083613d21565b61138e90670de0b6b3a7640000613d21565b6113989190613b74565b9998505050505050505050565b6000828152602081905260409020600101546113c081612bb0565b6113ca8383612bba565b505050565b73ffffffffffffffffffffffffffffffffffffffff81163314611474576040517f08c379a000000000000000000000000000000000000000000000000000000000815260206004820152602f60248201527f416363657373436f6e74726f6c3a2063616e206f6e6c792072656e6f756e636560448201527f20726f6c657320666f722073656c66000000000000000000000000000000000060648201526084016107e3565b61147e8282612bdc565b5050565b60025460ff16156114ef576040517f08c379a000000000000000000000000000000000000000000000000000000000815260206004820152601060248201527f5061757361626c653a207061757365640000000000000000000000000000000060448201526064016107e3565b60026003540361155b576040517f08c379a000000000000000000000000000000000000000000000000000000000815260206004820152601f60248201527f5265656e7472616e637947756172643a207265656e7472616e742063616c6c0060448201526064016107e3565b60026003556008546040517f6352211e0000000000000000000000000000000000000000000000000000000081526004810183905260009173ffffffffffffffffffffffffffffffffffffffff1690636352211e90602401602060405180830381865afa1580156115d0573d6000803e3d6000fd5b505050506040513d601f19601f820116820180604052508101906115f49190613991565b905073ffffffffffffffffffffffffffffffffffffffff8116331461169b576040517f08c379a000000000000000000000000000000000000000000000000000000000815260206004820152602160248201527f446569426f6e643a2053454e4445525f49535f4e4f545f424f4e445f4f574e4560448201527f520000000000000000000000000000000000000000000000000000000000000060648201526084016107e3565b6008546040517f4c0610ab00000000000000000000000000000000000000000000000000000000815260048101849052309173ffffffffffffffffffffffffffffffffffffffff1690634c0610ab90602401602060405180830381865afa15801561170a573d6000803e3d6000fd5b505050506040513d601f19601f8201168201806040525081019061172e9190613991565b73ffffffffffffffffffffffffffffffffffffffff16146117ab576040517f08c379a000000000000000000000000000000000000000000000000000000000815260206004820152601d60248201527f446569426f6e643a204e46545f49535f4e4f545f535550504f5254454400000060448201526064016107e3565b600954604080517f98d5fdca000000000000000000000000000000000000000000000000000000008152905160009273ffffffffffffffffffffffffffffffffffffffff16916398d5fdca9160048083019260209291908290030181865afa15801561181b573d6000803e3d6000fd5b505050506040513d601f19601f8201168201806040525081019061183f91906139f5565b9050600061184d84836111c3565b9050600081116118b9576040517f08c379a000000000000000000000000000000000000000000000000000000000815260206004820152601d60248201527f446569426f6e643a20434c41494d5f414d4f554e545f49535f5a45524f00000060448201526064016107e3565b6000848152600460208190526040909120429101556005546118f29073ffffffffffffffffffffffffffffffffffffffff163383612adc565b60408051858152602081018390527f022e3d29644ead4083349ca84d24bcac368b2461819b70f5921fea15de4dec4d91015b60405180910390a1505060016003555050565b7f0db189261133fd7647d3308512b693b47bed44004cac80fb59aa64b63a231e2c61196181612bb0565b600d5460408051918252602082018490527fff4bb68dc43e13871b6387180350b878fa778a446b0015c8c681a83b047ac049910160405180910390a150600d55565b7f0db189261133fd7647d3308512b693b47bed44004cac80fb59aa64b63a231e2c6119cd81612bb0565b6119d5612bfe565b50565b7f0db189261133fd7647d3308512b693b47bed44004cac80fb59aa64b63a231e2c611a0281612bb0565b600c5460408051918252602082018490527fdbbbb176683582b710ef3349793b8d62658724a9d9b54deccf193c4b0aa90c4c910160405180910390a150600c55565b60025460ff1615611ab1576040517f08c379a000000000000000000000000000000000000000000000000000000000815260206004820152601060248201527f5061757361626c653a207061757365640000000000000000000000000000000060448201526064016107e3565b600260035403611b1d576040517f08c379a000000000000000000000000000000000000000000000000000000000815260206004820152601f60248201527f5265656e7472616e637947756172643a207265656e7472616e742063616c6c0060448201526064016107e3565b60026003556008546040517f6352211e0000000000000000000000000000000000000000000000000000000081526004810183905260009173ffffffffffffffffffffffffffffffffffffffff1690636352211e90602401602060405180830381865afa158015611b92573d6000803e3d6000fd5b505050506040513d601f19601f82011682018060405250810190611bb69190613991565b905073ffffffffffffffffffffffffffffffffffffffff81163314611c5d576040517f08c379a000000000000000000000000000000000000000000000000000000000815260206004820152602160248201527f446569426f6e643a2053454e4445525f49535f4e4f545f424f4e445f4f574e4560448201527f520000000000000000000000000000000000000000000000000000000000000060648201526084016107e3565b6008546040517f4c0610ab00000000000000000000000000000000000000000000000000000000815260048101849052309173ffffffffffffffffffffffffffffffffffffffff1690634c0610ab90602401602060405180830381865afa158015611ccc573d6000803e3d6000fd5b505050506040513d601f19601f82011682018060405250810190611cf09190613991565b73ffffffffffffffffffffffffffffffffffffffff1614611d6d576040517f08c379a000000000000000000000000000000000000000000000000000000000815260206004820152601a60248201527f446569426f6e643a204e46545f4e4f545f535550504f5254454400000000000060448201526064016107e3565b600082815260046020818152604092839020835160a0810185528154815260018201549281019290925260028101549382018490526003810154606083018190529201546080820152914291611dc2916139dd565b11611e29576040517f08c379a000000000000000000000000000000000000000000000000000000000815260206004820152601860248201527f446569426f6e643a20424f4e445f49535f45585049524544000000000000000060448201526064016107e3565b8051600d8054600090611e3d908490613a0e565b90915550506000838152600460208190526040808320839055600b5460085491517f2a485f3400000000000000000000000000000000000000000000000000000000815292830187905273ffffffffffffffffffffffffffffffffffffffff91821660248401521690632a485f3490604401602060405180830381865afa158015611ecc573d6000803e3d6000fd5b505050506040513d601f19601f82011682018060405250810190611ef091906139f5565b600754909150611f179073ffffffffffffffffffffffffffffffffffffffff163383612adc565b6040518481527f0544740a33879204c984cfc2b7950aa19795f75bc49b08146bbaad055f1342d090602001611924565b7f0db189261133fd7647d3308512b693b47bed44004cac80fb59aa64b63a231e2c611f7181612bb0565b6009546040805173ffffffffffffffffffffffffffffffffffffffff928316815291841660208301527fb7261e9c33aa7c56209c3bf60b424a8f9551ce28876c0ab3d0c487695e943487910160405180910390a150600980547fffffffffffffffffffffffff00000000000000000000000000000000000000001673ffffffffffffffffffffffffffffffffffffffff92909216919091179055565b7f0db189261133fd7647d3308512b693b47bed44004cac80fb59aa64b63a231e2c61203781612bb0565b6113ca73ffffffffffffffffffffffffffffffffffffffff8416837fffffffffffffffffffffffffffffffffffffffffffffffffffffffffffffffff612cdf565b7f65d7a28e3265b37a6474929f336521b332c1681b933f6cb9f3376673440d862a6120a281612bb0565b6119d5612e61565b60008281526001602052604081206120c29083612f21565b9392505050565b7f0db189261133fd7647d3308512b693b47bed44004cac80fb59aa64b63a231e2c6120f381612bb0565b600a546040805173ffffffffffffffffffffffffffffffffffffffff928316815291841660208301527f39952e6ac34862b47935b341829699a128ff4eb186c7f46592d1b04f5b240815910160405180910390a150600a80547fffffffffffffffffffffffff00000000000000000000000000000000000000001673ffffffffffffffffffffffffffffffffffffffff92909216919091179055565b7f0db189261133fd7647d3308512b693b47bed44004cac80fb59aa64b63a231e2c6121b981612bb0565b6113ca73ffffffffffffffffffffffffffffffffffffffff84163384612adc565b60025460ff1615612247576040517f08c379a000000000000000000000000000000000000000000000000000000000815260206004820152601060248201527f5061757361626c653a207061757365640000000000000000000000000000000060448201526064016107e3565b6002600354036122b3576040517f08c379a000000000000000000000000000000000000000000000000000000000815260206004820152601f60248201527f5265656e7472616e637947756172643a207265656e7472616e742063616c6c0060448201526064016107e3565b6002600355600c54600d546122c890846139dd565b1115612330576040517f08c379a000000000000000000000000000000000000000000000000000000000815260206004820152601860248201527f446569426f6e643a2054484552455f49535f4e4f5f434150000000000000000060448201526064016107e3565b600a60009054906101000a900473ffffffffffffffffffffffffffffffffffffffff1673ffffffffffffffffffffffffffffffffffffffff16631fb922e06040518163ffffffff1660e01b8152600401602060405180830381865afa15801561239d573d6000803e3d6000fd5b505050506040513d601f19601f820116820180604052508101906123c191906139f5565b81111561242a576040517f08c379a000000000000000000000000000000000000000000000000000000000815260206004820152601960248201527f446569426f6e643a20494e53554646494349454e545f4150590000000000000060448201526064016107e3565b6007546040517f23b872dd0000000000000000000000000000000000000000000000000000000081523360048201523060248201526044810184905273ffffffffffffffffffffffffffffffffffffffff909116906323b872dd906064016020604051808303816000875af11580156124a7573d6000803e3d6000fd5b505050506040513d601f19601f820116820180604052508101906124cb9190613d90565b506008546040517fee1fe2ad00000000000000000000000000000000000000000000000000000000815233600482015230602482015260009173ffffffffffffffffffffffffffffffffffffffff169063ee1fe2ad906044016020604051808303816000875af1158015612543573d6000803e3d6000fd5b505050506040513d601f19601f8201168201806040525081019061256791906139f5565b905060006040518060a00160405280858152602001600a60009054906101000a900473ffffffffffffffffffffffffffffffffffffffff1673ffffffffffffffffffffffffffffffffffffffff16631fb922e06040518163ffffffff1660e01b8152600401602060405180830381865afa1580156125e9573d6000803e3d6000fd5b505050506040513d601f19601f8201168201806040525081019061260d91906139f5565b815260200162ed4e00815260200142815260200142815250905083600d600082825461263991906139dd565b909155505060008281526004602081815260409283902084518155908401516001820155828401516002820155606084015160038201556080840151910155517fb1aa4b8adbab5695762dfd9d53c48cf9ade864709f7b6fd3cd544f6ffbe75a83906119249084815260200190565b600081815260016020526040812061077490612f2d565b6000828152602081905260409020600101546126da81612bb0565b6113ca8383612bdc565b7f0db189261133fd7647d3308512b693b47bed44004cac80fb59aa64b63a231e2c61270e81612bb0565b600b546040805173ffffffffffffffffffffffffffffffffffffffff928316815291841660208301527fca977ebce3d61f4f0149afa8b8f09e3225d7ac0e58e60d06136366eaa00df1f3910160405180910390a150600b80547fffffffffffffffffffffffff00000000000000000000000000000000000000001673ffffffffffffffffffffffffffffffffffffffff92909216919091179055565b7f0db189261133fd7647d3308512b693b47bed44004cac80fb59aa64b63a231e2c6127d481612bb0565b604051339083156108fc029084906000818181858888f193505050501580156113ca573d6000803e3d6000fd5b7f0db189261133fd7647d3308512b693b47bed44004cac80fb59aa64b63a231e2c61282b81612bb0565b600e5460408051918252602082018490527f0d8e7a61135a0b471ca4c20f606c82e40bfdfa34727d5bb209bda99fdaf9d6c1910160405180910390a150600e55565b7f0db189261133fd7647d3308512b693b47bed44004cac80fb59aa64b63a231e2c61289781612bb0565b6008546040805173ffffffffffffffffffffffffffffffffffffffff928316815291841660208301527f18903e593d168b3b8e4aacad99d15d9bce69a044067a51b09a757f96134791aa910160405180910390a150600880547fffffffffffffffffffffffff00000000000000000000000000000000000000001673ffffffffffffffffffffffffffffffffffffffff92909216919091179055565b60008281526020818152604080832073ffffffffffffffffffffffffffffffffffffffff8516845290915290205460ff1661147e5760008281526020818152604080832073ffffffffffffffffffffffffffffffffffffffff85168452909152902080547fffffffffffffffffffffffffffffffffffffffffffffffffffffffffffffff001660011790556129c53390565b73ffffffffffffffffffffffffffffffffffffffff168173ffffffffffffffffffffffffffffffffffffffff16837f2f8788117e7eff1d82e926ec794901d17c78024a50270940304540a733656f0d60405160405180910390a45050565b60006120c28373ffffffffffffffffffffffffffffffffffffffff8416612f37565b60007fffffffff0000000000000000000000000000000000000000000000000000000082167f7965db0b00000000000000000000000000000000000000000000000000000000148061077457507f01ffc9a7000000000000000000000000000000000000000000000000000000007fffffffff00000000000000000000000000000000000000000000000000000000831614610774565b60405173ffffffffffffffffffffffffffffffffffffffff83166024820152604481018290526113ca9084907fa9059cbb00000000000000000000000000000000000000000000000000000000906064015b604080517fffffffffffffffffffffffffffffffffffffffffffffffffffffffffffffffe08184030181529190526020810180517bffffffffffffffffffffffffffffffffffffffffffffffffffffffff167fffffffff0000000000000000000000000000000000000000000000000000000090931692909217909152612f86565b6119d58133613092565b612bc48282612933565b60008281526001602052604090206113ca9082612a23565b612be68282613162565b60008281526001602052604090206113ca9082613219565b60025460ff16612c6a576040517f08c379a000000000000000000000000000000000000000000000000000000000815260206004820152601460248201527f5061757361626c653a206e6f742070617573656400000000000000000000000060448201526064016107e3565b600280547fffffffffffffffffffffffffffffffffffffffffffffffffffffffffffffff001690557f5db9ee0a495bf2e6ff9c91a7834c1ba4fdd244a5e8aa4e537bd38aeae4b073aa335b60405173ffffffffffffffffffffffffffffffffffffffff909116815260200160405180910390a1565b801580612d7f57506040517fdd62ed3e00000000000000000000000000000000000000000000000000000000815230600482015273ffffffffffffffffffffffffffffffffffffffff838116602483015284169063dd62ed3e90604401602060405180830381865afa158015612d59573d6000803e3d6000fd5b505050506040513d601f19601f82011682018060405250810190612d7d91906139f5565b155b612e0b576040517f08c379a000000000000000000000000000000000000000000000000000000000815260206004820152603660248201527f5361666545524332303a20617070726f76652066726f6d206e6f6e2d7a65726f60448201527f20746f206e6f6e2d7a65726f20616c6c6f77616e63650000000000000000000060648201526084016107e3565b60405173ffffffffffffffffffffffffffffffffffffffff83166024820152604481018290526113ca9084907f095ea7b30000000000000000000000000000000000000000000000000000000090606401612b2e565b60025460ff1615612ece576040517f08c379a000000000000000000000000000000000000000000000000000000000815260206004820152601060248201527f5061757361626c653a207061757365640000000000000000000000000000000060448201526064016107e3565b600280547fffffffffffffffffffffffffffffffffffffffffffffffffffffffffffffff001660011790557f62e78cea01bee320cd4e420270b5ea74000d11b0c9f74754ebdbfc544b05a258612cb53390565b60006120c2838361323b565b6000610774825490565b6000818152600183016020526040812054612f7e57508154600181810184556000848152602080822090930184905584548482528286019093526040902091909155610774565b506000610774565b6000612fe8826040518060400160405280602081526020017f5361666545524332303a206c6f772d6c6576656c2063616c6c206661696c65648152508573ffffffffffffffffffffffffffffffffffffffff166132659092919063ffffffff16565b8051909150156113ca57808060200190518101906130069190613d90565b6113ca576040517f08c379a000000000000000000000000000000000000000000000000000000000815260206004820152602a60248201527f5361666545524332303a204552433230206f7065726174696f6e20646964206e60448201527f6f7420737563636565640000000000000000000000000000000000000000000060648201526084016107e3565b60008281526020818152604080832073ffffffffffffffffffffffffffffffffffffffff8516845290915290205460ff1661147e576130e88173ffffffffffffffffffffffffffffffffffffffff16601461327c565b6130f383602061327c565b604051602001613104929190613de2565b604080517fffffffffffffffffffffffffffffffffffffffffffffffffffffffffffffffe0818403018152908290527f08c379a00000000000000000000000000000000000000000000000000000000082526107e391600401613e63565b60008281526020818152604080832073ffffffffffffffffffffffffffffffffffffffff8516845290915290205460ff161561147e5760008281526020818152604080832073ffffffffffffffffffffffffffffffffffffffff8516808552925280832080547fffffffffffffffffffffffffffffffffffffffffffffffffffffffffffffff0016905551339285917ff6391f5c32d9c69d2a47ea670b442974b53935d1edc7fd64eb21e047a839171b9190a45050565b60006120c28373ffffffffffffffffffffffffffffffffffffffff84166134bf565b600082600001828154811061325257613252613cba565b9060005260206000200154905092915050565b606061327484846000856135b2565b949350505050565b6060600061328b836002613d21565b6132969060026139dd565b67ffffffffffffffff8111156132ae576132ae613baf565b6040519080825280601f01601f1916602001820160405280156132d8576020820181803683370190505b5090507f30000000000000000000000000000000000000000000000000000000000000008160008151811061330f5761330f613cba565b60200101907effffffffffffffffffffffffffffffffffffffffffffffffffffffffffffff1916908160001a9053507f78000000000000000000000000000000000000000000000000000000000000008160018151811061337257613372613cba565b60200101907effffffffffffffffffffffffffffffffffffffffffffffffffffffffffffff1916908160001a90535060006133ae846002613d21565b6133b99060016139dd565b90505b6001811115613456577f303132333435363738396162636465660000000000000000000000000000000085600f16601081106133fa576133fa613cba565b1a60f81b82828151811061341057613410613cba565b60200101907effffffffffffffffffffffffffffffffffffffffffffffffffffffffffffff1916908160001a90535060049490941c9361344f81613eb4565b90506133bc565b5083156120c2576040517f08c379a000000000000000000000000000000000000000000000000000000000815260206004820181905260248201527f537472696e67733a20686578206c656e67746820696e73756666696369656e7460448201526064016107e3565b600081815260018301602052604081205480156135a85760006134e3600183613a0e565b85549091506000906134f790600190613a0e565b905081811461355c57600086600001828154811061351757613517613cba565b906000526020600020015490508087600001848154811061353a5761353a613cba565b6000918252602080832090910192909255918252600188019052604090208390555b855486908061356d5761356d613ee9565b600190038181906000526020600020016000905590558560010160008681526020019081526020016000206000905560019350505050610774565b6000915050610774565b606082471015613644576040517f08c379a000000000000000000000000000000000000000000000000000000000815260206004820152602660248201527f416464726573733a20696e73756666696369656e742062616c616e636520666f60448201527f722063616c6c000000000000000000000000000000000000000000000000000060648201526084016107e3565b73ffffffffffffffffffffffffffffffffffffffff85163b6136c2576040517f08c379a000000000000000000000000000000000000000000000000000000000815260206004820152601d60248201527f416464726573733a2063616c6c20746f206e6f6e2d636f6e747261637400000060448201526064016107e3565b6000808673ffffffffffffffffffffffffffffffffffffffff1685876040516136eb9190613f18565b60006040518083038185875af1925050503d8060008114613728576040519150601f19603f3d011682016040523d82523d6000602084013e61372d565b606091505b509150915061373d828286613748565b979650505050505050565b606083156137575750816120c2565b8251156137675782518084602001fd5b816040517f08c379a00000000000000000000000000000000000000000000000000000000081526004016107e39190613e63565b6000602082840312156137ad57600080fd5b81357fffffffff00000000000000000000000000000000000000000000000000000000811681146120c257600080fd5b6000602082840312156137ef57600080fd5b5035919050565b73ffffffffffffffffffffffffffffffffffffffff811681146119d557600080fd5b60006020828403121561382a57600080fd5b81356120c2816137f6565b600081518084526020808501945080840160005b8381101561386557815187529582019590820190600101613849565b509495945050505050565b6040808252835182820181905260009190606090818501906020808901865b838110156138d1578151805186528381015184870152878101518887015286810151878701526080908101519086015260a0909401939082019060010161388f565b5050868303908701525061373d8187613835565b600080604083850312156138f857600080fd5b50508035926020909101359150565b6000806040838503121561391a57600080fd5b82359150602083013561392c816137f6565b809150509250929050565b6000806040838503121561394a57600080fd5b8235613955816137f6565b9150602083013561392c816137f6565b6000806040838503121561397857600080fd5b8235613983816137f6565b946020939093013593505050565b6000602082840312156139a357600080fd5b81516120c2816137f6565b7f4e487b7100000000000000000000000000000000000000000000000000000000600052601160045260246000fd5b600082198211156139f0576139f06139ae565b500190565b600060208284031215613a0757600080fd5b5051919050565b600082821015613a2057613a206139ae565b500390565b600060208284031215613a3757600080fd5b815160ff811681146120c257600080fd5b600181815b80851115613aa157817fffffffffffffffffffffffffffffffffffffffffffffffffffffffffffffffff04821115613a8757613a876139ae565b80851615613a9457918102915b93841c9390800290613a4d565b509250929050565b600082613ab857506001610774565b81613ac557506000610774565b8160018114613adb5760028114613ae557613b01565b6001915050610774565b60ff841115613af657613af66139ae565b50506001821b610774565b5060208310610133831016604e8410600b8410161715613b24575081810a610774565b613b2e8383613a48565b807fffffffffffffffffffffffffffffffffffffffffffffffffffffffffffffffff04821115613b6057613b606139ae565b029392505050565b60006120c28383613aa9565b600082613baa577f4e487b7100000000000000000000000000000000000000000000000000000000600052601260045260246000fd5b500490565b7f4e487b7100000000000000000000000000000000000000000000000000000000600052604160045260246000fd5b60006020808385031215613bf157600080fd5b825167ffffffffffffffff80821115613c0957600080fd5b818501915085601f830112613c1d57600080fd5b815181811115613c2f57613c2f613baf565b8060051b6040517fffffffffffffffffffffffffffffffffffffffffffffffffffffffffffffffe0603f83011681018181108582111715613c7257613c72613baf565b604052918252848201925083810185019188831115613c9057600080fd5b938501935b82851015613cae57845184529385019392850192613c95565b98975050505050505050565b7f4e487b7100000000000000000000000000000000000000000000000000000000600052603260045260246000fd5b60007fffffffffffffffffffffffffffffffffffffffffffffffffffffffffffffffff8203613d1a57613d1a6139ae565b5060010190565b6000817fffffffffffffffffffffffffffffffffffffffffffffffffffffffffffffffff0483118215151615613d5957613d596139ae565b500290565b600060ff821660ff841680821015613d7857613d786139ae565b90039392505050565b60006120c260ff841683613aa9565b600060208284031215613da257600080fd5b815180151581146120c257600080fd5b60005b83811015613dcd578181015183820152602001613db5565b83811115613ddc576000848401525b50505050565b7f416363657373436f6e74726f6c3a206163636f756e7420000000000000000000815260008351613e1a816017850160208801613db2565b7f206973206d697373696e6720726f6c65200000000000000000000000000000006017918401918201528351613e57816028840160208801613db2565b01602801949350505050565b6020815260008251806020840152613e82816040850160208701613db2565b601f017fffffffffffffffffffffffffffffffffffffffffffffffffffffffffffffffe0169190910160400192915050565b600081613ec357613ec36139ae565b507fffffffffffffffffffffffffffffffffffffffffffffffffffffffffffffffff0190565b7f4e487b7100000000000000000000000000000000000000000000000000000000600052603160045260246000fd5b60008251613f2a818460208701613db2565b919091019291505056fea264697066735822122022d8aa1986f079b7bbc85754a02adae2aa5c79777ec6472c432fed135f86393b64736f6c634300080d0033",
  "linkReferences": {},
  "deployedLinkReferences": {}
}