{
  "_format": "hh-sol-artifact-1",
  "contractName": "DeiBonds",
  "sourceName": "contracts/DeiBonds.sol",
  "abi": [
    {
      "inputs": [
        {
          "internalType": "address",
          "name": "admin",
          "type": "address"
        },
        {
          "internalType": "address",
          "name": "trusty",
          "type": "address"
        },
        {
          "internalType": "address",
          "name": "deus_",
          "type": "address"
        },
        {
          "internalType": "address",
          "name": "exitToken_",
          "type": "address"
        },
        {
          "internalType": "address",
          "name": "entryToken_",
          "type": "address"
        },
        {
          "internalType": "address",
          "name": "nft_",
          "type": "address"
        },
        {
          "internalType": "address",
          "name": "apyCalculator_",
          "type": "address"
        },
        {
          "internalType": "address",
          "name": "escapeBondCalculator_",
          "type": "address"
        },
        {
          "internalType": "address",
          "name": "oracle_",
          "type": "address"
        },
        {
          "internalType": "uint256",
          "name": "capacity_",
          "type": "uint256"
        }
      ],
      "stateMutability": "nonpayable",
      "type": "constructor"
    },
    {
      "anonymous": false,
      "inputs": [
        {
          "indexed": false,
          "internalType": "uint256",
          "name": "bondId",
          "type": "uint256"
        }
      ],
      "name": "BuyBond",
      "type": "event"
    },
    {
      "anonymous": false,
      "inputs": [
        {
          "indexed": false,
          "internalType": "uint256",
          "name": "bondId",
          "type": "uint256"
        },
        {
          "indexed": false,
          "internalType": "uint256",
          "name": "claimAmount",
          "type": "uint256"
        }
      ],
      "name": "Claim",
      "type": "event"
    },
    {
      "anonymous": false,
      "inputs": [
        {
          "indexed": false,
          "internalType": "uint256",
          "name": "bondId",
          "type": "uint256"
        }
      ],
      "name": "EscapeBond",
      "type": "event"
    },
    {
      "anonymous": false,
      "inputs": [
        {
          "indexed": false,
          "internalType": "uint256",
          "name": "bondId",
          "type": "uint256"
        }
      ],
      "name": "ExitBond",
      "type": "event"
    },
    {
      "anonymous": false,
      "inputs": [
        {
          "indexed": false,
          "internalType": "address",
          "name": "account",
          "type": "address"
        }
      ],
      "name": "Paused",
      "type": "event"
    },
    {
      "anonymous": false,
      "inputs": [
        {
          "indexed": true,
          "internalType": "bytes32",
          "name": "role",
          "type": "bytes32"
        },
        {
          "indexed": true,
          "internalType": "bytes32",
          "name": "previousAdminRole",
          "type": "bytes32"
        },
        {
          "indexed": true,
          "internalType": "bytes32",
          "name": "newAdminRole",
          "type": "bytes32"
        }
      ],
      "name": "RoleAdminChanged",
      "type": "event"
    },
    {
      "anonymous": false,
      "inputs": [
        {
          "indexed": true,
          "internalType": "bytes32",
          "name": "role",
          "type": "bytes32"
        },
        {
          "indexed": true,
          "internalType": "address",
          "name": "account",
          "type": "address"
        },
        {
          "indexed": true,
          "internalType": "address",
          "name": "sender",
          "type": "address"
        }
      ],
      "name": "RoleGranted",
      "type": "event"
    },
    {
      "anonymous": false,
      "inputs": [
        {
          "indexed": true,
          "internalType": "bytes32",
          "name": "role",
          "type": "bytes32"
        },
        {
          "indexed": true,
          "internalType": "address",
          "name": "account",
          "type": "address"
        },
        {
          "indexed": true,
          "internalType": "address",
          "name": "sender",
          "type": "address"
        }
      ],
      "name": "RoleRevoked",
      "type": "event"
    },
    {
      "anonymous": false,
      "inputs": [
        {
          "indexed": false,
          "internalType": "address",
          "name": "oldValue",
          "type": "address"
        },
        {
          "indexed": false,
          "internalType": "address",
          "name": "newValue",
          "type": "address"
        }
      ],
      "name": "SetApyCalculator",
      "type": "event"
    },
    {
      "anonymous": false,
      "inputs": [
        {
          "indexed": false,
          "internalType": "uint256",
          "name": "oldValue",
          "type": "uint256"
        },
        {
          "indexed": false,
          "internalType": "uint256",
          "name": "newValue",
          "type": "uint256"
        }
      ],
      "name": "SetCap",
      "type": "event"
    },
    {
      "anonymous": false,
      "inputs": [
        {
          "indexed": false,
          "internalType": "uint256",
          "name": "oldValue",
          "type": "uint256"
        },
        {
          "indexed": false,
          "internalType": "uint256",
          "name": "newValue",
          "type": "uint256"
        }
      ],
      "name": "SetClaimInterval",
      "type": "event"
    },
    {
      "anonymous": false,
      "inputs": [
        {
          "indexed": false,
          "internalType": "address",
          "name": "oldValue",
          "type": "address"
        },
        {
          "indexed": false,
          "internalType": "address",
          "name": "newValue",
          "type": "address"
        }
      ],
      "name": "SetEscapeBondCalculator",
      "type": "event"
    },
    {
      "anonymous": false,
      "inputs": [
        {
          "indexed": false,
          "internalType": "address",
          "name": "oldValue",
          "type": "address"
        },
        {
          "indexed": false,
          "internalType": "address",
          "name": "newValue",
          "type": "address"
        }
      ],
      "name": "SetNft",
      "type": "event"
    },
    {
      "anonymous": false,
      "inputs": [
        {
          "indexed": false,
          "internalType": "address",
          "name": "oldValue",
          "type": "address"
        },
        {
          "indexed": false,
          "internalType": "address",
          "name": "newValue",
          "type": "address"
        }
      ],
      "name": "SetOracle",
      "type": "event"
    },
    {
      "anonymous": false,
      "inputs": [
        {
          "indexed": false,
          "internalType": "uint256",
          "name": "oldValue",
          "type": "uint256"
        },
        {
          "indexed": false,
          "internalType": "uint256",
          "name": "newValue",
          "type": "uint256"
        }
      ],
      "name": "SetSoldBond",
      "type": "event"
    },
    {
      "anonymous": false,
      "inputs": [
        {
          "indexed": false,
          "internalType": "address",
          "name": "account",
          "type": "address"
        }
      ],
      "name": "Unpaused",
      "type": "event"
    },
    {
      "inputs": [],
      "name": "DEFAULT_ADMIN_ROLE",
      "outputs": [
        {
          "internalType": "bytes32",
          "name": "",
          "type": "bytes32"
        }
      ],
      "stateMutability": "view",
      "type": "function"
    },
    {
      "inputs": [],
      "name": "PAUSER_ROLE",
      "outputs": [
        {
          "internalType": "bytes32",
          "name": "",
          "type": "bytes32"
        }
      ],
      "stateMutability": "view",
      "type": "function"
    },
    {
      "inputs": [],
      "name": "TRUSTY_ROLE",
      "outputs": [
        {
          "internalType": "bytes32",
          "name": "",
          "type": "bytes32"
        }
      ],
      "stateMutability": "view",
      "type": "function"
    },
    {
      "inputs": [
        {
          "internalType": "address",
          "name": "token",
          "type": "address"
        },
        {
          "internalType": "address",
          "name": "to",
          "type": "address"
        }
      ],
      "name": "approve",
      "outputs": [],
      "stateMutability": "nonpayable",
      "type": "function"
    },
    {
      "inputs": [],
      "name": "apyCalculator",
      "outputs": [
        {
          "internalType": "address",
          "name": "",
          "type": "address"
        }
      ],
      "stateMutability": "view",
      "type": "function"
    },
    {
      "inputs": [
        {
          "internalType": "uint256",
          "name": "",
          "type": "uint256"
        }
      ],
      "name": "bonds",
      "outputs": [
        {
          "internalType": "uint256",
          "name": "amount",
          "type": "uint256"
        },
        {
          "internalType": "uint256",
          "name": "apy",
          "type": "uint256"
        },
        {
          "internalType": "uint256",
          "name": "duration",
          "type": "uint256"
        },
        {
          "internalType": "uint256",
          "name": "startTime",
          "type": "uint256"
        },
        {
          "internalType": "uint256",
          "name": "lastClaimTimestamp",
          "type": "uint256"
        }
      ],
      "stateMutability": "view",
      "type": "function"
    },
    {
      "inputs": [
        {
          "internalType": "address",
          "name": "user",
          "type": "address"
        }
      ],
      "name": "bondsOfOwner",
      "outputs": [
        {
          "components": [
            {
              "internalType": "uint256",
              "name": "amount",
              "type": "uint256"
            },
            {
              "internalType": "uint256",
              "name": "apy",
              "type": "uint256"
            },
            {
              "internalType": "uint256",
              "name": "duration",
              "type": "uint256"
            },
            {
              "internalType": "uint256",
              "name": "startTime",
              "type": "uint256"
            },
            {
              "internalType": "uint256",
              "name": "lastClaimTimestamp",
              "type": "uint256"
            }
          ],
          "internalType": "struct IDeiBonds.Bond[]",
          "name": "",
          "type": "tuple[]"
        },
        {
          "internalType": "uint256[]",
          "name": "",
          "type": "uint256[]"
        }
      ],
      "stateMutability": "view",
      "type": "function"
    },
    {
      "inputs": [
        {
          "internalType": "uint256",
          "name": "amount",
          "type": "uint256"
        },
        {
          "internalType": "uint256",
          "name": "minApy",
          "type": "uint256"
        }
      ],
      "name": "buyBond",
      "outputs": [],
      "stateMutability": "nonpayable",
      "type": "function"
    },
    {
      "inputs": [],
      "name": "capacity",
      "outputs": [
        {
          "internalType": "uint256",
          "name": "",
          "type": "uint256"
        }
      ],
      "stateMutability": "view",
      "type": "function"
    },
    {
      "inputs": [
        {
          "internalType": "uint256",
          "name": "bondId",
          "type": "uint256"
        }
      ],
      "name": "claim",
      "outputs": [],
      "stateMutability": "nonpayable",
      "type": "function"
    },
    {
      "inputs": [],
      "name": "claimInterval",
      "outputs": [
        {
          "internalType": "uint256",
          "name": "",
          "type": "uint256"
        }
      ],
      "stateMutability": "view",
      "type": "function"
    },
    {
      "inputs": [
        {
          "internalType": "uint256",
          "name": "bondId",
          "type": "uint256"
        },
        {
          "internalType": "uint256",
          "name": "deusPrice",
          "type": "uint256"
        }
      ],
      "name": "claimableDeus",
      "outputs": [
        {
          "internalType": "uint256",
          "name": "deusAmount",
          "type": "uint256"
        }
      ],
      "stateMutability": "view",
      "type": "function"
    },
    {
      "inputs": [],
      "name": "deus",
      "outputs": [
        {
          "internalType": "address",
          "name": "",
          "type": "address"
        }
      ],
      "stateMutability": "view",
      "type": "function"
    },
    {
      "inputs": [],
      "name": "entryToken",
      "outputs": [
        {
          "internalType": "address",
          "name": "",
          "type": "address"
        }
      ],
      "stateMutability": "view",
      "type": "function"
    },
    {
      "inputs": [
        {
          "internalType": "uint256",
          "name": "bondId",
          "type": "uint256"
        }
      ],
      "name": "escape",
      "outputs": [],
      "stateMutability": "nonpayable",
      "type": "function"
    },
    {
      "inputs": [],
      "name": "escapeBondCalculator",
      "outputs": [
        {
          "internalType": "address",
          "name": "",
          "type": "address"
        }
      ],
      "stateMutability": "view",
      "type": "function"
    },
    {
      "inputs": [
        {
          "internalType": "uint256",
          "name": "bondId",
          "type": "uint256"
        }
      ],
      "name": "exit",
      "outputs": [],
      "stateMutability": "nonpayable",
      "type": "function"
    },
    {
      "inputs": [],
      "name": "exitToken",
      "outputs": [
        {
          "internalType": "address",
          "name": "",
          "type": "address"
        }
      ],
      "stateMutability": "view",
      "type": "function"
    },
    {
      "inputs": [],
      "name": "getApy",
      "outputs": [
        {
          "internalType": "uint256",
          "name": "apyValue",
          "type": "uint256"
        }
      ],
      "stateMutability": "view",
      "type": "function"
    },
    {
      "inputs": [
        {
          "internalType": "bytes32",
          "name": "role",
          "type": "bytes32"
        }
      ],
      "name": "getRoleAdmin",
      "outputs": [
        {
          "internalType": "bytes32",
          "name": "",
          "type": "bytes32"
        }
      ],
      "stateMutability": "view",
      "type": "function"
    },
    {
      "inputs": [
        {
          "internalType": "bytes32",
          "name": "role",
          "type": "bytes32"
        },
        {
          "internalType": "uint256",
          "name": "index",
          "type": "uint256"
        }
      ],
      "name": "getRoleMember",
      "outputs": [
        {
          "internalType": "address",
          "name": "",
          "type": "address"
        }
      ],
      "stateMutability": "view",
      "type": "function"
    },
    {
      "inputs": [
        {
          "internalType": "bytes32",
          "name": "role",
          "type": "bytes32"
        }
      ],
      "name": "getRoleMemberCount",
      "outputs": [
        {
          "internalType": "uint256",
          "name": "",
          "type": "uint256"
        }
      ],
      "stateMutability": "view",
      "type": "function"
    },
    {
      "inputs": [
        {
          "internalType": "bytes32",
          "name": "role",
          "type": "bytes32"
        },
        {
          "internalType": "address",
          "name": "account",
          "type": "address"
        }
      ],
      "name": "grantRole",
      "outputs": [],
      "stateMutability": "nonpayable",
      "type": "function"
    },
    {
      "inputs": [
        {
          "internalType": "bytes32",
          "name": "role",
          "type": "bytes32"
        },
        {
          "internalType": "address",
          "name": "account",
          "type": "address"
        }
      ],
      "name": "hasRole",
      "outputs": [
        {
          "internalType": "bool",
          "name": "",
          "type": "bool"
        }
      ],
      "stateMutability": "view",
      "type": "function"
    },
    {
      "inputs": [],
      "name": "nft",
      "outputs": [
        {
          "internalType": "address",
          "name": "",
          "type": "address"
        }
      ],
      "stateMutability": "view",
      "type": "function"
    },
    {
      "inputs": [],
      "name": "oracle",
      "outputs": [
        {
          "internalType": "address",
          "name": "",
          "type": "address"
        }
      ],
      "stateMutability": "view",
      "type": "function"
    },
    {
      "inputs": [],
      "name": "pause",
      "outputs": [],
      "stateMutability": "nonpayable",
      "type": "function"
    },
    {
      "inputs": [],
      "name": "paused",
      "outputs": [
        {
          "internalType": "bool",
          "name": "",
          "type": "bool"
        }
      ],
      "stateMutability": "view",
      "type": "function"
    },
    {
      "inputs": [
        {
          "internalType": "bytes32",
          "name": "role",
          "type": "bytes32"
        },
        {
          "internalType": "address",
          "name": "account",
          "type": "address"
        }
      ],
      "name": "renounceRole",
      "outputs": [],
      "stateMutability": "nonpayable",
      "type": "function"
    },
    {
      "inputs": [
        {
          "internalType": "bytes32",
          "name": "role",
          "type": "bytes32"
        },
        {
          "internalType": "address",
          "name": "account",
          "type": "address"
        }
      ],
      "name": "revokeRole",
      "outputs": [],
      "stateMutability": "nonpayable",
      "type": "function"
    },
    {
      "inputs": [
        {
          "internalType": "address",
          "name": "apyCalculator_",
          "type": "address"
        }
      ],
      "name": "setApyCalculator",
      "outputs": [],
      "stateMutability": "nonpayable",
      "type": "function"
    },
    {
      "inputs": [
        {
          "internalType": "uint256",
          "name": "cap",
          "type": "uint256"
        }
      ],
      "name": "setCap",
      "outputs": [],
      "stateMutability": "nonpayable",
      "type": "function"
    },
    {
      "inputs": [
        {
          "internalType": "uint256",
          "name": "claimInterval_",
          "type": "uint256"
        }
      ],
      "name": "setClaimInterval",
      "outputs": [],
      "stateMutability": "nonpayable",
      "type": "function"
    },
    {
      "inputs": [
        {
          "internalType": "address",
          "name": "escapeBondCalculator_",
          "type": "address"
        }
      ],
      "name": "setEscapeBondCalculator",
      "outputs": [],
      "stateMutability": "nonpayable",
      "type": "function"
    },
    {
      "inputs": [
        {
          "internalType": "address",
          "name": "nft_",
          "type": "address"
        }
      ],
      "name": "setNFT",
      "outputs": [],
      "stateMutability": "nonpayable",
      "type": "function"
    },
    {
      "inputs": [
        {
          "internalType": "address",
          "name": "oracle_",
          "type": "address"
        }
      ],
      "name": "setOracle",
      "outputs": [],
      "stateMutability": "nonpayable",
      "type": "function"
    },
    {
      "inputs": [
        {
          "internalType": "uint256",
          "name": "soldBond_",
          "type": "uint256"
        }
      ],
      "name": "setSoldBond",
      "outputs": [],
      "stateMutability": "nonpayable",
      "type": "function"
    },
    {
      "inputs": [],
      "name": "soldBond",
      "outputs": [
        {
          "internalType": "uint256",
          "name": "",
          "type": "uint256"
        }
      ],
      "stateMutability": "view",
      "type": "function"
    },
    {
      "inputs": [
        {
          "internalType": "bytes4",
          "name": "interfaceId",
          "type": "bytes4"
        }
      ],
      "name": "supportsInterface",
      "outputs": [
        {
          "internalType": "bool",
          "name": "",
          "type": "bool"
        }
      ],
      "stateMutability": "view",
      "type": "function"
    },
    {
      "inputs": [],
      "name": "unpause",
      "outputs": [],
      "stateMutability": "nonpayable",
      "type": "function"
    },
    {
      "inputs": [
        {
          "internalType": "address",
          "name": "token",
          "type": "address"
        },
        {
          "internalType": "uint256",
          "name": "amount",
          "type": "uint256"
        }
      ],
      "name": "withdrawERC20",
      "outputs": [],
      "stateMutability": "nonpayable",
      "type": "function"
    },
    {
      "inputs": [
        {
          "internalType": "uint256",
          "name": "amount",
          "type": "uint256"
        }
      ],
      "name": "withdrawETH",
      "outputs": [],
      "stateMutability": "nonpayable",
      "type": "function"
    }
  ],
  "bytecode": "0x608060405261a8c0600d553480156200001757600080fd5b506040516200435e3803806200435e8339810160408190526200003a9162000282565b6002805460ff19169055600480546001600160a01b03199081166001600160a01b038b8116919091179092556005805482168a8416179055600680548216898416179055600780548216888416179055600980548216878416179055600a8054821686841617905560088054909116918416919091179055600b819055620000c460008b62000100565b620000f07f0db189261133fd7647d3308512b693b47bed44004cac80fb59aa64b63a231e2c8a62000100565b5050505050505050505062000348565b6200010c828262000110565b5050565b6200012782826200015360201b620029cf1760201c565b60008281526001602090815260409091206200014e91839062002abf620001f3821b17901c565b505050565b6000828152602081815260408083206001600160a01b038516845290915290205460ff166200010c576000828152602081815260408083206001600160a01b03851684529091529020805460ff19166001179055620001af3390565b6001600160a01b0316816001600160a01b0316837f2f8788117e7eff1d82e926ec794901d17c78024a50270940304540a733656f0d60405160405180910390a45050565b60006200020a836001600160a01b03841662000213565b90505b92915050565b60008181526001830160205260408120546200025c575081546001818101845560008481526020808220909301849055845484825282860190935260409020919091556200020d565b5060006200020d565b80516001600160a01b03811681146200027d57600080fd5b919050565b6000806000806000806000806000806101408b8d031215620002a357600080fd5b620002ae8b62000265565b9950620002be60208c0162000265565b9850620002ce60408c0162000265565b9750620002de60608c0162000265565b9650620002ee60808c0162000265565b9550620002fe60a08c0162000265565b94506200030e60c08c0162000265565b93506200031e60e08c0162000265565b92506200032f6101008c0162000265565b91506101208b015190509295989b9194979a5092959850565b61400680620003586000396000f3fe608060405234801561001057600080fd5b50600436106102de5760003560e01c80635f1c17c01161018657806391d14854116100e3578063ca15c87311610097578063f14210a611610071578063f14210a6146106e5578063f2d57adf146106f8578063f56e9c661461070b57600080fd5b8063ca15c87314610698578063d547741f146106ab578063e63ab1e9146106be57600080fd5b8063a1db9782116100c8578063a1db97821461066a578063a217fddf1461067d578063c2ca269a1461068557600080fd5b806391d14854146106135780639ca5814d1461065757600080fd5b80637e5465ba1161013a5780638456cb591161011f5780638456cb59146105ef5780639010d07c146105f7578063911920c91461060a57600080fd5b80637e5465ba146105c95780637f8661a1146105dc57600080fd5b80637adbf9731161016b5780637adbf973146105765780637c63362b146105895780637dc0d1d0146105a957600080fd5b80635f1c17c0146104f05780636e50fc461461055657600080fd5b8063379607f51161023f57806347ccca02116101f3578063556cb000116101cd578063556cb000146104bc5780635c975abb146104dc5780635cfc1a51146104e757600080fd5b806347ccca02146104695780634a0a66a8146104895780634bc537a81461049c57600080fd5b80633f4ba83a116102245780633f4ba83a1461043b578063466985f31461044357806347786d371461045657600080fd5b8063379607f51461041557806338ea0d711461042857600080fd5b8063248a9ca3116102965780632f2ff15d1161027b5780632f2ff15d146103c657806334ddb95d146103db57806336568abe1461040257600080fd5b8063248a9ca3146103905780632aee25d3146103b357600080fd5b80630f705cbf116102c75780630f705cbf14610322578063119d4614146103435780631fb922e01461038857600080fd5b806301ffc9a7146102e35780630b433a121461030b575b600080fd5b6102f66102f1366004613837565b61071e565b60405190151581526020015b60405180910390f35b610314600d5481565b604051908152602001610302565b61033561033036600461389b565b61077a565b6040516103029291906138f3565b6009546103639073ffffffffffffffffffffffffffffffffffffffff1681565b60405173ffffffffffffffffffffffffffffffffffffffff9091168152602001610302565b610314610a33565b61031461039e366004613968565b60009081526020819052604090206001015490565b6103146103c1366004613981565b610acc565b6103d96103d43660046139a3565b610cb4565b005b6103147f0db189261133fd7647d3308512b693b47bed44004cac80fb59aa64b63a231e2c81565b6103d96104103660046139a3565b610cde565b6103d9610423366004613968565b610d96565b6103d9610436366004613968565b6111d3565b6103d961123f565b6103d9610451366004613968565b611274565b6103d9610464366004613968565b611708565b6007546103639073ffffffffffffffffffffffffffffffffffffffff1681565b6103d961049736600461389b565b611774565b6004546103639073ffffffffffffffffffffffffffffffffffffffff1681565b600a546103639073ffffffffffffffffffffffffffffffffffffffff1681565b60025460ff166102f6565b610314600b5481565b61052e6104fe366004613968565b60036020819052600091825260409091208054600182015460028301549383015460049093015491939092909185565b604080519586526020860194909452928401919091526060830152608082015260a001610302565b6006546103639073ffffffffffffffffffffffffffffffffffffffff1681565b6103d961058436600461389b565b61183a565b6005546103639073ffffffffffffffffffffffffffffffffffffffff1681565b6008546103639073ffffffffffffffffffffffffffffffffffffffff1681565b6103d96105d73660046139d3565b611900565b6103d96105ea366004613968565b61196b565b6103d9612245565b610363610605366004613981565b612277565b610314600c5481565b6102f66106213660046139a3565b60009182526020828152604080842073ffffffffffffffffffffffffffffffffffffffff93909316845291905290205460ff1690565b6103d961066536600461389b565b612296565b6103d9610678366004613a01565b61235c565b610314600081565b6103d9610693366004613981565b6123a7565b6103146106a6366004613968565b61280a565b6103d96106b93660046139a3565b612821565b6103147f65d7a28e3265b37a6474929f336521b332c1681b933f6cb9f3376673440d862a81565b6103d96106f3366004613968565b612846565b6103d9610706366004613968565b61289d565b6103d961071936600461389b565b612909565b60007fffffffff0000000000000000000000000000000000000000000000000000000082167f5a05180f000000000000000000000000000000000000000000000000000000001480610774575061077482612ae1565b92915050565b6007546040517f5a3f267200000000000000000000000000000000000000000000000000000000815273ffffffffffffffffffffffffffffffffffffffff8381166004830152606092839260009290911690635a3f267290602401600060405180830381865afa1580156107f2573d6000803e3d6000fd5b505050506040513d6000823e601f3d9081017fffffffffffffffffffffffffffffffffffffffffffffffffffffffffffffffe01682016040526108389190810190613a5c565b90506000815167ffffffffffffffff81111561085657610856613a2d565b6040519080825280602002602001820160405280156108b957816020015b6108a66040518060a0016040528060008152602001600081526020016000815260200160008152602001600081525090565b8152602001906001900390816108745790505b5090506000805b8351811015610a26576007548451309173ffffffffffffffffffffffffffffffffffffffff1690634c0610ab908790859081106108ff576108ff613b38565b60200260200101516040518263ffffffff1660e01b815260040161092591815260200190565b602060405180830381865afa158015610942573d6000803e3d6000fd5b505050506040513d601f19601f820116820180604052508101906109669190613b67565b73ffffffffffffffffffffffffffffffffffffffff1603610a14576003600085838151811061099757610997613b38565b602002602001015181526020019081526020016000206040518060a0016040529081600082015481526020016001820154815260200160028201548152602001600382015481526020016004820154815250508383806109f690613bb3565b945081518110610a0857610a08613b38565b60200260200101819052505b80610a1e81613bb3565b9150506108c0565b5090959194509092505050565b600954604080517f1fb922e0000000000000000000000000000000000000000000000000000000008152905160009273ffffffffffffffffffffffffffffffffffffffff1691631fb922e09160048083019260209291908290030181865afa158015610aa3573d6000803e3d6000fd5b505050506040513d601f19601f82011682018060405250810190610ac79190613beb565b905090565b6000828152600360208181526040808420815160a08101835281548152600182015493810193909352600281015491830182905292830154606083018190526004909301546080830152909183918291610b269190613c04565b905080421115610b3857809150610b3c565b4291505b6000600d5484606001518560800151610b559190613c1c565b610b5f9190613c33565b600d546060860151610b719086613c1c565b610b7b9190613c33565b610b859190613c1c565b90506000600d548560400151610b9b9190613c33565b90506000610bb182670de0b6b3a7640000613c6e565b60208701518751610bc3908690613c6e565b610bcd9190613c6e565b610bd79190613c33565b905087600660009054906101000a900473ffffffffffffffffffffffffffffffffffffffff1673ffffffffffffffffffffffffffffffffffffffff1663313ce5676040518163ffffffff1660e01b8152600401602060405180830381865afa158015610c47573d6000803e3d6000fd5b505050506040513d601f19601f82011682018060405250810190610c6b9190613cab565b610c76906012613cce565b610c8190600a613e11565b610c8b9083613c6e565b610c9d90670de0b6b3a7640000613c6e565b610ca79190613c33565b9998505050505050505050565b600082815260208190526040902060010154610ccf81612b78565b610cd98383612b82565b505050565b73ffffffffffffffffffffffffffffffffffffffff81163314610d88576040517f08c379a000000000000000000000000000000000000000000000000000000000815260206004820152602f60248201527f416363657373436f6e74726f6c3a2063616e206f6e6c792072656e6f756e636560448201527f20726f6c657320666f722073656c66000000000000000000000000000000000060648201526084015b60405180910390fd5b610d928282612ba4565b5050565b60025460ff1615610e03576040517f08c379a000000000000000000000000000000000000000000000000000000000815260206004820152601060248201527f5061757361626c653a20706175736564000000000000000000000000000000006044820152606401610d7f565b6007546040517f6352211e0000000000000000000000000000000000000000000000000000000081526004810183905260009173ffffffffffffffffffffffffffffffffffffffff1690636352211e90602401602060405180830381865afa158015610e73573d6000803e3d6000fd5b505050506040513d601f19601f82011682018060405250810190610e979190613b67565b905073ffffffffffffffffffffffffffffffffffffffff81163314610f3e576040517f08c379a000000000000000000000000000000000000000000000000000000000815260206004820152602160248201527f446569426f6e643a2053454e444552204953204e4f5420424f4e44204f574e4560448201527f52000000000000000000000000000000000000000000000000000000000000006064820152608401610d7f565b6007546040517f4c0610ab00000000000000000000000000000000000000000000000000000000815260048101849052309173ffffffffffffffffffffffffffffffffffffffff1690634c0610ab90602401602060405180830381865afa158015610fad573d6000803e3d6000fd5b505050506040513d601f19601f82011682018060405250810190610fd19190613b67565b73ffffffffffffffffffffffffffffffffffffffff161461104e576040517f08c379a000000000000000000000000000000000000000000000000000000000815260206004820152601d60248201527f446569426f6e643a204e4654204953204e4f5420535550504f525445440000006044820152606401610d7f565b600854604080517f98d5fdca000000000000000000000000000000000000000000000000000000008152905160009273ffffffffffffffffffffffffffffffffffffffff16916398d5fdca9160048083019260209291908290030181865afa1580156110be573d6000803e3d6000fd5b505050506040513d601f19601f820116820180604052508101906110e29190613beb565b905060006110f08483610acc565b90506000811161115c576040517f08c379a000000000000000000000000000000000000000000000000000000000815260206004820152601d60248201527f446569426f6e643a20434c41494d20414d4f554e54204953205a45524f0000006044820152606401610d7f565b600084815260036020526040902042600491820155546111939073ffffffffffffffffffffffffffffffffffffffff163383612bc6565b60408051858152602081018390527f022e3d29644ead4083349ca84d24bcac368b2461819b70f5921fea15de4dec4d91015b60405180910390a150505050565b7f0db189261133fd7647d3308512b693b47bed44004cac80fb59aa64b63a231e2c6111fd81612b78565b600c5460408051918252602082018490527fff4bb68dc43e13871b6387180350b878fa778a446b0015c8c681a83b047ac049910160405180910390a150600c55565b7f0db189261133fd7647d3308512b693b47bed44004cac80fb59aa64b63a231e2c61126981612b78565b611271612c9a565b50565b60025460ff16156112e1576040517f08c379a000000000000000000000000000000000000000000000000000000000815260206004820152601060248201527f5061757361626c653a20706175736564000000000000000000000000000000006044820152606401610d7f565b6007546040517f6352211e0000000000000000000000000000000000000000000000000000000081526004810183905260009173ffffffffffffffffffffffffffffffffffffffff1690636352211e90602401602060405180830381865afa158015611351573d6000803e3d6000fd5b505050506040513d601f19601f820116820180604052508101906113759190613b67565b905073ffffffffffffffffffffffffffffffffffffffff8116331461141c576040517f08c379a000000000000000000000000000000000000000000000000000000000815260206004820152602160248201527f446569426f6e643a2053454e444552204953204e4f5420424f4e44204f574e4560448201527f52000000000000000000000000000000000000000000000000000000000000006064820152608401610d7f565b6007546040517f4c0610ab00000000000000000000000000000000000000000000000000000000815260048101849052309173ffffffffffffffffffffffffffffffffffffffff1690634c0610ab90602401602060405180830381865afa15801561148b573d6000803e3d6000fd5b505050506040513d601f19601f820116820180604052508101906114af9190613b67565b73ffffffffffffffffffffffffffffffffffffffff161461152c576040517f08c379a000000000000000000000000000000000000000000000000000000000815260206004820152601a60248201527f446569426f6e643a204e4654204e4f5420535550504f525445440000000000006044820152606401610d7f565b600082815260036020818152604092839020835160a0810185528154815260018201549281019290925260028101549382018490529182015460608201819052600490920154608082015291429161158391613c04565b116115ea576040517f08c379a000000000000000000000000000000000000000000000000000000000815260206004820152601860248201527f446569426f6e643a20424f4e44204953204558504952454400000000000000006044820152606401610d7f565b8051600c80546000906115fe908490613c1c565b9091555050600083815260036020526040808220829055600a5460075491517fe73c71ca0000000000000000000000000000000000000000000000000000000081526004810187905273ffffffffffffffffffffffffffffffffffffffff928316602482015291169063e73c71ca90604401602060405180830381865afa15801561168d573d6000803e3d6000fd5b505050506040513d601f19601f820116820180604052508101906116b19190613beb565b6006549091506116d89073ffffffffffffffffffffffffffffffffffffffff163383612bc6565b6040518481527fdc25a587892a5689753940ce4e58586b04acf57394700ce22bf0a329ed03b452906020016111c5565b7f0db189261133fd7647d3308512b693b47bed44004cac80fb59aa64b63a231e2c61173281612b78565b600b5460408051918252602082018490527fdbbbb176683582b710ef3349793b8d62658724a9d9b54deccf193c4b0aa90c4c910160405180910390a150600b55565b7f0db189261133fd7647d3308512b693b47bed44004cac80fb59aa64b63a231e2c61179e81612b78565b600a546040805173ffffffffffffffffffffffffffffffffffffffff928316815291841660208301527f166cb725cf49d10940cd1e3a305792656619b950a7c105fbaf890f8d2d7ae119910160405180910390a150600a80547fffffffffffffffffffffffff00000000000000000000000000000000000000001673ffffffffffffffffffffffffffffffffffffffff92909216919091179055565b7f0db189261133fd7647d3308512b693b47bed44004cac80fb59aa64b63a231e2c61186481612b78565b6008546040805173ffffffffffffffffffffffffffffffffffffffff928316815291841660208301527fb7261e9c33aa7c56209c3bf60b424a8f9551ce28876c0ab3d0c487695e943487910160405180910390a150600880547fffffffffffffffffffffffff00000000000000000000000000000000000000001673ffffffffffffffffffffffffffffffffffffffff92909216919091179055565b7f0db189261133fd7647d3308512b693b47bed44004cac80fb59aa64b63a231e2c61192a81612b78565b610cd973ffffffffffffffffffffffffffffffffffffffff8416837fffffffffffffffffffffffffffffffffffffffffffffffffffffffffffffffff612d7b565b60025460ff16156119d8576040517f08c379a000000000000000000000000000000000000000000000000000000000815260206004820152601060248201527f5061757361626c653a20706175736564000000000000000000000000000000006044820152606401610d7f565b6007546040517f6352211e0000000000000000000000000000000000000000000000000000000081526004810183905260009173ffffffffffffffffffffffffffffffffffffffff1690636352211e90602401602060405180830381865afa158015611a48573d6000803e3d6000fd5b505050506040513d601f19601f82011682018060405250810190611a6c9190613b67565b905073ffffffffffffffffffffffffffffffffffffffff81163314611b13576040517f08c379a000000000000000000000000000000000000000000000000000000000815260206004820152602160248201527f446569426f6e643a2053454e444552204953204e4f5420424f4e44204f574e4560448201527f52000000000000000000000000000000000000000000000000000000000000006064820152608401610d7f565b6007546040517f4c0610ab00000000000000000000000000000000000000000000000000000000815260048101849052309173ffffffffffffffffffffffffffffffffffffffff1690634c0610ab90602401602060405180830381865afa158015611b82573d6000803e3d6000fd5b505050506040513d601f19601f82011682018060405250810190611ba69190613b67565b73ffffffffffffffffffffffffffffffffffffffff1614611c23576040517f08c379a000000000000000000000000000000000000000000000000000000000815260206004820152601a60248201527f446569426f6e643a204e4654204e4f5420535550504f525445440000000000006044820152606401610d7f565b600082815260036020818152604092839020835160a08101855281548152600182015492810192909252600281015493820184905291820154606082018190526004909201546080820152914291611c7a91613c04565b10611ce1576040517f08c379a000000000000000000000000000000000000000000000000000000000815260206004820152601c60248201527f446569426f6e643a20424f4e44204953204e4f542045585049524544000000006044820152606401610d7f565b600854604080517f98d5fdca000000000000000000000000000000000000000000000000000000008152905160009273ffffffffffffffffffffffffffffffffffffffff16916398d5fdca9160048083019260209291908290030181865afa158015611d51573d6000803e3d6000fd5b505050506040513d601f19601f82011682018060405250810190611d759190613beb565b90506000611d838583610acc565b90508015611ded576040517f08c379a000000000000000000000000000000000000000000000000000000000815260206004820152601a60248201527f446569426f6e643a20444944204e4f5420434c41494d205945540000000000006044820152606401610d7f565b8251600c8054829190600090611e04908490613c1c565b9091555050600086815260036020908152604080832083905560055481517f313ce567000000000000000000000000000000000000000000000000000000008152915173ffffffffffffffffffffffffffffffffffffffff9091169263313ce56792600480820193918290030181865afa158015611e86573d6000803e3d6000fd5b505050506040513d601f19601f82011682018060405250810190611eaa9190613cab565b60ff16600660009054906101000a900473ffffffffffffffffffffffffffffffffffffffff1673ffffffffffffffffffffffffffffffffffffffff1663313ce5676040518163ffffffff1660e01b8152600401602060405180830381865afa158015611f1a573d6000803e3d6000fd5b505050506040513d601f19601f82011682018060405250810190611f3e9190613cab565b60ff16101561209857600654604080517f313ce567000000000000000000000000000000000000000000000000000000008152905160009273ffffffffffffffffffffffffffffffffffffffff169163313ce5679160048083019260209291908290030181865afa158015611fb7573d6000803e3d6000fd5b505050506040513d601f19601f82011682018060405250810190611fdb9190613cab565b600560009054906101000a900473ffffffffffffffffffffffffffffffffffffffff1673ffffffffffffffffffffffffffffffffffffffff1663313ce5676040518163ffffffff1660e01b8152600401602060405180830381865afa158015612048573d6000803e3d6000fd5b505050506040513d601f19601f8201168201806040525081019061206c9190613cab565b6120769190613cce565b60ff16905061208681600a613e20565b6120909084613c6e565b9150506121e5565b600554604080517f313ce567000000000000000000000000000000000000000000000000000000008152905160009273ffffffffffffffffffffffffffffffffffffffff169163313ce5679160048083019260209291908290030181865afa158015612108573d6000803e3d6000fd5b505050506040513d601f19601f8201168201806040525081019061212c9190613cab565b600660009054906101000a900473ffffffffffffffffffffffffffffffffffffffff1673ffffffffffffffffffffffffffffffffffffffff1663313ce5676040518163ffffffff1660e01b8152600401602060405180830381865afa158015612199573d6000803e3d6000fd5b505050506040513d601f19601f820116820180604052508101906121bd9190613cab565b6121c79190613cce565b60ff1690506121d781600a613e20565b6121e19084613c33565b9150505b6005546122099073ffffffffffffffffffffffffffffffffffffffff163383612bc6565b6040518781527f30d88f1f2b40e638b3e2c425a87a723364cf5fb9f6aab60ef2bb41ec99340c0f9060200160405180910390a150505050505050565b7f65d7a28e3265b37a6474929f336521b332c1681b933f6cb9f3376673440d862a61226f81612b78565b611271612efd565b600082815260016020526040812061228f9083612fbd565b9392505050565b7f0db189261133fd7647d3308512b693b47bed44004cac80fb59aa64b63a231e2c6122c081612b78565b6009546040805173ffffffffffffffffffffffffffffffffffffffff928316815291841660208301527f39952e6ac34862b47935b341829699a128ff4eb186c7f46592d1b04f5b240815910160405180910390a150600980547fffffffffffffffffffffffff00000000000000000000000000000000000000001673ffffffffffffffffffffffffffffffffffffffff92909216919091179055565b7f0db189261133fd7647d3308512b693b47bed44004cac80fb59aa64b63a231e2c61238681612b78565b610cd973ffffffffffffffffffffffffffffffffffffffff84163384612bc6565b60025460ff1615612414576040517f08c379a000000000000000000000000000000000000000000000000000000000815260206004820152601060248201527f5061757361626c653a20706175736564000000000000000000000000000000006044820152606401610d7f565b600b54600c546124249084613c04565b111561248c576040517f08c379a000000000000000000000000000000000000000000000000000000000815260206004820152601860248201527f446569426f6e643a205448455245204953204e4f2043415000000000000000006044820152606401610d7f565b600960009054906101000a900473ffffffffffffffffffffffffffffffffffffffff1673ffffffffffffffffffffffffffffffffffffffff16631fb922e06040518163ffffffff1660e01b8152600401602060405180830381865afa1580156124f9573d6000803e3d6000fd5b505050506040513d601f19601f8201168201806040525081019061251d9190613beb565b811115612586576040517f08c379a000000000000000000000000000000000000000000000000000000000815260206004820152601960248201527f446569426f6e643a20494e53554646494349454e5420415059000000000000006044820152606401610d7f565b6006546040517f23b872dd0000000000000000000000000000000000000000000000000000000081523360048201523060248201526044810184905273ffffffffffffffffffffffffffffffffffffffff909116906323b872dd906064016020604051808303816000875af1158015612603573d6000803e3d6000fd5b505050506040513d601f19601f820116820180604052508101906126279190613e2c565b506007546040517fee1fe2ad00000000000000000000000000000000000000000000000000000000815233600482015230602482015260009173ffffffffffffffffffffffffffffffffffffffff169063ee1fe2ad906044016020604051808303816000875af115801561269f573d6000803e3d6000fd5b505050506040513d601f19601f820116820180604052508101906126c39190613beb565b905060006040518060a00160405280858152602001600960009054906101000a900473ffffffffffffffffffffffffffffffffffffffff1673ffffffffffffffffffffffffffffffffffffffff16631fb922e06040518163ffffffff1660e01b8152600401602060405180830381865afa158015612745573d6000803e3d6000fd5b505050506040513d601f19601f820116820180604052508101906127699190613beb565b81526020016301e13380815260200142815260200142815250905083600c60008282546127969190613c04565b9091555050600082815260036020818152604092839020845181559084015160018201558284015160028201556060840151918101919091556080830151600490910155517fb1aa4b8adbab5695762dfd9d53c48cf9ade864709f7b6fd3cd544f6ffbe75a83906111c59084815260200190565b600081815260016020526040812061077490612fc9565b60008281526020819052604090206001015461283c81612b78565b610cd98383612ba4565b7f0db189261133fd7647d3308512b693b47bed44004cac80fb59aa64b63a231e2c61287081612b78565b604051339083156108fc029084906000818181858888f19350505050158015610cd9573d6000803e3d6000fd5b7f0db189261133fd7647d3308512b693b47bed44004cac80fb59aa64b63a231e2c6128c781612b78565b600d5460408051918252602082018490527f0d8e7a61135a0b471ca4c20f606c82e40bfdfa34727d5bb209bda99fdaf9d6c1910160405180910390a150600d55565b7f0db189261133fd7647d3308512b693b47bed44004cac80fb59aa64b63a231e2c61293381612b78565b6007546040805173ffffffffffffffffffffffffffffffffffffffff928316815291841660208301527f18903e593d168b3b8e4aacad99d15d9bce69a044067a51b09a757f96134791aa910160405180910390a150600780547fffffffffffffffffffffffff00000000000000000000000000000000000000001673ffffffffffffffffffffffffffffffffffffffff92909216919091179055565b60008281526020818152604080832073ffffffffffffffffffffffffffffffffffffffff8516845290915290205460ff16610d925760008281526020818152604080832073ffffffffffffffffffffffffffffffffffffffff85168452909152902080547fffffffffffffffffffffffffffffffffffffffffffffffffffffffffffffff00166001179055612a613390565b73ffffffffffffffffffffffffffffffffffffffff168173ffffffffffffffffffffffffffffffffffffffff16837f2f8788117e7eff1d82e926ec794901d17c78024a50270940304540a733656f0d60405160405180910390a45050565b600061228f8373ffffffffffffffffffffffffffffffffffffffff8416612fd3565b60007fffffffff0000000000000000000000000000000000000000000000000000000082167f7965db0b00000000000000000000000000000000000000000000000000000000148061077457507f01ffc9a7000000000000000000000000000000000000000000000000000000007fffffffff00000000000000000000000000000000000000000000000000000000831614610774565b6112718133613022565b612b8c82826129cf565b6000828152600160205260409020610cd99082612abf565b612bae82826130f2565b6000828152600160205260409020610cd990826131a9565b60405173ffffffffffffffffffffffffffffffffffffffff8316602482015260448101829052610cd99084907fa9059cbb00000000000000000000000000000000000000000000000000000000906064015b604080517fffffffffffffffffffffffffffffffffffffffffffffffffffffffffffffffe08184030181529190526020810180517bffffffffffffffffffffffffffffffffffffffffffffffffffffffff167fffffffff00000000000000000000000000000000000000000000000000000000909316929092179091526131cb565b60025460ff16612d06576040517f08c379a000000000000000000000000000000000000000000000000000000000815260206004820152601460248201527f5061757361626c653a206e6f74207061757365640000000000000000000000006044820152606401610d7f565b600280547fffffffffffffffffffffffffffffffffffffffffffffffffffffffffffffff001690557f5db9ee0a495bf2e6ff9c91a7834c1ba4fdd244a5e8aa4e537bd38aeae4b073aa335b60405173ffffffffffffffffffffffffffffffffffffffff909116815260200160405180910390a1565b801580612e1b57506040517fdd62ed3e00000000000000000000000000000000000000000000000000000000815230600482015273ffffffffffffffffffffffffffffffffffffffff838116602483015284169063dd62ed3e90604401602060405180830381865afa158015612df5573d6000803e3d6000fd5b505050506040513d601f19601f82011682018060405250810190612e199190613beb565b155b612ea7576040517f08c379a000000000000000000000000000000000000000000000000000000000815260206004820152603660248201527f5361666545524332303a20617070726f76652066726f6d206e6f6e2d7a65726f60448201527f20746f206e6f6e2d7a65726f20616c6c6f77616e6365000000000000000000006064820152608401610d7f565b60405173ffffffffffffffffffffffffffffffffffffffff8316602482015260448101829052610cd99084907f095ea7b30000000000000000000000000000000000000000000000000000000090606401612c18565b60025460ff1615612f6a576040517f08c379a000000000000000000000000000000000000000000000000000000000815260206004820152601060248201527f5061757361626c653a20706175736564000000000000000000000000000000006044820152606401610d7f565b600280547fffffffffffffffffffffffffffffffffffffffffffffffffffffffffffffff001660011790557f62e78cea01bee320cd4e420270b5ea74000d11b0c9f74754ebdbfc544b05a258612d513390565b600061228f83836132d7565b6000610774825490565b600081815260018301602052604081205461301a57508154600181810184556000848152602080822090930184905584548482528286019093526040902091909155610774565b506000610774565b60008281526020818152604080832073ffffffffffffffffffffffffffffffffffffffff8516845290915290205460ff16610d92576130788173ffffffffffffffffffffffffffffffffffffffff166014613301565b613083836020613301565b604051602001613094929190613e7e565b604080517fffffffffffffffffffffffffffffffffffffffffffffffffffffffffffffffe0818403018152908290527f08c379a0000000000000000000000000000000000000000000000000000000008252610d7f91600401613eff565b60008281526020818152604080832073ffffffffffffffffffffffffffffffffffffffff8516845290915290205460ff1615610d925760008281526020818152604080832073ffffffffffffffffffffffffffffffffffffffff8516808552925280832080547fffffffffffffffffffffffffffffffffffffffffffffffffffffffffffffff0016905551339285917ff6391f5c32d9c69d2a47ea670b442974b53935d1edc7fd64eb21e047a839171b9190a45050565b600061228f8373ffffffffffffffffffffffffffffffffffffffff8416613544565b600061322d826040518060400160405280602081526020017f5361666545524332303a206c6f772d6c6576656c2063616c6c206661696c65648152508573ffffffffffffffffffffffffffffffffffffffff166136379092919063ffffffff16565b805190915015610cd9578080602001905181019061324b9190613e2c565b610cd9576040517f08c379a000000000000000000000000000000000000000000000000000000000815260206004820152602a60248201527f5361666545524332303a204552433230206f7065726174696f6e20646964206e60448201527f6f742073756363656564000000000000000000000000000000000000000000006064820152608401610d7f565b60008260000182815481106132ee576132ee613b38565b9060005260206000200154905092915050565b60606000613310836002613c6e565b61331b906002613c04565b67ffffffffffffffff81111561333357613333613a2d565b6040519080825280601f01601f19166020018201604052801561335d576020820181803683370190505b5090507f30000000000000000000000000000000000000000000000000000000000000008160008151811061339457613394613b38565b60200101907effffffffffffffffffffffffffffffffffffffffffffffffffffffffffffff1916908160001a9053507f7800000000000000000000000000000000000000000000000000000000000000816001815181106133f7576133f7613b38565b60200101907effffffffffffffffffffffffffffffffffffffffffffffffffffffffffffff1916908160001a9053506000613433846002613c6e565b61343e906001613c04565b90505b60018111156134db577f303132333435363738396162636465660000000000000000000000000000000085600f166010811061347f5761347f613b38565b1a60f81b82828151811061349557613495613b38565b60200101907effffffffffffffffffffffffffffffffffffffffffffffffffffffffffffff1916908160001a90535060049490941c936134d481613f50565b9050613441565b50831561228f576040517f08c379a000000000000000000000000000000000000000000000000000000000815260206004820181905260248201527f537472696e67733a20686578206c656e67746820696e73756666696369656e746044820152606401610d7f565b6000818152600183016020526040812054801561362d576000613568600183613c1c565b855490915060009061357c90600190613c1c565b90508181146135e157600086600001828154811061359c5761359c613b38565b90600052602060002001549050808760000184815481106135bf576135bf613b38565b6000918252602080832090910192909255918252600188019052604090208390555b85548690806135f2576135f2613f85565b600190038181906000526020600020016000905590558560010160008681526020019081526020016000206000905560019350505050610774565b6000915050610774565b6060613646848460008561364e565b949350505050565b6060824710156136e0576040517f08c379a000000000000000000000000000000000000000000000000000000000815260206004820152602660248201527f416464726573733a20696e73756666696369656e742062616c616e636520666f60448201527f722063616c6c00000000000000000000000000000000000000000000000000006064820152608401610d7f565b73ffffffffffffffffffffffffffffffffffffffff85163b61375e576040517f08c379a000000000000000000000000000000000000000000000000000000000815260206004820152601d60248201527f416464726573733a2063616c6c20746f206e6f6e2d636f6e74726163740000006044820152606401610d7f565b6000808673ffffffffffffffffffffffffffffffffffffffff1685876040516137879190613fb4565b60006040518083038185875af1925050503d80600081146137c4576040519150601f19603f3d011682016040523d82523d6000602084013e6137c9565b606091505b50915091506137d98282866137e4565b979650505050505050565b606083156137f357508161228f565b8251156138035782518084602001fd5b816040517f08c379a0000000000000000000000000000000000000000000000000000000008152600401610d7f9190613eff565b60006020828403121561384957600080fd5b81357fffffffff000000000000000000000000000000000000000000000000000000008116811461228f57600080fd5b73ffffffffffffffffffffffffffffffffffffffff8116811461127157600080fd5b6000602082840312156138ad57600080fd5b813561228f81613879565b600081518084526020808501945080840160005b838110156138e8578151875295820195908201906001016138cc565b509495945050505050565b6040808252835182820181905260009190606090818501906020808901865b83811015613954578151805186528381015184870152878101518887015286810151878701526080908101519086015260a09094019390820190600101613912565b505086830390870152506137d981876138b8565b60006020828403121561397a57600080fd5b5035919050565b6000806040838503121561399457600080fd5b50508035926020909101359150565b600080604083850312156139b657600080fd5b8235915060208301356139c881613879565b809150509250929050565b600080604083850312156139e657600080fd5b82356139f181613879565b915060208301356139c881613879565b60008060408385031215613a1457600080fd5b8235613a1f81613879565b946020939093013593505050565b7f4e487b7100000000000000000000000000000000000000000000000000000000600052604160045260246000fd5b60006020808385031215613a6f57600080fd5b825167ffffffffffffffff80821115613a8757600080fd5b818501915085601f830112613a9b57600080fd5b815181811115613aad57613aad613a2d565b8060051b6040517fffffffffffffffffffffffffffffffffffffffffffffffffffffffffffffffe0603f83011681018181108582111715613af057613af0613a2d565b604052918252848201925083810185019188831115613b0e57600080fd5b938501935b82851015613b2c57845184529385019392850192613b13565b98975050505050505050565b7f4e487b7100000000000000000000000000000000000000000000000000000000600052603260045260246000fd5b600060208284031215613b7957600080fd5b815161228f81613879565b7f4e487b7100000000000000000000000000000000000000000000000000000000600052601160045260246000fd5b60007fffffffffffffffffffffffffffffffffffffffffffffffffffffffffffffffff8203613be457613be4613b84565b5060010190565b600060208284031215613bfd57600080fd5b5051919050565b60008219821115613c1757613c17613b84565b500190565b600082821015613c2e57613c2e613b84565b500390565b600082613c69577f4e487b7100000000000000000000000000000000000000000000000000000000600052601260045260246000fd5b500490565b6000817fffffffffffffffffffffffffffffffffffffffffffffffffffffffffffffffff0483118215151615613ca657613ca6613b84565b500290565b600060208284031215613cbd57600080fd5b815160ff8116811461228f57600080fd5b600060ff821660ff841680821015613ce857613ce8613b84565b90039392505050565b600181815b80851115613d4a57817fffffffffffffffffffffffffffffffffffffffffffffffffffffffffffffffff04821115613d3057613d30613b84565b80851615613d3d57918102915b93841c9390800290613cf6565b509250929050565b600082613d6157506001610774565b81613d6e57506000610774565b8160018114613d845760028114613d8e57613daa565b6001915050610774565b60ff841115613d9f57613d9f613b84565b50506001821b610774565b5060208310610133831016604e8410600b8410161715613dcd575081810a610774565b613dd78383613cf1565b807fffffffffffffffffffffffffffffffffffffffffffffffffffffffffffffffff04821115613e0957613e09613b84565b029392505050565b600061228f60ff841683613d52565b600061228f8383613d52565b600060208284031215613e3e57600080fd5b8151801515811461228f57600080fd5b60005b83811015613e69578181015183820152602001613e51565b83811115613e78576000848401525b50505050565b7f416363657373436f6e74726f6c3a206163636f756e7420000000000000000000815260008351613eb6816017850160208801613e4e565b7f206973206d697373696e6720726f6c65200000000000000000000000000000006017918401918201528351613ef3816028840160208801613e4e565b01602801949350505050565b6020815260008251806020840152613f1e816040850160208701613e4e565b601f017fffffffffffffffffffffffffffffffffffffffffffffffffffffffffffffffe0169190910160400192915050565b600081613f5f57613f5f613b84565b507fffffffffffffffffffffffffffffffffffffffffffffffffffffffffffffffff0190565b7f4e487b7100000000000000000000000000000000000000000000000000000000600052603160045260246000fd5b60008251613fc6818460208701613e4e565b919091019291505056fea264697066735822122010e3121cbc753d1de7efa3ce63ecc3a1acea2551b7f5b0146af7ba1e1f5b2e8864736f6c634300080d0033",
  "linkReferences": {},
  "deployedLinkReferences": {}
}