{
  "_format": "hh-sol-artifact-1",
  "contractName": "DeiBonds",
  "sourceName": "contracts/DeiBonds.sol",
  "abi": [
    {
      "inputs": [
        {
          "internalType": "address",
          "name": "admin",
          "type": "address"
        },
        {
          "internalType": "address",
          "name": "trusty",
          "type": "address"
        },
        {
          "internalType": "address",
          "name": "deus_",
          "type": "address"
        },
        {
          "internalType": "address",
          "name": "exitToken_",
          "type": "address"
        },
        {
          "internalType": "address",
          "name": "entryToken_",
          "type": "address"
        },
        {
          "internalType": "address",
          "name": "nft_",
          "type": "address"
        },
        {
          "internalType": "address",
          "name": "apyCalculator_",
          "type": "address"
        },
        {
          "internalType": "address",
          "name": "preMaturityExitCalculator_",
          "type": "address"
        },
        {
          "internalType": "address",
          "name": "oracle_",
          "type": "address"
        },
        {
          "internalType": "uint256",
          "name": "capacity_",
          "type": "uint256"
        }
      ],
      "stateMutability": "nonpayable",
      "type": "constructor"
    },
    {
      "anonymous": false,
      "inputs": [
        {
          "indexed": false,
          "internalType": "address",
          "name": "user",
          "type": "address"
        },
        {
          "indexed": false,
          "internalType": "uint256",
          "name": "bondAmount",
          "type": "uint256"
        },
        {
          "indexed": false,
          "internalType": "uint256",
          "name": "bondId",
          "type": "uint256"
        }
      ],
      "name": "BuyBond",
      "type": "event"
    },
    {
      "anonymous": false,
      "inputs": [
        {
          "indexed": false,
          "internalType": "address",
          "name": "user",
          "type": "address"
        },
        {
          "indexed": false,
          "internalType": "uint256",
          "name": "bondId",
          "type": "uint256"
        },
        {
          "indexed": false,
          "internalType": "uint256",
          "name": "claimAmount",
          "type": "uint256"
        }
      ],
      "name": "Claim",
      "type": "event"
    },
    {
      "anonymous": false,
      "inputs": [
        {
          "indexed": false,
          "internalType": "address",
          "name": "user",
          "type": "address"
        },
        {
          "indexed": false,
          "internalType": "uint256",
          "name": "bondAmount",
          "type": "uint256"
        },
        {
          "indexed": false,
          "internalType": "uint256",
          "name": "bondId",
          "type": "uint256"
        }
      ],
      "name": "MaturityExitBond",
      "type": "event"
    },
    {
      "anonymous": false,
      "inputs": [
        {
          "indexed": false,
          "internalType": "address",
          "name": "account",
          "type": "address"
        }
      ],
      "name": "Paused",
      "type": "event"
    },
    {
      "anonymous": false,
      "inputs": [
        {
          "indexed": false,
          "internalType": "address",
          "name": "user",
          "type": "address"
        },
        {
          "indexed": false,
          "internalType": "uint256",
          "name": "bondAmount",
          "type": "uint256"
        },
        {
          "indexed": false,
          "internalType": "uint256",
          "name": "withdrawAmount",
          "type": "uint256"
        },
        {
          "indexed": false,
          "internalType": "uint256",
          "name": "bondId",
          "type": "uint256"
        }
      ],
      "name": "PrematureWithdraw",
      "type": "event"
    },
    {
      "anonymous": false,
      "inputs": [
        {
          "indexed": true,
          "internalType": "bytes32",
          "name": "role",
          "type": "bytes32"
        },
        {
          "indexed": true,
          "internalType": "bytes32",
          "name": "previousAdminRole",
          "type": "bytes32"
        },
        {
          "indexed": true,
          "internalType": "bytes32",
          "name": "newAdminRole",
          "type": "bytes32"
        }
      ],
      "name": "RoleAdminChanged",
      "type": "event"
    },
    {
      "anonymous": false,
      "inputs": [
        {
          "indexed": true,
          "internalType": "bytes32",
          "name": "role",
          "type": "bytes32"
        },
        {
          "indexed": true,
          "internalType": "address",
          "name": "account",
          "type": "address"
        },
        {
          "indexed": true,
          "internalType": "address",
          "name": "sender",
          "type": "address"
        }
      ],
      "name": "RoleGranted",
      "type": "event"
    },
    {
      "anonymous": false,
      "inputs": [
        {
          "indexed": true,
          "internalType": "bytes32",
          "name": "role",
          "type": "bytes32"
        },
        {
          "indexed": true,
          "internalType": "address",
          "name": "account",
          "type": "address"
        },
        {
          "indexed": true,
          "internalType": "address",
          "name": "sender",
          "type": "address"
        }
      ],
      "name": "RoleRevoked",
      "type": "event"
    },
    {
      "anonymous": false,
      "inputs": [
        {
          "indexed": false,
          "internalType": "address",
          "name": "oldValue",
          "type": "address"
        },
        {
          "indexed": false,
          "internalType": "address",
          "name": "newValue",
          "type": "address"
        }
      ],
      "name": "SetApyCalculator",
      "type": "event"
    },
    {
      "anonymous": false,
      "inputs": [
        {
          "indexed": false,
          "internalType": "uint256",
          "name": "oldValue",
          "type": "uint256"
        },
        {
          "indexed": false,
          "internalType": "uint256",
          "name": "newValue",
          "type": "uint256"
        }
      ],
      "name": "SetCap",
      "type": "event"
    },
    {
      "anonymous": false,
      "inputs": [
        {
          "indexed": false,
          "internalType": "uint256",
          "name": "oldValue",
          "type": "uint256"
        },
        {
          "indexed": false,
          "internalType": "uint256",
          "name": "newValue",
          "type": "uint256"
        }
      ],
      "name": "SetClaimInterval",
      "type": "event"
    },
    {
      "anonymous": false,
      "inputs": [
        {
          "indexed": false,
          "internalType": "address",
          "name": "oldValue",
          "type": "address"
        },
        {
          "indexed": false,
          "internalType": "address",
          "name": "newValue",
          "type": "address"
        }
      ],
      "name": "SetNft",
      "type": "event"
    },
    {
      "anonymous": false,
      "inputs": [
        {
          "indexed": false,
          "internalType": "address",
          "name": "oldValue",
          "type": "address"
        },
        {
          "indexed": false,
          "internalType": "address",
          "name": "newValue",
          "type": "address"
        }
      ],
      "name": "SetOracle",
      "type": "event"
    },
    {
      "anonymous": false,
      "inputs": [
        {
          "indexed": false,
          "internalType": "address",
          "name": "oldValue",
          "type": "address"
        },
        {
          "indexed": false,
          "internalType": "address",
          "name": "newValue",
          "type": "address"
        }
      ],
      "name": "SetPreMaturityExitCalculator",
      "type": "event"
    },
    {
      "anonymous": false,
      "inputs": [
        {
          "indexed": false,
          "internalType": "uint256",
          "name": "oldValue",
          "type": "uint256"
        },
        {
          "indexed": false,
          "internalType": "uint256",
          "name": "newValue",
          "type": "uint256"
        }
      ],
      "name": "SetSoldAmount",
      "type": "event"
    },
    {
      "anonymous": false,
      "inputs": [
        {
          "indexed": false,
          "internalType": "address",
          "name": "account",
          "type": "address"
        }
      ],
      "name": "Unpaused",
      "type": "event"
    },
    {
      "inputs": [],
      "name": "DEFAULT_ADMIN_ROLE",
      "outputs": [
        {
          "internalType": "bytes32",
          "name": "",
          "type": "bytes32"
        }
      ],
      "stateMutability": "view",
      "type": "function"
    },
    {
      "inputs": [],
      "name": "PAUSER_ROLE",
      "outputs": [
        {
          "internalType": "bytes32",
          "name": "",
          "type": "bytes32"
        }
      ],
      "stateMutability": "view",
      "type": "function"
    },
    {
      "inputs": [],
      "name": "TRUSTY_ROLE",
      "outputs": [
        {
          "internalType": "bytes32",
          "name": "",
          "type": "bytes32"
        }
      ],
      "stateMutability": "view",
      "type": "function"
    },
    {
      "inputs": [
        {
          "internalType": "address",
          "name": "token",
          "type": "address"
        },
        {
          "internalType": "address",
          "name": "to",
          "type": "address"
        }
      ],
      "name": "approve",
      "outputs": [],
      "stateMutability": "nonpayable",
      "type": "function"
    },
    {
      "inputs": [],
      "name": "apyCalculator",
      "outputs": [
        {
          "internalType": "address",
          "name": "",
          "type": "address"
        }
      ],
      "stateMutability": "view",
      "type": "function"
    },
    {
      "inputs": [
        {
          "internalType": "uint256",
          "name": "",
          "type": "uint256"
        }
      ],
      "name": "bonds",
      "outputs": [
        {
          "internalType": "uint256",
          "name": "amount",
          "type": "uint256"
        },
        {
          "internalType": "uint256",
          "name": "apy",
          "type": "uint256"
        },
        {
          "internalType": "uint256",
          "name": "duration",
          "type": "uint256"
        },
        {
          "internalType": "uint256",
          "name": "startTime",
          "type": "uint256"
        },
        {
          "internalType": "uint256",
          "name": "lastClaimTimestamp",
          "type": "uint256"
        }
      ],
      "stateMutability": "view",
      "type": "function"
    },
    {
      "inputs": [
        {
          "internalType": "address",
          "name": "user",
          "type": "address"
        }
      ],
      "name": "bondsOfOwner",
      "outputs": [
        {
          "components": [
            {
              "internalType": "uint256",
              "name": "amount",
              "type": "uint256"
            },
            {
              "internalType": "uint256",
              "name": "apy",
              "type": "uint256"
            },
            {
              "internalType": "uint256",
              "name": "duration",
              "type": "uint256"
            },
            {
              "internalType": "uint256",
              "name": "startTime",
              "type": "uint256"
            },
            {
              "internalType": "uint256",
              "name": "lastClaimTimestamp",
              "type": "uint256"
            }
          ],
          "internalType": "struct IDeiBonds.Bond[]",
          "name": "",
          "type": "tuple[]"
        },
        {
          "internalType": "uint256[]",
          "name": "",
          "type": "uint256[]"
        }
      ],
      "stateMutability": "view",
      "type": "function"
    },
    {
      "inputs": [
        {
          "internalType": "uint256",
          "name": "amount",
          "type": "uint256"
        },
        {
          "internalType": "uint256",
          "name": "minApy",
          "type": "uint256"
        }
      ],
      "name": "buyBond",
      "outputs": [],
      "stateMutability": "nonpayable",
      "type": "function"
    },
    {
      "inputs": [],
      "name": "capacity",
      "outputs": [
        {
          "internalType": "uint256",
          "name": "",
          "type": "uint256"
        }
      ],
      "stateMutability": "view",
      "type": "function"
    },
    {
      "inputs": [
        {
          "internalType": "uint256",
          "name": "bondId",
          "type": "uint256"
        }
      ],
      "name": "claim",
      "outputs": [],
      "stateMutability": "nonpayable",
      "type": "function"
    },
    {
      "inputs": [],
      "name": "claimInterval",
      "outputs": [
        {
          "internalType": "uint256",
          "name": "",
          "type": "uint256"
        }
      ],
      "stateMutability": "view",
      "type": "function"
    },
    {
      "inputs": [
        {
          "internalType": "uint256",
          "name": "bondId",
          "type": "uint256"
        },
        {
          "internalType": "uint256",
          "name": "deusPrice",
          "type": "uint256"
        }
      ],
      "name": "claimableDeus",
      "outputs": [
        {
          "internalType": "uint256",
          "name": "deusAmount",
          "type": "uint256"
        }
      ],
      "stateMutability": "view",
      "type": "function"
    },
    {
      "inputs": [],
      "name": "deus",
      "outputs": [
        {
          "internalType": "address",
          "name": "",
          "type": "address"
        }
      ],
      "stateMutability": "view",
      "type": "function"
    },
    {
      "inputs": [],
      "name": "entryToken",
      "outputs": [
        {
          "internalType": "address",
          "name": "",
          "type": "address"
        }
      ],
      "stateMutability": "view",
      "type": "function"
    },
    {
      "inputs": [],
      "name": "exitToken",
      "outputs": [
        {
          "internalType": "address",
          "name": "",
          "type": "address"
        }
      ],
      "stateMutability": "view",
      "type": "function"
    },
    {
      "inputs": [],
      "name": "getApy",
      "outputs": [
        {
          "internalType": "uint256",
          "name": "apyValue",
          "type": "uint256"
        }
      ],
      "stateMutability": "view",
      "type": "function"
    },
    {
      "inputs": [
        {
          "internalType": "bytes32",
          "name": "role",
          "type": "bytes32"
        }
      ],
      "name": "getRoleAdmin",
      "outputs": [
        {
          "internalType": "bytes32",
          "name": "",
          "type": "bytes32"
        }
      ],
      "stateMutability": "view",
      "type": "function"
    },
    {
      "inputs": [
        {
          "internalType": "bytes32",
          "name": "role",
          "type": "bytes32"
        },
        {
          "internalType": "uint256",
          "name": "index",
          "type": "uint256"
        }
      ],
      "name": "getRoleMember",
      "outputs": [
        {
          "internalType": "address",
          "name": "",
          "type": "address"
        }
      ],
      "stateMutability": "view",
      "type": "function"
    },
    {
      "inputs": [
        {
          "internalType": "bytes32",
          "name": "role",
          "type": "bytes32"
        }
      ],
      "name": "getRoleMemberCount",
      "outputs": [
        {
          "internalType": "uint256",
          "name": "",
          "type": "uint256"
        }
      ],
      "stateMutability": "view",
      "type": "function"
    },
    {
      "inputs": [
        {
          "internalType": "bytes32",
          "name": "role",
          "type": "bytes32"
        },
        {
          "internalType": "address",
          "name": "account",
          "type": "address"
        }
      ],
      "name": "grantRole",
      "outputs": [],
      "stateMutability": "nonpayable",
      "type": "function"
    },
    {
      "inputs": [
        {
          "internalType": "bytes32",
          "name": "role",
          "type": "bytes32"
        },
        {
          "internalType": "address",
          "name": "account",
          "type": "address"
        }
      ],
      "name": "hasRole",
      "outputs": [
        {
          "internalType": "bool",
          "name": "",
          "type": "bool"
        }
      ],
      "stateMutability": "view",
      "type": "function"
    },
    {
      "inputs": [
        {
          "internalType": "uint256",
          "name": "bondId",
          "type": "uint256"
        }
      ],
      "name": "maturityExit",
      "outputs": [],
      "stateMutability": "nonpayable",
      "type": "function"
    },
    {
      "inputs": [],
      "name": "nft",
      "outputs": [
        {
          "internalType": "address",
          "name": "",
          "type": "address"
        }
      ],
      "stateMutability": "view",
      "type": "function"
    },
    {
      "inputs": [],
      "name": "oracle",
      "outputs": [
        {
          "internalType": "address",
          "name": "",
          "type": "address"
        }
      ],
      "stateMutability": "view",
      "type": "function"
    },
    {
      "inputs": [],
      "name": "pause",
      "outputs": [],
      "stateMutability": "nonpayable",
      "type": "function"
    },
    {
      "inputs": [],
      "name": "paused",
      "outputs": [
        {
          "internalType": "bool",
          "name": "",
          "type": "bool"
        }
      ],
      "stateMutability": "view",
      "type": "function"
    },
    {
      "inputs": [],
      "name": "preMaturityExitCalculator",
      "outputs": [
        {
          "internalType": "address",
          "name": "",
          "type": "address"
        }
      ],
      "stateMutability": "view",
      "type": "function"
    },
    {
      "inputs": [
        {
          "internalType": "uint256",
          "name": "bondId",
          "type": "uint256"
        }
      ],
      "name": "prematureWithdraw",
      "outputs": [],
      "stateMutability": "nonpayable",
      "type": "function"
    },
    {
      "inputs": [
        {
          "internalType": "bytes32",
          "name": "role",
          "type": "bytes32"
        },
        {
          "internalType": "address",
          "name": "account",
          "type": "address"
        }
      ],
      "name": "renounceRole",
      "outputs": [],
      "stateMutability": "nonpayable",
      "type": "function"
    },
    {
      "inputs": [
        {
          "internalType": "bytes32",
          "name": "role",
          "type": "bytes32"
        },
        {
          "internalType": "address",
          "name": "account",
          "type": "address"
        }
      ],
      "name": "revokeRole",
      "outputs": [],
      "stateMutability": "nonpayable",
      "type": "function"
    },
    {
      "inputs": [
        {
          "internalType": "address",
          "name": "apyCalculator_",
          "type": "address"
        }
      ],
      "name": "setApyCalculator",
      "outputs": [],
      "stateMutability": "nonpayable",
      "type": "function"
    },
    {
      "inputs": [
        {
          "internalType": "uint256",
          "name": "cap",
          "type": "uint256"
        }
      ],
      "name": "setCap",
      "outputs": [],
      "stateMutability": "nonpayable",
      "type": "function"
    },
    {
      "inputs": [
        {
          "internalType": "uint256",
          "name": "claimInterval_",
          "type": "uint256"
        }
      ],
      "name": "setClaimInterval",
      "outputs": [],
      "stateMutability": "nonpayable",
      "type": "function"
    },
    {
      "inputs": [
        {
          "internalType": "address",
          "name": "nft_",
          "type": "address"
        }
      ],
      "name": "setNFT",
      "outputs": [],
      "stateMutability": "nonpayable",
      "type": "function"
    },
    {
      "inputs": [
        {
          "internalType": "address",
          "name": "oracle_",
          "type": "address"
        }
      ],
      "name": "setOracle",
      "outputs": [],
      "stateMutability": "nonpayable",
      "type": "function"
    },
    {
      "inputs": [
        {
          "internalType": "address",
          "name": "preMaturityExitCalculator_",
          "type": "address"
        }
      ],
      "name": "setPreMaturityExitCalculator",
      "outputs": [],
      "stateMutability": "nonpayable",
      "type": "function"
    },
    {
      "inputs": [
        {
          "internalType": "uint256",
          "name": "soldAmount_",
          "type": "uint256"
        }
      ],
      "name": "setSoldAmount",
      "outputs": [],
      "stateMutability": "nonpayable",
      "type": "function"
    },
    {
      "inputs": [],
      "name": "soldAmount",
      "outputs": [
        {
          "internalType": "uint256",
          "name": "",
          "type": "uint256"
        }
      ],
      "stateMutability": "view",
      "type": "function"
    },
    {
      "inputs": [
        {
          "internalType": "bytes4",
          "name": "interfaceId",
          "type": "bytes4"
        }
      ],
      "name": "supportsInterface",
      "outputs": [
        {
          "internalType": "bool",
          "name": "",
          "type": "bool"
        }
      ],
      "stateMutability": "view",
      "type": "function"
    },
    {
      "inputs": [],
      "name": "unpause",
      "outputs": [],
      "stateMutability": "nonpayable",
      "type": "function"
    },
    {
      "inputs": [
        {
          "internalType": "address",
          "name": "token",
          "type": "address"
        },
        {
          "internalType": "uint256",
          "name": "amount",
          "type": "uint256"
        }
      ],
      "name": "withdrawERC20",
      "outputs": [],
      "stateMutability": "nonpayable",
      "type": "function"
    },
    {
      "inputs": [
        {
          "internalType": "uint256",
          "name": "amount",
          "type": "uint256"
        }
      ],
      "name": "withdrawETH",
      "outputs": [],
      "stateMutability": "nonpayable",
      "type": "function"
    }
  ],
  "bytecode": "0x608060405261a8c0600e553480156200001757600080fd5b5060405162004310380380620043108339810160408190526200003a9162000287565b6002805460ff191690556001600355600580546001600160a01b03199081166001600160a01b038b8116919091179092556006805482168a8416179055600780548216898416179055600880548216888416179055600a80548216878416179055600b8054821686841617905560098054909116918416919091179055600c819055620000c960008b62000105565b620000f57f0db189261133fd7647d3308512b693b47bed44004cac80fb59aa64b63a231e2c8a62000105565b505050505050505050506200034d565b62000111828262000115565b5050565b6200012c82826200015860201b6200297c1760201c565b60008281526001602090815260409091206200015391839062002a6c620001f8821b17901c565b505050565b6000828152602081815260408083206001600160a01b038516845290915290205460ff1662000111576000828152602081815260408083206001600160a01b03851684529091529020805460ff19166001179055620001b43390565b6001600160a01b0316816001600160a01b0316837f2f8788117e7eff1d82e926ec794901d17c78024a50270940304540a733656f0d60405160405180910390a45050565b60006200020f836001600160a01b03841662000218565b90505b92915050565b6000818152600183016020526040812054620002615750815460018181018455600084815260208082209093018490558454848252828601909352604090209190915562000212565b50600062000212565b80516001600160a01b03811681146200028257600080fd5b919050565b6000806000806000806000806000806101408b8d031215620002a857600080fd5b620002b38b6200026a565b9950620002c360208c016200026a565b9850620002d360408c016200026a565b9750620002e360608c016200026a565b9650620002f360808c016200026a565b95506200030360a08c016200026a565b94506200031360c08c016200026a565b93506200032360e08c016200026a565b9250620003346101008c016200026a565b91506101208b015190509295989b9194979a5092959850565b613fb3806200035d6000396000f3fe608060405234801561001057600080fd5b50600436106102de5760003560e01c80636c73dd6911610186578063a1db9782116100e3578063dfccc67e11610097578063f2d57adf11610071578063f2d57adf146106ef578063f56e9c6614610702578063fa1a5f591461071557600080fd5b8063dfccc67e146106a2578063e63ab1e9146106b5578063f14210a6146106dc57600080fd5b8063c2ca269a116100c8578063c2ca269a14610669578063ca15c8731461067c578063d547741f1461068f57600080fd5b8063a1db97821461064e578063a217fddf1461066157600080fd5b80637e5465ba1161013a5780639010d07c1161011f5780639010d07c146105e457806391d14854146105f75780639ca5814d1461063b57600080fd5b80637e5465ba146105c95780638456cb59146105dc57600080fd5b80637adbf9731161016b5780637adbf973146105765780637c63362b146105895780637dc0d1d0146105a957600080fd5b80636c73dd69146105435780636e50fc461461055657600080fd5b806334ddb95d1161023f57806347786d37116101f35780635c975abb116101cd5780635c975abb146104c95780635cfc1a51146104d45780635f1c17c0146104dd57600080fd5b806347786d371461047657806347ccca02146104895780634bc537a8146104a957600080fd5b8063379607f511610224578063379607f5146104485780633a692feb1461045b5780633f4ba83a1461046e57600080fd5b806334ddb95d1461040e57806336568abe1461043557600080fd5b8063119d461411610296578063248a9ca31161027b578063248a9ca3146103c55780632aee25d3146103e85780632f2ff15d146103fb57600080fd5b8063119d46141461039d5780631fb922e0146103bd57600080fd5b806307406265116102c757806307406265146103505780630b433a12146103655780630f705cbf1461037c57600080fd5b806301ffc9a7146102e3578063035ea1f71461030b575b600080fd5b6102f66102f13660046137e4565b61071e565b60405190151581526020015b60405180910390f35b600b5461032b9073ffffffffffffffffffffffffffffffffffffffff1681565b60405173ffffffffffffffffffffffffffffffffffffffff9091168152602001610302565b61036361035e366004613826565b61077a565b005b61036e600e5481565b604051908152602001610302565b61038f61038a366004613861565b610e7f565b6040516103029291906138b9565b600a5461032b9073ffffffffffffffffffffffffffffffffffffffff1681565b61036e611138565b61036e6103d3366004613826565b60009081526020819052604090206001015490565b61036e6103f636600461392e565b6111d1565b610363610409366004613950565b6113b3565b61036e7f0db189261133fd7647d3308512b693b47bed44004cac80fb59aa64b63a231e2c81565b610363610443366004613950565b6113dd565b610363610456366004613826565b611490565b610363610469366004613826565b61194d565b6103636119b9565b610363610484366004613826565b6119ee565b60085461032b9073ffffffffffffffffffffffffffffffffffffffff1681565b60055461032b9073ffffffffffffffffffffffffffffffffffffffff1681565b60025460ff166102f6565b61036e600c5481565b61051b6104eb366004613826565b60046020819052600091825260409091208054600182015460028301546003840154939094015491939092909185565b604080519586526020860194909452928401919091526060830152608082015260a001610302565b610363610551366004613826565b611a5a565b60075461032b9073ffffffffffffffffffffffffffffffffffffffff1681565b610363610584366004613861565b611f84565b60065461032b9073ffffffffffffffffffffffffffffffffffffffff1681565b60095461032b9073ffffffffffffffffffffffffffffffffffffffff1681565b6103636105d7366004613980565b61204a565b6103636120b5565b61032b6105f236600461392e565b6120e7565b6102f6610605366004613950565b60009182526020828152604080842073ffffffffffffffffffffffffffffffffffffffff93909316845291905290205460ff1690565b610363610649366004613861565b612106565b61036361065c3660046139ae565b6121cc565b61036e600081565b61036361067736600461392e565b612217565b61036e61068a366004613826565b6126f1565b61036361069d366004613950565b612708565b6103636106b0366004613861565b61272d565b61036e7f65d7a28e3265b37a6474929f336521b332c1681b933f6cb9f3376673440d862a81565b6103636106ea366004613826565b6127f3565b6103636106fd366004613826565b61284a565b610363610710366004613861565b6128b6565b61036e600d5481565b60007fffffffff0000000000000000000000000000000000000000000000000000000082167f5a05180f000000000000000000000000000000000000000000000000000000001480610774575061077482612a8e565b92915050565b60025460ff16156107ec576040517f08c379a000000000000000000000000000000000000000000000000000000000815260206004820152601060248201527f5061757361626c653a207061757365640000000000000000000000000000000060448201526064015b60405180910390fd5b600260035403610858576040517f08c379a000000000000000000000000000000000000000000000000000000000815260206004820152601f60248201527f5265656e7472616e637947756172643a207265656e7472616e742063616c6c0060448201526064016107e3565b60026003556008546040517f6352211e0000000000000000000000000000000000000000000000000000000081526004810183905260009173ffffffffffffffffffffffffffffffffffffffff1690636352211e90602401602060405180830381865afa1580156108cd573d6000803e3d6000fd5b505050506040513d601f19601f820116820180604052508101906108f191906139da565b905073ffffffffffffffffffffffffffffffffffffffff81163314610998576040517f08c379a000000000000000000000000000000000000000000000000000000000815260206004820152602160248201527f446569426f6e643a2053454e4445525f49535f4e4f545f424f4e445f4f574e4560448201527f520000000000000000000000000000000000000000000000000000000000000060648201526084016107e3565b6008546040517f4c0610ab00000000000000000000000000000000000000000000000000000000815260048101849052309173ffffffffffffffffffffffffffffffffffffffff1690634c0610ab90602401602060405180830381865afa158015610a07573d6000803e3d6000fd5b505050506040513d601f19601f82011682018060405250810190610a2b91906139da565b73ffffffffffffffffffffffffffffffffffffffff1614610aa8576040517f08c379a000000000000000000000000000000000000000000000000000000000815260206004820152601a60248201527f446569426f6e643a204e46545f4e4f545f535550504f5254454400000000000060448201526064016107e3565b600082815260046020818152604092839020835160a0810185528154815260018201549281019290925260028101549382018490526003810154606083018190529201546080820152914291610afd91613a26565b10610b64576040517f08c379a000000000000000000000000000000000000000000000000000000000815260206004820152601c60248201527f446569426f6e643a20424f4e445f49535f4e4f545f455850495245440000000060448201526064016107e3565b600954604080517f98d5fdca000000000000000000000000000000000000000000000000000000008152905160009273ffffffffffffffffffffffffffffffffffffffff16916398d5fdca9160048083019260209291908290030181865afa158015610bd4573d6000803e3d6000fd5b505050506040513d601f19601f82011682018060405250810190610bf89190613a3e565b90506000610c0685836111d1565b90508015610c70576040517f08c379a000000000000000000000000000000000000000000000000000000000815260206004820152601860248201527f446569426f6e643a204e4f545f434c41494d45445f594554000000000000000060448201526064016107e3565b8251600d8054829190600090610c87908490613a57565b9091555050600086815260046020818152604080842084905560075481517f313ce5670000000000000000000000000000000000000000000000000000000081529151859473ffffffffffffffffffffffffffffffffffffffff9092169363313ce5679380840193919291908290030181865afa158015610d0c573d6000803e3d6000fd5b505050506040513d601f19601f82011682018060405250810190610d309190613a6e565b60ff1690506000600660009054906101000a900473ffffffffffffffffffffffffffffffffffffffff1673ffffffffffffffffffffffffffffffffffffffff1663313ce5676040518163ffffffff1660e01b8152600401602060405180830381865afa158015610da4573d6000803e3d6000fd5b505050506040513d601f19601f82011682018060405250810190610dc89190613a6e565b60ff1690506000818310610de557610de08284613a57565b610def565b610def8383613a57565b9050610dfc81600a613bb1565b610e069086613bbd565b600654909450610e2d9073ffffffffffffffffffffffffffffffffffffffff163386612b25565b60408051338152602081018790529081018b90527f74fae7a9ce3b75a9ad78376eb4f65751f64b0e7cd0c6246764d527b5ea517e4d9060600160405180910390a1505060016003555050505050505050565b6008546040517f5a3f267200000000000000000000000000000000000000000000000000000000815273ffffffffffffffffffffffffffffffffffffffff8381166004830152606092839260009290911690635a3f267290602401600060405180830381865afa158015610ef7573d6000803e3d6000fd5b505050506040513d6000823e601f3d9081017fffffffffffffffffffffffffffffffffffffffffffffffffffffffffffffffe0168201604052610f3d9190810190613c27565b90506000815167ffffffffffffffff811115610f5b57610f5b613bf8565b604051908082528060200260200182016040528015610fbe57816020015b610fab6040518060a0016040528060008152602001600081526020016000815260200160008152602001600081525090565b815260200190600190039081610f795790505b5090506000805b835181101561112b576008548451309173ffffffffffffffffffffffffffffffffffffffff1690634c0610ab9087908590811061100457611004613d03565b60200260200101516040518263ffffffff1660e01b815260040161102a91815260200190565b602060405180830381865afa158015611047573d6000803e3d6000fd5b505050506040513d601f19601f8201168201806040525081019061106b91906139da565b73ffffffffffffffffffffffffffffffffffffffff1603611119576004600085838151811061109c5761109c613d03565b602002602001015181526020019081526020016000206040518060a0016040529081600082015481526020016001820154815260200160028201548152602001600382015481526020016004820154815250508383806110fb90613d32565b94508151811061110d5761110d613d03565b60200260200101819052505b8061112381613d32565b915050610fc5565b5090959194509092505050565b600a54604080517f1fb922e0000000000000000000000000000000000000000000000000000000008152905160009273ffffffffffffffffffffffffffffffffffffffff1691631fb922e09160048083019260209291908290030181865afa1580156111a8573d6000803e3d6000fd5b505050506040513d601f19601f820116820180604052508101906111cc9190613a3e565b905090565b6000828152600460208181526040808420815160a08101835281548152600182015493810193909352600281015491830182905260038101546060840181905293015460808301529091839161122691613a26565b905060008142116112375742611239565b815b90506000600e54846060015185608001516112549190613a57565b61125e9190613bbd565b600e5460608601516112709085613a57565b61127a9190613bbd565b6112849190613a57565b90506000600e54856040015161129a9190613bbd565b905060006112b082670de0b6b3a7640000613d6a565b600760009054906101000a900473ffffffffffffffffffffffffffffffffffffffff1673ffffffffffffffffffffffffffffffffffffffff1663313ce5676040518163ffffffff1660e01b8152600401602060405180830381865afa15801561131d573d6000803e3d6000fd5b505050506040513d601f19601f820116820180604052508101906113419190613a6e565b61134c906012613da7565b61135790600a613dca565b60208801518851611369908790613d6a565b6113739190613d6a565b61137d9190613d6a565b6113879190613bbd565b90508761139c82670de0b6b3a7640000613d6a565b6113a69190613bbd565b9998505050505050505050565b6000828152602081905260409020600101546113ce81612bf9565b6113d88383612c03565b505050565b73ffffffffffffffffffffffffffffffffffffffff81163314611482576040517f08c379a000000000000000000000000000000000000000000000000000000000815260206004820152602f60248201527f416363657373436f6e74726f6c3a2063616e206f6e6c792072656e6f756e636560448201527f20726f6c657320666f722073656c66000000000000000000000000000000000060648201526084016107e3565b61148c8282612c25565b5050565b60025460ff16156114fd576040517f08c379a000000000000000000000000000000000000000000000000000000000815260206004820152601060248201527f5061757361626c653a207061757365640000000000000000000000000000000060448201526064016107e3565b600260035403611569576040517f08c379a000000000000000000000000000000000000000000000000000000000815260206004820152601f60248201527f5265656e7472616e637947756172643a207265656e7472616e742063616c6c0060448201526064016107e3565b60026003556008546040517f6352211e0000000000000000000000000000000000000000000000000000000081526004810183905260009173ffffffffffffffffffffffffffffffffffffffff1690636352211e90602401602060405180830381865afa1580156115de573d6000803e3d6000fd5b505050506040513d601f19601f8201168201806040525081019061160291906139da565b905073ffffffffffffffffffffffffffffffffffffffff811633146116a9576040517f08c379a000000000000000000000000000000000000000000000000000000000815260206004820152602160248201527f446569426f6e643a2053454e4445525f49535f4e4f545f424f4e445f4f574e4560448201527f520000000000000000000000000000000000000000000000000000000000000060648201526084016107e3565b6008546040517f4c0610ab00000000000000000000000000000000000000000000000000000000815260048101849052309173ffffffffffffffffffffffffffffffffffffffff1690634c0610ab90602401602060405180830381865afa158015611718573d6000803e3d6000fd5b505050506040513d601f19601f8201168201806040525081019061173c91906139da565b73ffffffffffffffffffffffffffffffffffffffff16146117b9576040517f08c379a000000000000000000000000000000000000000000000000000000000815260206004820152601d60248201527f446569426f6e643a204e46545f49535f4e4f545f535550504f5254454400000060448201526064016107e3565b600954604080517f98d5fdca000000000000000000000000000000000000000000000000000000008152905160009273ffffffffffffffffffffffffffffffffffffffff16916398d5fdca9160048083019260209291908290030181865afa158015611829573d6000803e3d6000fd5b505050506040513d601f19601f8201168201806040525081019061184d9190613a3e565b9050600061185b84836111d1565b9050600081116118c7576040517f08c379a000000000000000000000000000000000000000000000000000000000815260206004820152601d60248201527f446569426f6e643a20434c41494d5f414d4f554e545f49535f5a45524f00000060448201526064016107e3565b6000848152600460208190526040909120429101556005546119009073ffffffffffffffffffffffffffffffffffffffff163383612b25565b60408051338152602081018690529081018290527f34fcbac0073d7c3d388e51312faf357774904998eeb8fca628b9e6f65ee1cbf7906060015b60405180910390a1505060016003555050565b7f0db189261133fd7647d3308512b693b47bed44004cac80fb59aa64b63a231e2c61197781612bf9565b600d5460408051918252602082018490527fecfd3aa3f8a7181d50b5df7bb43462d8fc30235a3ebf953acef175a8a691194f910160405180910390a150600d55565b7f0db189261133fd7647d3308512b693b47bed44004cac80fb59aa64b63a231e2c6119e381612bf9565b6119eb612c47565b50565b7f0db189261133fd7647d3308512b693b47bed44004cac80fb59aa64b63a231e2c611a1881612bf9565b600c5460408051918252602082018490527fdbbbb176683582b710ef3349793b8d62658724a9d9b54deccf193c4b0aa90c4c910160405180910390a150600c55565b60025460ff1615611ac7576040517f08c379a000000000000000000000000000000000000000000000000000000000815260206004820152601060248201527f5061757361626c653a207061757365640000000000000000000000000000000060448201526064016107e3565b600260035403611b33576040517f08c379a000000000000000000000000000000000000000000000000000000000815260206004820152601f60248201527f5265656e7472616e637947756172643a207265656e7472616e742063616c6c0060448201526064016107e3565b60026003556008546040517f6352211e0000000000000000000000000000000000000000000000000000000081526004810183905260009173ffffffffffffffffffffffffffffffffffffffff1690636352211e90602401602060405180830381865afa158015611ba8573d6000803e3d6000fd5b505050506040513d601f19601f82011682018060405250810190611bcc91906139da565b905073ffffffffffffffffffffffffffffffffffffffff81163314611c73576040517f08c379a000000000000000000000000000000000000000000000000000000000815260206004820152602160248201527f446569426f6e643a2053454e4445525f49535f4e4f545f424f4e445f4f574e4560448201527f520000000000000000000000000000000000000000000000000000000000000060648201526084016107e3565b6008546040517f4c0610ab00000000000000000000000000000000000000000000000000000000815260048101849052309173ffffffffffffffffffffffffffffffffffffffff1690634c0610ab90602401602060405180830381865afa158015611ce2573d6000803e3d6000fd5b505050506040513d601f19601f82011682018060405250810190611d0691906139da565b73ffffffffffffffffffffffffffffffffffffffff1614611d83576040517f08c379a000000000000000000000000000000000000000000000000000000000815260206004820152601a60248201527f446569426f6e643a204e46545f4e4f545f535550504f5254454400000000000060448201526064016107e3565b600082815260046020818152604092839020835160a0810185528154815260018201549281019290925260028101549382018490526003810154606083018190529201546080820152914291611dd891613a26565b11611e3f576040517f08c379a000000000000000000000000000000000000000000000000000000000815260206004820152601860248201527f446569426f6e643a20424f4e445f49535f45585049524544000000000000000060448201526064016107e3565b8051600d8054829190600090611e56908490613a57565b90915550506000848152600460208190526040808320839055600b5460085491517f2a485f3400000000000000000000000000000000000000000000000000000000815292830188905273ffffffffffffffffffffffffffffffffffffffff91821660248401521690632a485f3490604401602060405180830381865afa158015611ee5573d6000803e3d6000fd5b505050506040513d601f19601f82011682018060405250810190611f099190613a3e565b600754909150611f309073ffffffffffffffffffffffffffffffffffffffff163383612b25565b6040805133815260208101849052908101829052606081018690527f058ddcee377a0a3b07ef309bbb7e13adaa11d193077339939cf08b4bc9413d4a9060800160405180910390a150506001600355505050565b7f0db189261133fd7647d3308512b693b47bed44004cac80fb59aa64b63a231e2c611fae81612bf9565b6009546040805173ffffffffffffffffffffffffffffffffffffffff928316815291841660208301527fb7261e9c33aa7c56209c3bf60b424a8f9551ce28876c0ab3d0c487695e943487910160405180910390a150600980547fffffffffffffffffffffffff00000000000000000000000000000000000000001673ffffffffffffffffffffffffffffffffffffffff92909216919091179055565b7f0db189261133fd7647d3308512b693b47bed44004cac80fb59aa64b63a231e2c61207481612bf9565b6113d873ffffffffffffffffffffffffffffffffffffffff8416837fffffffffffffffffffffffffffffffffffffffffffffffffffffffffffffffff612d28565b7f65d7a28e3265b37a6474929f336521b332c1681b933f6cb9f3376673440d862a6120df81612bf9565b6119eb612eaa565b60008281526001602052604081206120ff9083612f6a565b9392505050565b7f0db189261133fd7647d3308512b693b47bed44004cac80fb59aa64b63a231e2c61213081612bf9565b600a546040805173ffffffffffffffffffffffffffffffffffffffff928316815291841660208301527f39952e6ac34862b47935b341829699a128ff4eb186c7f46592d1b04f5b240815910160405180910390a150600a80547fffffffffffffffffffffffff00000000000000000000000000000000000000001673ffffffffffffffffffffffffffffffffffffffff92909216919091179055565b7f0db189261133fd7647d3308512b693b47bed44004cac80fb59aa64b63a231e2c6121f681612bf9565b6113d873ffffffffffffffffffffffffffffffffffffffff84163384612b25565b60025460ff1615612284576040517f08c379a000000000000000000000000000000000000000000000000000000000815260206004820152601060248201527f5061757361626c653a207061757365640000000000000000000000000000000060448201526064016107e3565b6002600354036122f0576040517f08c379a000000000000000000000000000000000000000000000000000000000815260206004820152601f60248201527f5265656e7472616e637947756172643a207265656e7472616e742063616c6c0060448201526064016107e3565b6002600355600c54600d546123059084613a26565b111561236d576040517f08c379a000000000000000000000000000000000000000000000000000000000815260206004820152601860248201527f446569426f6e643a2054484552455f49535f4e4f5f434150000000000000000060448201526064016107e3565b600a60009054906101000a900473ffffffffffffffffffffffffffffffffffffffff1673ffffffffffffffffffffffffffffffffffffffff16631fb922e06040518163ffffffff1660e01b8152600401602060405180830381865afa1580156123da573d6000803e3d6000fd5b505050506040513d601f19601f820116820180604052508101906123fe9190613a3e565b811115612467576040517f08c379a000000000000000000000000000000000000000000000000000000000815260206004820152601960248201527f446569426f6e643a20494e53554646494349454e545f4150590000000000000060448201526064016107e3565b6007546040517f23b872dd0000000000000000000000000000000000000000000000000000000081523360048201523060248201526044810184905273ffffffffffffffffffffffffffffffffffffffff909116906323b872dd906064016020604051808303816000875af11580156124e4573d6000803e3d6000fd5b505050506040513d601f19601f820116820180604052508101906125089190613dd9565b506008546040517fee1fe2ad00000000000000000000000000000000000000000000000000000000815233600482015230602482015260009173ffffffffffffffffffffffffffffffffffffffff169063ee1fe2ad906044016020604051808303816000875af1158015612580573d6000803e3d6000fd5b505050506040513d601f19601f820116820180604052508101906125a49190613a3e565b905060006040518060a00160405280858152602001600a60009054906101000a900473ffffffffffffffffffffffffffffffffffffffff1673ffffffffffffffffffffffffffffffffffffffff16631fb922e06040518163ffffffff1660e01b8152600401602060405180830381865afa158015612626573d6000803e3d6000fd5b505050506040513d601f19601f8201168201806040525081019061264a9190613a3e565b815260200162ed4e00815260200142815260200142815250905083600d60008282546126769190613a26565b90915550506000828152600460208181526040928390208451815584820151600182015584840151600282015560608086015160038301556080860151919093015582513381529081018790529182018490527fdce87374e4ad37ce4db342210002d13eb8fb72dd30a221803e693145ef149010910161193a565b600081815260016020526040812061077490612f76565b60008281526020819052604090206001015461272381612bf9565b6113d88383612c25565b7f0db189261133fd7647d3308512b693b47bed44004cac80fb59aa64b63a231e2c61275781612bf9565b600b546040805173ffffffffffffffffffffffffffffffffffffffff928316815291841660208301527fca977ebce3d61f4f0149afa8b8f09e3225d7ac0e58e60d06136366eaa00df1f3910160405180910390a150600b80547fffffffffffffffffffffffff00000000000000000000000000000000000000001673ffffffffffffffffffffffffffffffffffffffff92909216919091179055565b7f0db189261133fd7647d3308512b693b47bed44004cac80fb59aa64b63a231e2c61281d81612bf9565b604051339083156108fc029084906000818181858888f193505050501580156113d8573d6000803e3d6000fd5b7f0db189261133fd7647d3308512b693b47bed44004cac80fb59aa64b63a231e2c61287481612bf9565b600e5460408051918252602082018490527f0d8e7a61135a0b471ca4c20f606c82e40bfdfa34727d5bb209bda99fdaf9d6c1910160405180910390a150600e55565b7f0db189261133fd7647d3308512b693b47bed44004cac80fb59aa64b63a231e2c6128e081612bf9565b6008546040805173ffffffffffffffffffffffffffffffffffffffff928316815291841660208301527f18903e593d168b3b8e4aacad99d15d9bce69a044067a51b09a757f96134791aa910160405180910390a150600880547fffffffffffffffffffffffff00000000000000000000000000000000000000001673ffffffffffffffffffffffffffffffffffffffff92909216919091179055565b60008281526020818152604080832073ffffffffffffffffffffffffffffffffffffffff8516845290915290205460ff1661148c5760008281526020818152604080832073ffffffffffffffffffffffffffffffffffffffff85168452909152902080547fffffffffffffffffffffffffffffffffffffffffffffffffffffffffffffff00166001179055612a0e3390565b73ffffffffffffffffffffffffffffffffffffffff168173ffffffffffffffffffffffffffffffffffffffff16837f2f8788117e7eff1d82e926ec794901d17c78024a50270940304540a733656f0d60405160405180910390a45050565b60006120ff8373ffffffffffffffffffffffffffffffffffffffff8416612f80565b60007fffffffff0000000000000000000000000000000000000000000000000000000082167f7965db0b00000000000000000000000000000000000000000000000000000000148061077457507f01ffc9a7000000000000000000000000000000000000000000000000000000007fffffffff00000000000000000000000000000000000000000000000000000000831614610774565b60405173ffffffffffffffffffffffffffffffffffffffff83166024820152604481018290526113d89084907fa9059cbb00000000000000000000000000000000000000000000000000000000906064015b604080517fffffffffffffffffffffffffffffffffffffffffffffffffffffffffffffffe08184030181529190526020810180517bffffffffffffffffffffffffffffffffffffffffffffffffffffffff167fffffffff0000000000000000000000000000000000000000000000000000000090931692909217909152612fcf565b6119eb81336130db565b612c0d828261297c565b60008281526001602052604090206113d89082612a6c565b612c2f82826131ab565b60008281526001602052604090206113d89082613262565b60025460ff16612cb3576040517f08c379a000000000000000000000000000000000000000000000000000000000815260206004820152601460248201527f5061757361626c653a206e6f742070617573656400000000000000000000000060448201526064016107e3565b600280547fffffffffffffffffffffffffffffffffffffffffffffffffffffffffffffff001690557f5db9ee0a495bf2e6ff9c91a7834c1ba4fdd244a5e8aa4e537bd38aeae4b073aa335b60405173ffffffffffffffffffffffffffffffffffffffff909116815260200160405180910390a1565b801580612dc857506040517fdd62ed3e00000000000000000000000000000000000000000000000000000000815230600482015273ffffffffffffffffffffffffffffffffffffffff838116602483015284169063dd62ed3e90604401602060405180830381865afa158015612da2573d6000803e3d6000fd5b505050506040513d601f19601f82011682018060405250810190612dc69190613a3e565b155b612e54576040517f08c379a000000000000000000000000000000000000000000000000000000000815260206004820152603660248201527f5361666545524332303a20617070726f76652066726f6d206e6f6e2d7a65726f60448201527f20746f206e6f6e2d7a65726f20616c6c6f77616e63650000000000000000000060648201526084016107e3565b60405173ffffffffffffffffffffffffffffffffffffffff83166024820152604481018290526113d89084907f095ea7b30000000000000000000000000000000000000000000000000000000090606401612b77565b60025460ff1615612f17576040517f08c379a000000000000000000000000000000000000000000000000000000000815260206004820152601060248201527f5061757361626c653a207061757365640000000000000000000000000000000060448201526064016107e3565b600280547fffffffffffffffffffffffffffffffffffffffffffffffffffffffffffffff001660011790557f62e78cea01bee320cd4e420270b5ea74000d11b0c9f74754ebdbfc544b05a258612cfe3390565b60006120ff8383613284565b6000610774825490565b6000818152600183016020526040812054612fc757508154600181810184556000848152602080822090930184905584548482528286019093526040902091909155610774565b506000610774565b6000613031826040518060400160405280602081526020017f5361666545524332303a206c6f772d6c6576656c2063616c6c206661696c65648152508573ffffffffffffffffffffffffffffffffffffffff166132ae9092919063ffffffff16565b8051909150156113d8578080602001905181019061304f9190613dd9565b6113d8576040517f08c379a000000000000000000000000000000000000000000000000000000000815260206004820152602a60248201527f5361666545524332303a204552433230206f7065726174696f6e20646964206e60448201527f6f7420737563636565640000000000000000000000000000000000000000000060648201526084016107e3565b60008281526020818152604080832073ffffffffffffffffffffffffffffffffffffffff8516845290915290205460ff1661148c576131318173ffffffffffffffffffffffffffffffffffffffff1660146132c5565b61313c8360206132c5565b60405160200161314d929190613e2b565b604080517fffffffffffffffffffffffffffffffffffffffffffffffffffffffffffffffe0818403018152908290527f08c379a00000000000000000000000000000000000000000000000000000000082526107e391600401613eac565b60008281526020818152604080832073ffffffffffffffffffffffffffffffffffffffff8516845290915290205460ff161561148c5760008281526020818152604080832073ffffffffffffffffffffffffffffffffffffffff8516808552925280832080547fffffffffffffffffffffffffffffffffffffffffffffffffffffffffffffff0016905551339285917ff6391f5c32d9c69d2a47ea670b442974b53935d1edc7fd64eb21e047a839171b9190a45050565b60006120ff8373ffffffffffffffffffffffffffffffffffffffff8416613508565b600082600001828154811061329b5761329b613d03565b9060005260206000200154905092915050565b60606132bd84846000856135fb565b949350505050565b606060006132d4836002613d6a565b6132df906002613a26565b67ffffffffffffffff8111156132f7576132f7613bf8565b6040519080825280601f01601f191660200182016040528015613321576020820181803683370190505b5090507f30000000000000000000000000000000000000000000000000000000000000008160008151811061335857613358613d03565b60200101907effffffffffffffffffffffffffffffffffffffffffffffffffffffffffffff1916908160001a9053507f7800000000000000000000000000000000000000000000000000000000000000816001815181106133bb576133bb613d03565b60200101907effffffffffffffffffffffffffffffffffffffffffffffffffffffffffffff1916908160001a90535060006133f7846002613d6a565b613402906001613a26565b90505b600181111561349f577f303132333435363738396162636465660000000000000000000000000000000085600f166010811061344357613443613d03565b1a60f81b82828151811061345957613459613d03565b60200101907effffffffffffffffffffffffffffffffffffffffffffffffffffffffffffff1916908160001a90535060049490941c9361349881613efd565b9050613405565b5083156120ff576040517f08c379a000000000000000000000000000000000000000000000000000000000815260206004820181905260248201527f537472696e67733a20686578206c656e67746820696e73756666696369656e7460448201526064016107e3565b600081815260018301602052604081205480156135f157600061352c600183613a57565b855490915060009061354090600190613a57565b90508181146135a557600086600001828154811061356057613560613d03565b906000526020600020015490508087600001848154811061358357613583613d03565b6000918252602080832090910192909255918252600188019052604090208390555b85548690806135b6576135b6613f32565b600190038181906000526020600020016000905590558560010160008681526020019081526020016000206000905560019350505050610774565b6000915050610774565b60608247101561368d576040517f08c379a000000000000000000000000000000000000000000000000000000000815260206004820152602660248201527f416464726573733a20696e73756666696369656e742062616c616e636520666f60448201527f722063616c6c000000000000000000000000000000000000000000000000000060648201526084016107e3565b73ffffffffffffffffffffffffffffffffffffffff85163b61370b576040517f08c379a000000000000000000000000000000000000000000000000000000000815260206004820152601d60248201527f416464726573733a2063616c6c20746f206e6f6e2d636f6e747261637400000060448201526064016107e3565b6000808673ffffffffffffffffffffffffffffffffffffffff1685876040516137349190613f61565b60006040518083038185875af1925050503d8060008114613771576040519150601f19603f3d011682016040523d82523d6000602084013e613776565b606091505b5091509150613786828286613791565b979650505050505050565b606083156137a05750816120ff565b8251156137b05782518084602001fd5b816040517f08c379a00000000000000000000000000000000000000000000000000000000081526004016107e39190613eac565b6000602082840312156137f657600080fd5b81357fffffffff00000000000000000000000000000000000000000000000000000000811681146120ff57600080fd5b60006020828403121561383857600080fd5b5035919050565b73ffffffffffffffffffffffffffffffffffffffff811681146119eb57600080fd5b60006020828403121561387357600080fd5b81356120ff8161383f565b600081518084526020808501945080840160005b838110156138ae57815187529582019590820190600101613892565b509495945050505050565b6040808252835182820181905260009190606090818501906020808901865b8381101561391a578151805186528381015184870152878101518887015286810151878701526080908101519086015260a090940193908201906001016138d8565b50508683039087015250613786818761387e565b6000806040838503121561394157600080fd5b50508035926020909101359150565b6000806040838503121561396357600080fd5b8235915060208301356139758161383f565b809150509250929050565b6000806040838503121561399357600080fd5b823561399e8161383f565b915060208301356139758161383f565b600080604083850312156139c157600080fd5b82356139cc8161383f565b946020939093013593505050565b6000602082840312156139ec57600080fd5b81516120ff8161383f565b7f4e487b7100000000000000000000000000000000000000000000000000000000600052601160045260246000fd5b60008219821115613a3957613a396139f7565b500190565b600060208284031215613a5057600080fd5b5051919050565b600082821015613a6957613a696139f7565b500390565b600060208284031215613a8057600080fd5b815160ff811681146120ff57600080fd5b600181815b80851115613aea57817fffffffffffffffffffffffffffffffffffffffffffffffffffffffffffffffff04821115613ad057613ad06139f7565b80851615613add57918102915b93841c9390800290613a96565b509250929050565b600082613b0157506001610774565b81613b0e57506000610774565b8160018114613b245760028114613b2e57613b4a565b6001915050610774565b60ff841115613b3f57613b3f6139f7565b50506001821b610774565b5060208310610133831016604e8410600b8410161715613b6d575081810a610774565b613b778383613a91565b807fffffffffffffffffffffffffffffffffffffffffffffffffffffffffffffffff04821115613ba957613ba96139f7565b029392505050565b60006120ff8383613af2565b600082613bf3577f4e487b7100000000000000000000000000000000000000000000000000000000600052601260045260246000fd5b500490565b7f4e487b7100000000000000000000000000000000000000000000000000000000600052604160045260246000fd5b60006020808385031215613c3a57600080fd5b825167ffffffffffffffff80821115613c5257600080fd5b818501915085601f830112613c6657600080fd5b815181811115613c7857613c78613bf8565b8060051b6040517fffffffffffffffffffffffffffffffffffffffffffffffffffffffffffffffe0603f83011681018181108582111715613cbb57613cbb613bf8565b604052918252848201925083810185019188831115613cd957600080fd5b938501935b82851015613cf757845184529385019392850192613cde565b98975050505050505050565b7f4e487b7100000000000000000000000000000000000000000000000000000000600052603260045260246000fd5b60007fffffffffffffffffffffffffffffffffffffffffffffffffffffffffffffffff8203613d6357613d636139f7565b5060010190565b6000817fffffffffffffffffffffffffffffffffffffffffffffffffffffffffffffffff0483118215151615613da257613da26139f7565b500290565b600060ff821660ff841680821015613dc157613dc16139f7565b90039392505050565b60006120ff60ff841683613af2565b600060208284031215613deb57600080fd5b815180151581146120ff57600080fd5b60005b83811015613e16578181015183820152602001613dfe565b83811115613e25576000848401525b50505050565b7f416363657373436f6e74726f6c3a206163636f756e7420000000000000000000815260008351613e63816017850160208801613dfb565b7f206973206d697373696e6720726f6c65200000000000000000000000000000006017918401918201528351613ea0816028840160208801613dfb565b01602801949350505050565b6020815260008251806020840152613ecb816040850160208701613dfb565b601f017fffffffffffffffffffffffffffffffffffffffffffffffffffffffffffffffe0169190910160400192915050565b600081613f0c57613f0c6139f7565b507fffffffffffffffffffffffffffffffffffffffffffffffffffffffffffffffff0190565b7f4e487b7100000000000000000000000000000000000000000000000000000000600052603160045260246000fd5b60008251613f73818460208701613dfb565b919091019291505056fea26469706673582212209137345b9e3cbe309663086312a45f990427a37d18b2aede6b82f8f518183fab64736f6c634300080d0033",
  "linkReferences": {},
  "deployedLinkReferences": {}
}