{
  "_format": "hh-sol-artifact-1",
  "contractName": "DeiBonds",
  "sourceName": "contracts/DeiBonds.sol",
  "abi": [
    {
      "inputs": [
        {
          "internalType": "address",
          "name": "admin",
          "type": "address"
        },
        {
          "internalType": "address",
          "name": "trusty",
          "type": "address"
        },
        {
          "internalType": "address",
          "name": "deus_",
          "type": "address"
        },
        {
          "internalType": "address",
          "name": "exitToken_",
          "type": "address"
        },
        {
          "internalType": "address",
          "name": "entryToken_",
          "type": "address"
        },
        {
          "internalType": "address",
          "name": "nft_",
          "type": "address"
        },
        {
          "internalType": "address",
          "name": "apyCalculator_",
          "type": "address"
        },
        {
          "internalType": "address",
          "name": "preMaturityExitCalculator_",
          "type": "address"
        },
        {
          "internalType": "address",
          "name": "oracle_",
          "type": "address"
        },
        {
          "internalType": "uint256",
          "name": "capacity_",
          "type": "uint256"
        }
      ],
      "stateMutability": "nonpayable",
      "type": "constructor"
    },
    {
      "anonymous": false,
      "inputs": [
        {
          "indexed": false,
          "internalType": "uint256",
          "name": "bondId",
          "type": "uint256"
        }
      ],
      "name": "BuyBond",
      "type": "event"
    },
    {
      "anonymous": false,
      "inputs": [
        {
          "indexed": false,
          "internalType": "uint256",
          "name": "bondId",
          "type": "uint256"
        },
        {
          "indexed": false,
          "internalType": "uint256",
          "name": "claimAmount",
          "type": "uint256"
        }
      ],
      "name": "Claim",
      "type": "event"
    },
    {
      "anonymous": false,
      "inputs": [
        {
          "indexed": false,
          "internalType": "uint256",
          "name": "bondId",
          "type": "uint256"
        }
      ],
      "name": "MaturityExitBond",
      "type": "event"
    },
    {
      "anonymous": false,
      "inputs": [
        {
          "indexed": false,
          "internalType": "address",
          "name": "account",
          "type": "address"
        }
      ],
      "name": "Paused",
      "type": "event"
    },
    {
      "anonymous": false,
      "inputs": [
        {
          "indexed": false,
          "internalType": "uint256",
          "name": "bondId",
          "type": "uint256"
        }
      ],
      "name": "PrematureWithdraw",
      "type": "event"
    },
    {
      "anonymous": false,
      "inputs": [
        {
          "indexed": true,
          "internalType": "bytes32",
          "name": "role",
          "type": "bytes32"
        },
        {
          "indexed": true,
          "internalType": "bytes32",
          "name": "previousAdminRole",
          "type": "bytes32"
        },
        {
          "indexed": true,
          "internalType": "bytes32",
          "name": "newAdminRole",
          "type": "bytes32"
        }
      ],
      "name": "RoleAdminChanged",
      "type": "event"
    },
    {
      "anonymous": false,
      "inputs": [
        {
          "indexed": true,
          "internalType": "bytes32",
          "name": "role",
          "type": "bytes32"
        },
        {
          "indexed": true,
          "internalType": "address",
          "name": "account",
          "type": "address"
        },
        {
          "indexed": true,
          "internalType": "address",
          "name": "sender",
          "type": "address"
        }
      ],
      "name": "RoleGranted",
      "type": "event"
    },
    {
      "anonymous": false,
      "inputs": [
        {
          "indexed": true,
          "internalType": "bytes32",
          "name": "role",
          "type": "bytes32"
        },
        {
          "indexed": true,
          "internalType": "address",
          "name": "account",
          "type": "address"
        },
        {
          "indexed": true,
          "internalType": "address",
          "name": "sender",
          "type": "address"
        }
      ],
      "name": "RoleRevoked",
      "type": "event"
    },
    {
      "anonymous": false,
      "inputs": [
        {
          "indexed": false,
          "internalType": "address",
          "name": "oldValue",
          "type": "address"
        },
        {
          "indexed": false,
          "internalType": "address",
          "name": "newValue",
          "type": "address"
        }
      ],
      "name": "SetApyCalculator",
      "type": "event"
    },
    {
      "anonymous": false,
      "inputs": [
        {
          "indexed": false,
          "internalType": "uint256",
          "name": "oldValue",
          "type": "uint256"
        },
        {
          "indexed": false,
          "internalType": "uint256",
          "name": "newValue",
          "type": "uint256"
        }
      ],
      "name": "SetCap",
      "type": "event"
    },
    {
      "anonymous": false,
      "inputs": [
        {
          "indexed": false,
          "internalType": "uint256",
          "name": "oldValue",
          "type": "uint256"
        },
        {
          "indexed": false,
          "internalType": "uint256",
          "name": "newValue",
          "type": "uint256"
        }
      ],
      "name": "SetClaimInterval",
      "type": "event"
    },
    {
      "anonymous": false,
      "inputs": [
        {
          "indexed": false,
          "internalType": "address",
          "name": "oldValue",
          "type": "address"
        },
        {
          "indexed": false,
          "internalType": "address",
          "name": "newValue",
          "type": "address"
        }
      ],
      "name": "SetNft",
      "type": "event"
    },
    {
      "anonymous": false,
      "inputs": [
        {
          "indexed": false,
          "internalType": "address",
          "name": "oldValue",
          "type": "address"
        },
        {
          "indexed": false,
          "internalType": "address",
          "name": "newValue",
          "type": "address"
        }
      ],
      "name": "SetOracle",
      "type": "event"
    },
    {
      "anonymous": false,
      "inputs": [
        {
          "indexed": false,
          "internalType": "address",
          "name": "oldValue",
          "type": "address"
        },
        {
          "indexed": false,
          "internalType": "address",
          "name": "newValue",
          "type": "address"
        }
      ],
      "name": "SetPreMaturityExitCalculator",
      "type": "event"
    },
    {
      "anonymous": false,
      "inputs": [
        {
          "indexed": false,
          "internalType": "uint256",
          "name": "oldValue",
          "type": "uint256"
        },
        {
          "indexed": false,
          "internalType": "uint256",
          "name": "newValue",
          "type": "uint256"
        }
      ],
      "name": "SetSoldBond",
      "type": "event"
    },
    {
      "anonymous": false,
      "inputs": [
        {
          "indexed": false,
          "internalType": "address",
          "name": "account",
          "type": "address"
        }
      ],
      "name": "Unpaused",
      "type": "event"
    },
    {
      "inputs": [],
      "name": "DEFAULT_ADMIN_ROLE",
      "outputs": [
        {
          "internalType": "bytes32",
          "name": "",
          "type": "bytes32"
        }
      ],
      "stateMutability": "view",
      "type": "function"
    },
    {
      "inputs": [],
      "name": "PAUSER_ROLE",
      "outputs": [
        {
          "internalType": "bytes32",
          "name": "",
          "type": "bytes32"
        }
      ],
      "stateMutability": "view",
      "type": "function"
    },
    {
      "inputs": [],
      "name": "TRUSTY_ROLE",
      "outputs": [
        {
          "internalType": "bytes32",
          "name": "",
          "type": "bytes32"
        }
      ],
      "stateMutability": "view",
      "type": "function"
    },
    {
      "inputs": [
        {
          "internalType": "address",
          "name": "token",
          "type": "address"
        },
        {
          "internalType": "address",
          "name": "to",
          "type": "address"
        }
      ],
      "name": "approve",
      "outputs": [],
      "stateMutability": "nonpayable",
      "type": "function"
    },
    {
      "inputs": [],
      "name": "apyCalculator",
      "outputs": [
        {
          "internalType": "address",
          "name": "",
          "type": "address"
        }
      ],
      "stateMutability": "view",
      "type": "function"
    },
    {
      "inputs": [
        {
          "internalType": "uint256",
          "name": "",
          "type": "uint256"
        }
      ],
      "name": "bonds",
      "outputs": [
        {
          "internalType": "uint256",
          "name": "amount",
          "type": "uint256"
        },
        {
          "internalType": "uint256",
          "name": "apy",
          "type": "uint256"
        },
        {
          "internalType": "uint256",
          "name": "duration",
          "type": "uint256"
        },
        {
          "internalType": "uint256",
          "name": "startTime",
          "type": "uint256"
        },
        {
          "internalType": "uint256",
          "name": "lastClaimTimestamp",
          "type": "uint256"
        }
      ],
      "stateMutability": "view",
      "type": "function"
    },
    {
      "inputs": [
        {
          "internalType": "address",
          "name": "user",
          "type": "address"
        }
      ],
      "name": "bondsOfOwner",
      "outputs": [
        {
          "components": [
            {
              "internalType": "uint256",
              "name": "amount",
              "type": "uint256"
            },
            {
              "internalType": "uint256",
              "name": "apy",
              "type": "uint256"
            },
            {
              "internalType": "uint256",
              "name": "duration",
              "type": "uint256"
            },
            {
              "internalType": "uint256",
              "name": "startTime",
              "type": "uint256"
            },
            {
              "internalType": "uint256",
              "name": "lastClaimTimestamp",
              "type": "uint256"
            }
          ],
          "internalType": "struct IDeiBonds.Bond[]",
          "name": "",
          "type": "tuple[]"
        },
        {
          "internalType": "uint256[]",
          "name": "",
          "type": "uint256[]"
        }
      ],
      "stateMutability": "view",
      "type": "function"
    },
    {
      "inputs": [
        {
          "internalType": "uint256",
          "name": "amount",
          "type": "uint256"
        },
        {
          "internalType": "uint256",
          "name": "minApy",
          "type": "uint256"
        }
      ],
      "name": "buyBond",
      "outputs": [],
      "stateMutability": "nonpayable",
      "type": "function"
    },
    {
      "inputs": [],
      "name": "capacity",
      "outputs": [
        {
          "internalType": "uint256",
          "name": "",
          "type": "uint256"
        }
      ],
      "stateMutability": "view",
      "type": "function"
    },
    {
      "inputs": [
        {
          "internalType": "uint256",
          "name": "bondId",
          "type": "uint256"
        }
      ],
      "name": "claim",
      "outputs": [],
      "stateMutability": "nonpayable",
      "type": "function"
    },
    {
      "inputs": [],
      "name": "claimInterval",
      "outputs": [
        {
          "internalType": "uint256",
          "name": "",
          "type": "uint256"
        }
      ],
      "stateMutability": "view",
      "type": "function"
    },
    {
      "inputs": [
        {
          "internalType": "uint256",
          "name": "bondId",
          "type": "uint256"
        },
        {
          "internalType": "uint256",
          "name": "deusPrice",
          "type": "uint256"
        }
      ],
      "name": "claimableDeus",
      "outputs": [
        {
          "internalType": "uint256",
          "name": "deusAmount",
          "type": "uint256"
        }
      ],
      "stateMutability": "view",
      "type": "function"
    },
    {
      "inputs": [],
      "name": "deus",
      "outputs": [
        {
          "internalType": "address",
          "name": "",
          "type": "address"
        }
      ],
      "stateMutability": "view",
      "type": "function"
    },
    {
      "inputs": [],
      "name": "entryToken",
      "outputs": [
        {
          "internalType": "address",
          "name": "",
          "type": "address"
        }
      ],
      "stateMutability": "view",
      "type": "function"
    },
    {
      "inputs": [],
      "name": "exitToken",
      "outputs": [
        {
          "internalType": "address",
          "name": "",
          "type": "address"
        }
      ],
      "stateMutability": "view",
      "type": "function"
    },
    {
      "inputs": [],
      "name": "getApy",
      "outputs": [
        {
          "internalType": "uint256",
          "name": "apyValue",
          "type": "uint256"
        }
      ],
      "stateMutability": "view",
      "type": "function"
    },
    {
      "inputs": [
        {
          "internalType": "bytes32",
          "name": "role",
          "type": "bytes32"
        }
      ],
      "name": "getRoleAdmin",
      "outputs": [
        {
          "internalType": "bytes32",
          "name": "",
          "type": "bytes32"
        }
      ],
      "stateMutability": "view",
      "type": "function"
    },
    {
      "inputs": [
        {
          "internalType": "bytes32",
          "name": "role",
          "type": "bytes32"
        },
        {
          "internalType": "uint256",
          "name": "index",
          "type": "uint256"
        }
      ],
      "name": "getRoleMember",
      "outputs": [
        {
          "internalType": "address",
          "name": "",
          "type": "address"
        }
      ],
      "stateMutability": "view",
      "type": "function"
    },
    {
      "inputs": [
        {
          "internalType": "bytes32",
          "name": "role",
          "type": "bytes32"
        }
      ],
      "name": "getRoleMemberCount",
      "outputs": [
        {
          "internalType": "uint256",
          "name": "",
          "type": "uint256"
        }
      ],
      "stateMutability": "view",
      "type": "function"
    },
    {
      "inputs": [
        {
          "internalType": "bytes32",
          "name": "role",
          "type": "bytes32"
        },
        {
          "internalType": "address",
          "name": "account",
          "type": "address"
        }
      ],
      "name": "grantRole",
      "outputs": [],
      "stateMutability": "nonpayable",
      "type": "function"
    },
    {
      "inputs": [
        {
          "internalType": "bytes32",
          "name": "role",
          "type": "bytes32"
        },
        {
          "internalType": "address",
          "name": "account",
          "type": "address"
        }
      ],
      "name": "hasRole",
      "outputs": [
        {
          "internalType": "bool",
          "name": "",
          "type": "bool"
        }
      ],
      "stateMutability": "view",
      "type": "function"
    },
    {
      "inputs": [
        {
          "internalType": "uint256",
          "name": "bondId",
          "type": "uint256"
        }
      ],
      "name": "maturityExit",
      "outputs": [],
      "stateMutability": "nonpayable",
      "type": "function"
    },
    {
      "inputs": [],
      "name": "nft",
      "outputs": [
        {
          "internalType": "address",
          "name": "",
          "type": "address"
        }
      ],
      "stateMutability": "view",
      "type": "function"
    },
    {
      "inputs": [],
      "name": "oracle",
      "outputs": [
        {
          "internalType": "address",
          "name": "",
          "type": "address"
        }
      ],
      "stateMutability": "view",
      "type": "function"
    },
    {
      "inputs": [],
      "name": "pause",
      "outputs": [],
      "stateMutability": "nonpayable",
      "type": "function"
    },
    {
      "inputs": [],
      "name": "paused",
      "outputs": [
        {
          "internalType": "bool",
          "name": "",
          "type": "bool"
        }
      ],
      "stateMutability": "view",
      "type": "function"
    },
    {
      "inputs": [],
      "name": "preMaturityExitCalculator",
      "outputs": [
        {
          "internalType": "address",
          "name": "",
          "type": "address"
        }
      ],
      "stateMutability": "view",
      "type": "function"
    },
    {
      "inputs": [
        {
          "internalType": "uint256",
          "name": "bondId",
          "type": "uint256"
        }
      ],
      "name": "prematureWithdraw",
      "outputs": [],
      "stateMutability": "nonpayable",
      "type": "function"
    },
    {
      "inputs": [
        {
          "internalType": "bytes32",
          "name": "role",
          "type": "bytes32"
        },
        {
          "internalType": "address",
          "name": "account",
          "type": "address"
        }
      ],
      "name": "renounceRole",
      "outputs": [],
      "stateMutability": "nonpayable",
      "type": "function"
    },
    {
      "inputs": [
        {
          "internalType": "bytes32",
          "name": "role",
          "type": "bytes32"
        },
        {
          "internalType": "address",
          "name": "account",
          "type": "address"
        }
      ],
      "name": "revokeRole",
      "outputs": [],
      "stateMutability": "nonpayable",
      "type": "function"
    },
    {
      "inputs": [
        {
          "internalType": "address",
          "name": "apyCalculator_",
          "type": "address"
        }
      ],
      "name": "setApyCalculator",
      "outputs": [],
      "stateMutability": "nonpayable",
      "type": "function"
    },
    {
      "inputs": [
        {
          "internalType": "uint256",
          "name": "cap",
          "type": "uint256"
        }
      ],
      "name": "setCap",
      "outputs": [],
      "stateMutability": "nonpayable",
      "type": "function"
    },
    {
      "inputs": [
        {
          "internalType": "uint256",
          "name": "claimInterval_",
          "type": "uint256"
        }
      ],
      "name": "setClaimInterval",
      "outputs": [],
      "stateMutability": "nonpayable",
      "type": "function"
    },
    {
      "inputs": [
        {
          "internalType": "address",
          "name": "nft_",
          "type": "address"
        }
      ],
      "name": "setNFT",
      "outputs": [],
      "stateMutability": "nonpayable",
      "type": "function"
    },
    {
      "inputs": [
        {
          "internalType": "address",
          "name": "oracle_",
          "type": "address"
        }
      ],
      "name": "setOracle",
      "outputs": [],
      "stateMutability": "nonpayable",
      "type": "function"
    },
    {
      "inputs": [
        {
          "internalType": "address",
          "name": "preMaturityExitCalculator_",
          "type": "address"
        }
      ],
      "name": "setPreMaturityExitCalculator",
      "outputs": [],
      "stateMutability": "nonpayable",
      "type": "function"
    },
    {
      "inputs": [
        {
          "internalType": "uint256",
          "name": "soldBond_",
          "type": "uint256"
        }
      ],
      "name": "setSoldBond",
      "outputs": [],
      "stateMutability": "nonpayable",
      "type": "function"
    },
    {
      "inputs": [],
      "name": "soldBond",
      "outputs": [
        {
          "internalType": "uint256",
          "name": "",
          "type": "uint256"
        }
      ],
      "stateMutability": "view",
      "type": "function"
    },
    {
      "inputs": [
        {
          "internalType": "bytes4",
          "name": "interfaceId",
          "type": "bytes4"
        }
      ],
      "name": "supportsInterface",
      "outputs": [
        {
          "internalType": "bool",
          "name": "",
          "type": "bool"
        }
      ],
      "stateMutability": "view",
      "type": "function"
    },
    {
      "inputs": [],
      "name": "unpause",
      "outputs": [],
      "stateMutability": "nonpayable",
      "type": "function"
    },
    {
      "inputs": [
        {
          "internalType": "address",
          "name": "token",
          "type": "address"
        },
        {
          "internalType": "uint256",
          "name": "amount",
          "type": "uint256"
        }
      ],
      "name": "withdrawERC20",
      "outputs": [],
      "stateMutability": "nonpayable",
      "type": "function"
    },
    {
      "inputs": [
        {
          "internalType": "uint256",
          "name": "amount",
          "type": "uint256"
        }
      ],
      "name": "withdrawETH",
      "outputs": [],
      "stateMutability": "nonpayable",
      "type": "function"
    }
  ],
  "bytecode": "0x608060405261a8c0600d553480156200001757600080fd5b506040516200435e3803806200435e8339810160408190526200003a9162000283565b6002805460ff19169055600480546001600160a01b03199081166001600160a01b038b8116919091179092556005805482168a8416179055600680548216898416179055600780548216888416179055600980548216878416179055600a805480841690831617905560088054909116918416919091179055600b819055620000c560008b62000101565b620000f17f0db189261133fd7647d3308512b693b47bed44004cac80fb59aa64b63a231e2c8a62000101565b5050505050505050505062000349565b6200010d828262000111565b5050565b6200012882826200015460201b620029ce1760201c565b60008281526001602090815260409091206200014f91839062002abe620001f4821b17901c565b505050565b6000828152602081815260408083206001600160a01b038516845290915290205460ff166200010d576000828152602081815260408083206001600160a01b03851684529091529020805460ff19166001179055620001b03390565b6001600160a01b0316816001600160a01b0316837f2f8788117e7eff1d82e926ec794901d17c78024a50270940304540a733656f0d60405160405180910390a45050565b60006200020b836001600160a01b03841662000214565b90505b92915050565b60008181526001830160205260408120546200025d575081546001818101845560008481526020808220909301849055845484825282860190935260409020919091556200020e565b5060006200020e565b80516001600160a01b03811681146200027e57600080fd5b919050565b6000806000806000806000806000806101408b8d031215620002a457600080fd5b620002af8b62000266565b9950620002bf60208c0162000266565b9850620002cf60408c0162000266565b9750620002df60608c0162000266565b9650620002ef60808c0162000266565b9550620002ff60a08c0162000266565b94506200030f60c08c0162000266565b93506200031f60e08c0162000266565b9250620003306101008c0162000266565b91506101208b015190509295989b9194979a5092959850565b61400580620003596000396000f3fe608060405234801561001057600080fd5b50600436106102de5760003560e01c80636c73dd69116101865780639ca5814d116100e3578063d547741f11610097578063f14210a611610071578063f14210a6146106e5578063f2d57adf146106f8578063f56e9c661461070b57600080fd5b8063d547741f14610698578063dfccc67e146106ab578063e63ab1e9146106be57600080fd5b8063a217fddf116100c8578063a217fddf1461066a578063c2ca269a14610672578063ca15c8731461068557600080fd5b80639ca5814d14610644578063a1db97821461065757600080fd5b80637e5465ba1161013a5780639010d07c1161011f5780639010d07c146105e4578063911920c9146105f757806391d148541461060057600080fd5b80637e5465ba146105c95780638456cb59146105dc57600080fd5b80637adbf9731161016b5780637adbf973146105765780637c63362b146105895780637dc0d1d0146105a957600080fd5b80636c73dd69146105435780636e50fc461461055657600080fd5b806334ddb95d1161023f57806347786d37116101f35780635c975abb116101cd5780635c975abb146104c95780635cfc1a51146104d45780635f1c17c0146104dd57600080fd5b806347786d371461047657806347ccca02146104895780634bc537a8146104a957600080fd5b8063379607f511610224578063379607f51461044857806338ea0d711461045b5780633f4ba83a1461046e57600080fd5b806334ddb95d1461040e57806336568abe1461043557600080fd5b8063119d461411610296578063248a9ca31161027b578063248a9ca3146103c55780632aee25d3146103e85780632f2ff15d146103fb57600080fd5b8063119d46141461039d5780631fb922e0146103bd57600080fd5b806307406265116102c757806307406265146103505780630b433a12146103655780630f705cbf1461037c57600080fd5b806301ffc9a7146102e3578063035ea1f71461030b575b600080fd5b6102f66102f1366004613836565b61071e565b60405190151581526020015b60405180910390f35b600a5461032b9073ffffffffffffffffffffffffffffffffffffffff1681565b60405173ffffffffffffffffffffffffffffffffffffffff9091168152602001610302565b61036361035e366004613878565b61077a565b005b61036e600d5481565b604051908152602001610302565b61038f61038a3660046138b3565b611059565b60405161030292919061390b565b60095461032b9073ffffffffffffffffffffffffffffffffffffffff1681565b61036e611312565b61036e6103d3366004613878565b60009081526020819052604090206001015490565b61036e6103f6366004613980565b6113ab565b6103636104093660046139a2565b611593565b61036e7f0db189261133fd7647d3308512b693b47bed44004cac80fb59aa64b63a231e2c81565b6103636104433660046139a2565b6115bd565b610363610456366004613878565b611670565b610363610469366004613878565b611aad565b610363611b19565b610363610484366004613878565b611b4e565b60075461032b9073ffffffffffffffffffffffffffffffffffffffff1681565b60045461032b9073ffffffffffffffffffffffffffffffffffffffff1681565b60025460ff166102f6565b61036e600b5481565b61051b6104eb366004613878565b60036020819052600091825260409091208054600182015460028301549383015460049093015491939092909185565b604080519586526020860194909452928401919091526060830152608082015260a001610302565b610363610551366004613878565b611bba565b60065461032b9073ffffffffffffffffffffffffffffffffffffffff1681565b6103636105843660046138b3565b61204e565b60055461032b9073ffffffffffffffffffffffffffffffffffffffff1681565b60085461032b9073ffffffffffffffffffffffffffffffffffffffff1681565b6103636105d73660046139d2565b612114565b61036361217f565b61032b6105f2366004613980565b6121b1565b61036e600c5481565b6102f661060e3660046139a2565b60009182526020828152604080842073ffffffffffffffffffffffffffffffffffffffff93909316845291905290205460ff1690565b6103636106523660046138b3565b6121d0565b610363610665366004613a00565b612296565b61036e600081565b610363610680366004613980565b6122e1565b61036e610693366004613878565b612743565b6103636106a63660046139a2565b61275a565b6103636106b93660046138b3565b61277f565b61036e7f65d7a28e3265b37a6474929f336521b332c1681b933f6cb9f3376673440d862a81565b6103636106f3366004613878565b612845565b610363610706366004613878565b61289c565b6103636107193660046138b3565b612908565b60007fffffffff0000000000000000000000000000000000000000000000000000000082167f5a05180f000000000000000000000000000000000000000000000000000000001480610774575061077482612ae0565b92915050565b60025460ff16156107ec576040517f08c379a000000000000000000000000000000000000000000000000000000000815260206004820152601060248201527f5061757361626c653a207061757365640000000000000000000000000000000060448201526064015b60405180910390fd5b6007546040517f6352211e0000000000000000000000000000000000000000000000000000000081526004810183905260009173ffffffffffffffffffffffffffffffffffffffff1690636352211e90602401602060405180830381865afa15801561085c573d6000803e3d6000fd5b505050506040513d601f19601f820116820180604052508101906108809190613a2c565b905073ffffffffffffffffffffffffffffffffffffffff81163314610927576040517f08c379a000000000000000000000000000000000000000000000000000000000815260206004820152602160248201527f446569426f6e643a2053454e444552204953204e4f5420424f4e44204f574e4560448201527f520000000000000000000000000000000000000000000000000000000000000060648201526084016107e3565b6007546040517f4c0610ab00000000000000000000000000000000000000000000000000000000815260048101849052309173ffffffffffffffffffffffffffffffffffffffff1690634c0610ab90602401602060405180830381865afa158015610996573d6000803e3d6000fd5b505050506040513d601f19601f820116820180604052508101906109ba9190613a2c565b73ffffffffffffffffffffffffffffffffffffffff1614610a37576040517f08c379a000000000000000000000000000000000000000000000000000000000815260206004820152601a60248201527f446569426f6e643a204e4654204e4f5420535550504f5254454400000000000060448201526064016107e3565b600082815260036020818152604092839020835160a08101855281548152600182015492810192909252600281015493820184905291820154606082018190526004909201546080820152914291610a8e91613a78565b10610af5576040517f08c379a000000000000000000000000000000000000000000000000000000000815260206004820152601c60248201527f446569426f6e643a20424f4e44204953204e4f5420455850495245440000000060448201526064016107e3565b600854604080517f98d5fdca000000000000000000000000000000000000000000000000000000008152905160009273ffffffffffffffffffffffffffffffffffffffff16916398d5fdca9160048083019260209291908290030181865afa158015610b65573d6000803e3d6000fd5b505050506040513d601f19601f82011682018060405250810190610b899190613a90565b90506000610b9785836113ab565b90508015610c01576040517f08c379a000000000000000000000000000000000000000000000000000000000815260206004820152601a60248201527f446569426f6e643a20444944204e4f5420434c41494d2059455400000000000060448201526064016107e3565b8251600c8054829190600090610c18908490613aa9565b9091555050600086815260036020908152604080832083905560055481517f313ce567000000000000000000000000000000000000000000000000000000008152915173ffffffffffffffffffffffffffffffffffffffff9091169263313ce56792600480820193918290030181865afa158015610c9a573d6000803e3d6000fd5b505050506040513d601f19601f82011682018060405250810190610cbe9190613ac0565b60ff16600660009054906101000a900473ffffffffffffffffffffffffffffffffffffffff1673ffffffffffffffffffffffffffffffffffffffff1663313ce5676040518163ffffffff1660e01b8152600401602060405180830381865afa158015610d2e573d6000803e3d6000fd5b505050506040513d601f19601f82011682018060405250810190610d529190613ac0565b60ff161015610eac57600654604080517f313ce567000000000000000000000000000000000000000000000000000000008152905160009273ffffffffffffffffffffffffffffffffffffffff169163313ce5679160048083019260209291908290030181865afa158015610dcb573d6000803e3d6000fd5b505050506040513d601f19601f82011682018060405250810190610def9190613ac0565b600560009054906101000a900473ffffffffffffffffffffffffffffffffffffffff1673ffffffffffffffffffffffffffffffffffffffff1663313ce5676040518163ffffffff1660e01b8152600401602060405180830381865afa158015610e5c573d6000803e3d6000fd5b505050506040513d601f19601f82011682018060405250810190610e809190613ac0565b610e8a9190613ae3565b60ff169050610e9a81600a613c26565b610ea49084613c32565b915050610ff9565b600554604080517f313ce567000000000000000000000000000000000000000000000000000000008152905160009273ffffffffffffffffffffffffffffffffffffffff169163313ce5679160048083019260209291908290030181865afa158015610f1c573d6000803e3d6000fd5b505050506040513d601f19601f82011682018060405250810190610f409190613ac0565b600660009054906101000a900473ffffffffffffffffffffffffffffffffffffffff1673ffffffffffffffffffffffffffffffffffffffff1663313ce5676040518163ffffffff1660e01b8152600401602060405180830381865afa158015610fad573d6000803e3d6000fd5b505050506040513d601f19601f82011682018060405250810190610fd19190613ac0565b610fdb9190613ae3565b60ff169050610feb81600a613c26565b610ff59084613c6f565b9150505b60055461101d9073ffffffffffffffffffffffffffffffffffffffff163383612b77565b6040518781527fb1a7e5897be2dc8c8790ec756ed0cf34d7f3d5518bfecd181b455550a25029f39060200160405180910390a150505050505050565b6007546040517f5a3f267200000000000000000000000000000000000000000000000000000000815273ffffffffffffffffffffffffffffffffffffffff8381166004830152606092839260009290911690635a3f267290602401600060405180830381865afa1580156110d1573d6000803e3d6000fd5b505050506040513d6000823e601f3d9081017fffffffffffffffffffffffffffffffffffffffffffffffffffffffffffffffe01682016040526111179190810190613cd9565b90506000815167ffffffffffffffff81111561113557611135613caa565b60405190808252806020026020018201604052801561119857816020015b6111856040518060a0016040528060008152602001600081526020016000815260200160008152602001600081525090565b8152602001906001900390816111535790505b5090506000805b8351811015611305576007548451309173ffffffffffffffffffffffffffffffffffffffff1690634c0610ab908790859081106111de576111de613db5565b60200260200101516040518263ffffffff1660e01b815260040161120491815260200190565b602060405180830381865afa158015611221573d6000803e3d6000fd5b505050506040513d601f19601f820116820180604052508101906112459190613a2c565b73ffffffffffffffffffffffffffffffffffffffff16036112f3576003600085838151811061127657611276613db5565b602002602001015181526020019081526020016000206040518060a0016040529081600082015481526020016001820154815260200160028201548152602001600382015481526020016004820154815250508383806112d590613de4565b9450815181106112e7576112e7613db5565b60200260200101819052505b806112fd81613de4565b91505061119f565b5090959194509092505050565b600954604080517f1fb922e0000000000000000000000000000000000000000000000000000000008152905160009273ffffffffffffffffffffffffffffffffffffffff1691631fb922e09160048083019260209291908290030181865afa158015611382573d6000803e3d6000fd5b505050506040513d601f19601f820116820180604052508101906113a69190613a90565b905090565b6000828152600360208181526040808420815160a081018352815481526001820154938101939093526002810154918301829052928301546060830181905260049093015460808301529091839182916114059190613a78565b9050804211156114175780915061141b565b4291505b6000600d54846060015185608001516114349190613aa9565b61143e9190613c6f565b600d5460608601516114509086613aa9565b61145a9190613c6f565b6114649190613aa9565b90506000600d54856040015161147a9190613c6f565b9050600061149082670de0b6b3a7640000613c32565b602087015187516114a2908690613c32565b6114ac9190613c32565b6114b69190613c6f565b905087600660009054906101000a900473ffffffffffffffffffffffffffffffffffffffff1673ffffffffffffffffffffffffffffffffffffffff1663313ce5676040518163ffffffff1660e01b8152600401602060405180830381865afa158015611526573d6000803e3d6000fd5b505050506040513d601f19601f8201168201806040525081019061154a9190613ac0565b611555906012613ae3565b61156090600a613e1c565b61156a9083613c32565b61157c90670de0b6b3a7640000613c32565b6115869190613c6f565b9998505050505050505050565b6000828152602081905260409020600101546115ae81612c4b565b6115b88383612c55565b505050565b73ffffffffffffffffffffffffffffffffffffffff81163314611662576040517f08c379a000000000000000000000000000000000000000000000000000000000815260206004820152602f60248201527f416363657373436f6e74726f6c3a2063616e206f6e6c792072656e6f756e636560448201527f20726f6c657320666f722073656c66000000000000000000000000000000000060648201526084016107e3565b61166c8282612c77565b5050565b60025460ff16156116dd576040517f08c379a000000000000000000000000000000000000000000000000000000000815260206004820152601060248201527f5061757361626c653a207061757365640000000000000000000000000000000060448201526064016107e3565b6007546040517f6352211e0000000000000000000000000000000000000000000000000000000081526004810183905260009173ffffffffffffffffffffffffffffffffffffffff1690636352211e90602401602060405180830381865afa15801561174d573d6000803e3d6000fd5b505050506040513d601f19601f820116820180604052508101906117719190613a2c565b905073ffffffffffffffffffffffffffffffffffffffff81163314611818576040517f08c379a000000000000000000000000000000000000000000000000000000000815260206004820152602160248201527f446569426f6e643a2053454e444552204953204e4f5420424f4e44204f574e4560448201527f520000000000000000000000000000000000000000000000000000000000000060648201526084016107e3565b6007546040517f4c0610ab00000000000000000000000000000000000000000000000000000000815260048101849052309173ffffffffffffffffffffffffffffffffffffffff1690634c0610ab90602401602060405180830381865afa158015611887573d6000803e3d6000fd5b505050506040513d601f19601f820116820180604052508101906118ab9190613a2c565b73ffffffffffffffffffffffffffffffffffffffff1614611928576040517f08c379a000000000000000000000000000000000000000000000000000000000815260206004820152601d60248201527f446569426f6e643a204e4654204953204e4f5420535550504f5254454400000060448201526064016107e3565b600854604080517f98d5fdca000000000000000000000000000000000000000000000000000000008152905160009273ffffffffffffffffffffffffffffffffffffffff16916398d5fdca9160048083019260209291908290030181865afa158015611998573d6000803e3d6000fd5b505050506040513d601f19601f820116820180604052508101906119bc9190613a90565b905060006119ca84836113ab565b905060008111611a36576040517f08c379a000000000000000000000000000000000000000000000000000000000815260206004820152601d60248201527f446569426f6e643a20434c41494d20414d4f554e54204953205a45524f00000060448201526064016107e3565b60008481526003602052604090204260049182015554611a6d9073ffffffffffffffffffffffffffffffffffffffff163383612b77565b60408051858152602081018390527f022e3d29644ead4083349ca84d24bcac368b2461819b70f5921fea15de4dec4d91015b60405180910390a150505050565b7f0db189261133fd7647d3308512b693b47bed44004cac80fb59aa64b63a231e2c611ad781612c4b565b600c5460408051918252602082018490527fff4bb68dc43e13871b6387180350b878fa778a446b0015c8c681a83b047ac049910160405180910390a150600c55565b7f0db189261133fd7647d3308512b693b47bed44004cac80fb59aa64b63a231e2c611b4381612c4b565b611b4b612c99565b50565b7f0db189261133fd7647d3308512b693b47bed44004cac80fb59aa64b63a231e2c611b7881612c4b565b600b5460408051918252602082018490527fdbbbb176683582b710ef3349793b8d62658724a9d9b54deccf193c4b0aa90c4c910160405180910390a150600b55565b60025460ff1615611c27576040517f08c379a000000000000000000000000000000000000000000000000000000000815260206004820152601060248201527f5061757361626c653a207061757365640000000000000000000000000000000060448201526064016107e3565b6007546040517f6352211e0000000000000000000000000000000000000000000000000000000081526004810183905260009173ffffffffffffffffffffffffffffffffffffffff1690636352211e90602401602060405180830381865afa158015611c97573d6000803e3d6000fd5b505050506040513d601f19601f82011682018060405250810190611cbb9190613a2c565b905073ffffffffffffffffffffffffffffffffffffffff81163314611d62576040517f08c379a000000000000000000000000000000000000000000000000000000000815260206004820152602160248201527f446569426f6e643a2053454e444552204953204e4f5420424f4e44204f574e4560448201527f520000000000000000000000000000000000000000000000000000000000000060648201526084016107e3565b6007546040517f4c0610ab00000000000000000000000000000000000000000000000000000000815260048101849052309173ffffffffffffffffffffffffffffffffffffffff1690634c0610ab90602401602060405180830381865afa158015611dd1573d6000803e3d6000fd5b505050506040513d601f19601f82011682018060405250810190611df59190613a2c565b73ffffffffffffffffffffffffffffffffffffffff1614611e72576040517f08c379a000000000000000000000000000000000000000000000000000000000815260206004820152601a60248201527f446569426f6e643a204e4654204e4f5420535550504f5254454400000000000060448201526064016107e3565b600082815260036020818152604092839020835160a08101855281548152600182015492810192909252600281015493820184905291820154606082018190526004909201546080820152914291611ec991613a78565b11611f30576040517f08c379a000000000000000000000000000000000000000000000000000000000815260206004820152601860248201527f446569426f6e643a20424f4e442049532045585049524544000000000000000060448201526064016107e3565b8051600c8054600090611f44908490613aa9565b9091555050600083815260036020526040808220829055600a5460075491517f2a485f340000000000000000000000000000000000000000000000000000000081526004810187905273ffffffffffffffffffffffffffffffffffffffff9283166024820152911690632a485f3490604401602060405180830381865afa158015611fd3573d6000803e3d6000fd5b505050506040513d601f19601f82011682018060405250810190611ff79190613a90565b60065490915061201e9073ffffffffffffffffffffffffffffffffffffffff163383612b77565b6040518481527f0544740a33879204c984cfc2b7950aa19795f75bc49b08146bbaad055f1342d090602001611a9f565b7f0db189261133fd7647d3308512b693b47bed44004cac80fb59aa64b63a231e2c61207881612c4b565b6008546040805173ffffffffffffffffffffffffffffffffffffffff928316815291841660208301527fb7261e9c33aa7c56209c3bf60b424a8f9551ce28876c0ab3d0c487695e943487910160405180910390a150600880547fffffffffffffffffffffffff00000000000000000000000000000000000000001673ffffffffffffffffffffffffffffffffffffffff92909216919091179055565b7f0db189261133fd7647d3308512b693b47bed44004cac80fb59aa64b63a231e2c61213e81612c4b565b6115b873ffffffffffffffffffffffffffffffffffffffff8416837fffffffffffffffffffffffffffffffffffffffffffffffffffffffffffffffff612d7a565b7f65d7a28e3265b37a6474929f336521b332c1681b933f6cb9f3376673440d862a6121a981612c4b565b611b4b612efc565b60008281526001602052604081206121c99083612fbc565b9392505050565b7f0db189261133fd7647d3308512b693b47bed44004cac80fb59aa64b63a231e2c6121fa81612c4b565b6009546040805173ffffffffffffffffffffffffffffffffffffffff928316815291841660208301527f39952e6ac34862b47935b341829699a128ff4eb186c7f46592d1b04f5b240815910160405180910390a150600980547fffffffffffffffffffffffff00000000000000000000000000000000000000001673ffffffffffffffffffffffffffffffffffffffff92909216919091179055565b7f0db189261133fd7647d3308512b693b47bed44004cac80fb59aa64b63a231e2c6122c081612c4b565b6115b873ffffffffffffffffffffffffffffffffffffffff84163384612b77565b60025460ff161561234e576040517f08c379a000000000000000000000000000000000000000000000000000000000815260206004820152601060248201527f5061757361626c653a207061757365640000000000000000000000000000000060448201526064016107e3565b600b54600c5461235e9084613a78565b11156123c6576040517f08c379a000000000000000000000000000000000000000000000000000000000815260206004820152601860248201527f446569426f6e643a205448455245204953204e4f20434150000000000000000060448201526064016107e3565b600960009054906101000a900473ffffffffffffffffffffffffffffffffffffffff1673ffffffffffffffffffffffffffffffffffffffff16631fb922e06040518163ffffffff1660e01b8152600401602060405180830381865afa158015612433573d6000803e3d6000fd5b505050506040513d601f19601f820116820180604052508101906124579190613a90565b8111156124c0576040517f08c379a000000000000000000000000000000000000000000000000000000000815260206004820152601960248201527f446569426f6e643a20494e53554646494349454e54204150590000000000000060448201526064016107e3565b6006546040517f23b872dd0000000000000000000000000000000000000000000000000000000081523360048201523060248201526044810184905273ffffffffffffffffffffffffffffffffffffffff909116906323b872dd906064016020604051808303816000875af115801561253d573d6000803e3d6000fd5b505050506040513d601f19601f820116820180604052508101906125619190613e2b565b506007546040517fee1fe2ad00000000000000000000000000000000000000000000000000000000815233600482015230602482015260009173ffffffffffffffffffffffffffffffffffffffff169063ee1fe2ad906044016020604051808303816000875af11580156125d9573d6000803e3d6000fd5b505050506040513d601f19601f820116820180604052508101906125fd9190613a90565b905060006040518060a00160405280858152602001600960009054906101000a900473ffffffffffffffffffffffffffffffffffffffff1673ffffffffffffffffffffffffffffffffffffffff16631fb922e06040518163ffffffff1660e01b8152600401602060405180830381865afa15801561267f573d6000803e3d6000fd5b505050506040513d601f19601f820116820180604052508101906126a39190613a90565b815260200162ed4e00815260200142815260200142815250905083600c60008282546126cf9190613a78565b9091555050600082815260036020818152604092839020845181559084015160018201558284015160028201556060840151918101919091556080830151600490910155517fb1aa4b8adbab5695762dfd9d53c48cf9ade864709f7b6fd3cd544f6ffbe75a8390611a9f9084815260200190565b600081815260016020526040812061077490612fc8565b60008281526020819052604090206001015461277581612c4b565b6115b88383612c77565b7f0db189261133fd7647d3308512b693b47bed44004cac80fb59aa64b63a231e2c6127a981612c4b565b600a546040805173ffffffffffffffffffffffffffffffffffffffff928316815291841660208301527fca977ebce3d61f4f0149afa8b8f09e3225d7ac0e58e60d06136366eaa00df1f3910160405180910390a150600a80547fffffffffffffffffffffffff00000000000000000000000000000000000000001673ffffffffffffffffffffffffffffffffffffffff92909216919091179055565b7f0db189261133fd7647d3308512b693b47bed44004cac80fb59aa64b63a231e2c61286f81612c4b565b604051339083156108fc029084906000818181858888f193505050501580156115b8573d6000803e3d6000fd5b7f0db189261133fd7647d3308512b693b47bed44004cac80fb59aa64b63a231e2c6128c681612c4b565b600d5460408051918252602082018490527f0d8e7a61135a0b471ca4c20f606c82e40bfdfa34727d5bb209bda99fdaf9d6c1910160405180910390a150600d55565b7f0db189261133fd7647d3308512b693b47bed44004cac80fb59aa64b63a231e2c61293281612c4b565b6007546040805173ffffffffffffffffffffffffffffffffffffffff928316815291841660208301527f18903e593d168b3b8e4aacad99d15d9bce69a044067a51b09a757f96134791aa910160405180910390a150600780547fffffffffffffffffffffffff00000000000000000000000000000000000000001673ffffffffffffffffffffffffffffffffffffffff92909216919091179055565b60008281526020818152604080832073ffffffffffffffffffffffffffffffffffffffff8516845290915290205460ff1661166c5760008281526020818152604080832073ffffffffffffffffffffffffffffffffffffffff85168452909152902080547fffffffffffffffffffffffffffffffffffffffffffffffffffffffffffffff00166001179055612a603390565b73ffffffffffffffffffffffffffffffffffffffff168173ffffffffffffffffffffffffffffffffffffffff16837f2f8788117e7eff1d82e926ec794901d17c78024a50270940304540a733656f0d60405160405180910390a45050565b60006121c98373ffffffffffffffffffffffffffffffffffffffff8416612fd2565b60007fffffffff0000000000000000000000000000000000000000000000000000000082167f7965db0b00000000000000000000000000000000000000000000000000000000148061077457507f01ffc9a7000000000000000000000000000000000000000000000000000000007fffffffff00000000000000000000000000000000000000000000000000000000831614610774565b60405173ffffffffffffffffffffffffffffffffffffffff83166024820152604481018290526115b89084907fa9059cbb00000000000000000000000000000000000000000000000000000000906064015b604080517fffffffffffffffffffffffffffffffffffffffffffffffffffffffffffffffe08184030181529190526020810180517bffffffffffffffffffffffffffffffffffffffffffffffffffffffff167fffffffff0000000000000000000000000000000000000000000000000000000090931692909217909152613021565b611b4b813361312d565b612c5f82826129ce565b60008281526001602052604090206115b89082612abe565b612c8182826131fd565b60008281526001602052604090206115b890826132b4565b60025460ff16612d05576040517f08c379a000000000000000000000000000000000000000000000000000000000815260206004820152601460248201527f5061757361626c653a206e6f742070617573656400000000000000000000000060448201526064016107e3565b600280547fffffffffffffffffffffffffffffffffffffffffffffffffffffffffffffff001690557f5db9ee0a495bf2e6ff9c91a7834c1ba4fdd244a5e8aa4e537bd38aeae4b073aa335b60405173ffffffffffffffffffffffffffffffffffffffff909116815260200160405180910390a1565b801580612e1a57506040517fdd62ed3e00000000000000000000000000000000000000000000000000000000815230600482015273ffffffffffffffffffffffffffffffffffffffff838116602483015284169063dd62ed3e90604401602060405180830381865afa158015612df4573d6000803e3d6000fd5b505050506040513d601f19601f82011682018060405250810190612e189190613a90565b155b612ea6576040517f08c379a000000000000000000000000000000000000000000000000000000000815260206004820152603660248201527f5361666545524332303a20617070726f76652066726f6d206e6f6e2d7a65726f60448201527f20746f206e6f6e2d7a65726f20616c6c6f77616e63650000000000000000000060648201526084016107e3565b60405173ffffffffffffffffffffffffffffffffffffffff83166024820152604481018290526115b89084907f095ea7b30000000000000000000000000000000000000000000000000000000090606401612bc9565b60025460ff1615612f69576040517f08c379a000000000000000000000000000000000000000000000000000000000815260206004820152601060248201527f5061757361626c653a207061757365640000000000000000000000000000000060448201526064016107e3565b600280547fffffffffffffffffffffffffffffffffffffffffffffffffffffffffffffff001660011790557f62e78cea01bee320cd4e420270b5ea74000d11b0c9f74754ebdbfc544b05a258612d503390565b60006121c983836132d6565b6000610774825490565b600081815260018301602052604081205461301957508154600181810184556000848152602080822090930184905584548482528286019093526040902091909155610774565b506000610774565b6000613083826040518060400160405280602081526020017f5361666545524332303a206c6f772d6c6576656c2063616c6c206661696c65648152508573ffffffffffffffffffffffffffffffffffffffff166133009092919063ffffffff16565b8051909150156115b857808060200190518101906130a19190613e2b565b6115b8576040517f08c379a000000000000000000000000000000000000000000000000000000000815260206004820152602a60248201527f5361666545524332303a204552433230206f7065726174696f6e20646964206e60448201527f6f7420737563636565640000000000000000000000000000000000000000000060648201526084016107e3565b60008281526020818152604080832073ffffffffffffffffffffffffffffffffffffffff8516845290915290205460ff1661166c576131838173ffffffffffffffffffffffffffffffffffffffff166014613317565b61318e836020613317565b60405160200161319f929190613e7d565b604080517fffffffffffffffffffffffffffffffffffffffffffffffffffffffffffffffe0818403018152908290527f08c379a00000000000000000000000000000000000000000000000000000000082526107e391600401613efe565b60008281526020818152604080832073ffffffffffffffffffffffffffffffffffffffff8516845290915290205460ff161561166c5760008281526020818152604080832073ffffffffffffffffffffffffffffffffffffffff8516808552925280832080547fffffffffffffffffffffffffffffffffffffffffffffffffffffffffffffff0016905551339285917ff6391f5c32d9c69d2a47ea670b442974b53935d1edc7fd64eb21e047a839171b9190a45050565b60006121c98373ffffffffffffffffffffffffffffffffffffffff841661355a565b60008260000182815481106132ed576132ed613db5565b9060005260206000200154905092915050565b606061330f848460008561364d565b949350505050565b60606000613326836002613c32565b613331906002613a78565b67ffffffffffffffff81111561334957613349613caa565b6040519080825280601f01601f191660200182016040528015613373576020820181803683370190505b5090507f3000000000000000000000000000000000000000000000000000000000000000816000815181106133aa576133aa613db5565b60200101907effffffffffffffffffffffffffffffffffffffffffffffffffffffffffffff1916908160001a9053507f78000000000000000000000000000000000000000000000000000000000000008160018151811061340d5761340d613db5565b60200101907effffffffffffffffffffffffffffffffffffffffffffffffffffffffffffff1916908160001a9053506000613449846002613c32565b613454906001613a78565b90505b60018111156134f1577f303132333435363738396162636465660000000000000000000000000000000085600f166010811061349557613495613db5565b1a60f81b8282815181106134ab576134ab613db5565b60200101907effffffffffffffffffffffffffffffffffffffffffffffffffffffffffffff1916908160001a90535060049490941c936134ea81613f4f565b9050613457565b5083156121c9576040517f08c379a000000000000000000000000000000000000000000000000000000000815260206004820181905260248201527f537472696e67733a20686578206c656e67746820696e73756666696369656e7460448201526064016107e3565b6000818152600183016020526040812054801561364357600061357e600183613aa9565b855490915060009061359290600190613aa9565b90508181146135f75760008660000182815481106135b2576135b2613db5565b90600052602060002001549050808760000184815481106135d5576135d5613db5565b6000918252602080832090910192909255918252600188019052604090208390555b855486908061360857613608613f84565b600190038181906000526020600020016000905590558560010160008681526020019081526020016000206000905560019350505050610774565b6000915050610774565b6060824710156136df576040517f08c379a000000000000000000000000000000000000000000000000000000000815260206004820152602660248201527f416464726573733a20696e73756666696369656e742062616c616e636520666f60448201527f722063616c6c000000000000000000000000000000000000000000000000000060648201526084016107e3565b73ffffffffffffffffffffffffffffffffffffffff85163b61375d576040517f08c379a000000000000000000000000000000000000000000000000000000000815260206004820152601d60248201527f416464726573733a2063616c6c20746f206e6f6e2d636f6e747261637400000060448201526064016107e3565b6000808673ffffffffffffffffffffffffffffffffffffffff1685876040516137869190613fb3565b60006040518083038185875af1925050503d80600081146137c3576040519150601f19603f3d011682016040523d82523d6000602084013e6137c8565b606091505b50915091506137d88282866137e3565b979650505050505050565b606083156137f25750816121c9565b8251156138025782518084602001fd5b816040517f08c379a00000000000000000000000000000000000000000000000000000000081526004016107e39190613efe565b60006020828403121561384857600080fd5b81357fffffffff00000000000000000000000000000000000000000000000000000000811681146121c957600080fd5b60006020828403121561388a57600080fd5b5035919050565b73ffffffffffffffffffffffffffffffffffffffff81168114611b4b57600080fd5b6000602082840312156138c557600080fd5b81356121c981613891565b600081518084526020808501945080840160005b83811015613900578151875295820195908201906001016138e4565b509495945050505050565b6040808252835182820181905260009190606090818501906020808901865b8381101561396c578151805186528381015184870152878101518887015286810151878701526080908101519086015260a0909401939082019060010161392a565b505086830390870152506137d881876138d0565b6000806040838503121561399357600080fd5b50508035926020909101359150565b600080604083850312156139b557600080fd5b8235915060208301356139c781613891565b809150509250929050565b600080604083850312156139e557600080fd5b82356139f081613891565b915060208301356139c781613891565b60008060408385031215613a1357600080fd5b8235613a1e81613891565b946020939093013593505050565b600060208284031215613a3e57600080fd5b81516121c981613891565b7f4e487b7100000000000000000000000000000000000000000000000000000000600052601160045260246000fd5b60008219821115613a8b57613a8b613a49565b500190565b600060208284031215613aa257600080fd5b5051919050565b600082821015613abb57613abb613a49565b500390565b600060208284031215613ad257600080fd5b815160ff811681146121c957600080fd5b600060ff821660ff841680821015613afd57613afd613a49565b90039392505050565b600181815b80851115613b5f57817fffffffffffffffffffffffffffffffffffffffffffffffffffffffffffffffff04821115613b4557613b45613a49565b80851615613b5257918102915b93841c9390800290613b0b565b509250929050565b600082613b7657506001610774565b81613b8357506000610774565b8160018114613b995760028114613ba357613bbf565b6001915050610774565b60ff841115613bb457613bb4613a49565b50506001821b610774565b5060208310610133831016604e8410600b8410161715613be2575081810a610774565b613bec8383613b06565b807fffffffffffffffffffffffffffffffffffffffffffffffffffffffffffffffff04821115613c1e57613c1e613a49565b029392505050565b60006121c98383613b67565b6000817fffffffffffffffffffffffffffffffffffffffffffffffffffffffffffffffff0483118215151615613c6a57613c6a613a49565b500290565b600082613ca5577f4e487b7100000000000000000000000000000000000000000000000000000000600052601260045260246000fd5b500490565b7f4e487b7100000000000000000000000000000000000000000000000000000000600052604160045260246000fd5b60006020808385031215613cec57600080fd5b825167ffffffffffffffff80821115613d0457600080fd5b818501915085601f830112613d1857600080fd5b815181811115613d2a57613d2a613caa565b8060051b6040517fffffffffffffffffffffffffffffffffffffffffffffffffffffffffffffffe0603f83011681018181108582111715613d6d57613d6d613caa565b604052918252848201925083810185019188831115613d8b57600080fd5b938501935b82851015613da957845184529385019392850192613d90565b98975050505050505050565b7f4e487b7100000000000000000000000000000000000000000000000000000000600052603260045260246000fd5b60007fffffffffffffffffffffffffffffffffffffffffffffffffffffffffffffffff8203613e1557613e15613a49565b5060010190565b60006121c960ff841683613b67565b600060208284031215613e3d57600080fd5b815180151581146121c957600080fd5b60005b83811015613e68578181015183820152602001613e50565b83811115613e77576000848401525b50505050565b7f416363657373436f6e74726f6c3a206163636f756e7420000000000000000000815260008351613eb5816017850160208801613e4d565b7f206973206d697373696e6720726f6c65200000000000000000000000000000006017918401918201528351613ef2816028840160208801613e4d565b01602801949350505050565b6020815260008251806020840152613f1d816040850160208701613e4d565b601f017fffffffffffffffffffffffffffffffffffffffffffffffffffffffffffffffe0169190910160400192915050565b600081613f5e57613f5e613a49565b507fffffffffffffffffffffffffffffffffffffffffffffffffffffffffffffffff0190565b7f4e487b7100000000000000000000000000000000000000000000000000000000600052603160045260246000fd5b60008251613fc5818460208701613e4d565b919091019291505056fea2646970667358221220483a80f6cde74d460cf6918a32112c61d5648170fd97cefc2a1944d81e0053f164736f6c634300080d0033",
  "linkReferences": {},
  "deployedLinkReferences": {}
}