{
  "_format": "hh-sol-artifact-1",
  "contractName": "DeiBonds",
  "sourceName": "contracts/DeiBonds.sol",
  "abi": [
    {
      "inputs": [
        {
          "internalType": "address",
          "name": "admin",
          "type": "address"
        },
        {
          "internalType": "address",
          "name": "trusty",
          "type": "address"
        },
        {
          "internalType": "address",
          "name": "deus_",
          "type": "address"
        },
        {
          "internalType": "address",
          "name": "exitToken_",
          "type": "address"
        },
        {
          "internalType": "address",
          "name": "entryToken_",
          "type": "address"
        },
        {
          "internalType": "address",
          "name": "nft_",
          "type": "address"
        },
        {
          "internalType": "address",
          "name": "apyCalculator_",
          "type": "address"
        },
        {
          "internalType": "address",
          "name": "escapeBondCalculator_",
          "type": "address"
        },
        {
          "internalType": "address",
          "name": "oracle_",
          "type": "address"
        },
        {
          "internalType": "uint256",
          "name": "capacity_",
          "type": "uint256"
        }
      ],
      "stateMutability": "nonpayable",
      "type": "constructor"
    },
    {
      "anonymous": false,
      "inputs": [
        {
          "indexed": false,
          "internalType": "uint256",
          "name": "bondId",
          "type": "uint256"
        }
      ],
      "name": "BuyBond",
      "type": "event"
    },
    {
      "anonymous": false,
      "inputs": [
        {
          "indexed": false,
          "internalType": "uint256",
          "name": "bondId",
          "type": "uint256"
        },
        {
          "indexed": false,
          "internalType": "uint256",
          "name": "claimAmount",
          "type": "uint256"
        }
      ],
      "name": "Claim",
      "type": "event"
    },
    {
      "anonymous": false,
      "inputs": [
        {
          "indexed": false,
          "internalType": "uint256",
          "name": "bondId",
          "type": "uint256"
        }
      ],
      "name": "EscapeBond",
      "type": "event"
    },
    {
      "anonymous": false,
      "inputs": [
        {
          "indexed": false,
          "internalType": "uint256",
          "name": "bondId",
          "type": "uint256"
        }
      ],
      "name": "ExitBond",
      "type": "event"
    },
    {
      "anonymous": false,
      "inputs": [
        {
          "indexed": false,
          "internalType": "address",
          "name": "account",
          "type": "address"
        }
      ],
      "name": "Paused",
      "type": "event"
    },
    {
      "anonymous": false,
      "inputs": [
        {
          "indexed": true,
          "internalType": "bytes32",
          "name": "role",
          "type": "bytes32"
        },
        {
          "indexed": true,
          "internalType": "bytes32",
          "name": "previousAdminRole",
          "type": "bytes32"
        },
        {
          "indexed": true,
          "internalType": "bytes32",
          "name": "newAdminRole",
          "type": "bytes32"
        }
      ],
      "name": "RoleAdminChanged",
      "type": "event"
    },
    {
      "anonymous": false,
      "inputs": [
        {
          "indexed": true,
          "internalType": "bytes32",
          "name": "role",
          "type": "bytes32"
        },
        {
          "indexed": true,
          "internalType": "address",
          "name": "account",
          "type": "address"
        },
        {
          "indexed": true,
          "internalType": "address",
          "name": "sender",
          "type": "address"
        }
      ],
      "name": "RoleGranted",
      "type": "event"
    },
    {
      "anonymous": false,
      "inputs": [
        {
          "indexed": true,
          "internalType": "bytes32",
          "name": "role",
          "type": "bytes32"
        },
        {
          "indexed": true,
          "internalType": "address",
          "name": "account",
          "type": "address"
        },
        {
          "indexed": true,
          "internalType": "address",
          "name": "sender",
          "type": "address"
        }
      ],
      "name": "RoleRevoked",
      "type": "event"
    },
    {
      "anonymous": false,
      "inputs": [
        {
          "indexed": false,
          "internalType": "address",
          "name": "oldValue",
          "type": "address"
        },
        {
          "indexed": false,
          "internalType": "address",
          "name": "newValue",
          "type": "address"
        }
      ],
      "name": "SetApyCalculator",
      "type": "event"
    },
    {
      "anonymous": false,
      "inputs": [
        {
          "indexed": false,
          "internalType": "uint256",
          "name": "oldValue",
          "type": "uint256"
        },
        {
          "indexed": false,
          "internalType": "uint256",
          "name": "newValue",
          "type": "uint256"
        }
      ],
      "name": "SetCap",
      "type": "event"
    },
    {
      "anonymous": false,
      "inputs": [
        {
          "indexed": false,
          "internalType": "uint256",
          "name": "oldValue",
          "type": "uint256"
        },
        {
          "indexed": false,
          "internalType": "uint256",
          "name": "newValue",
          "type": "uint256"
        }
      ],
      "name": "SetClaimInterval",
      "type": "event"
    },
    {
      "anonymous": false,
      "inputs": [
        {
          "indexed": false,
          "internalType": "address",
          "name": "oldValue",
          "type": "address"
        },
        {
          "indexed": false,
          "internalType": "address",
          "name": "newValue",
          "type": "address"
        }
      ],
      "name": "SetEscapeBondCalculator",
      "type": "event"
    },
    {
      "anonymous": false,
      "inputs": [
        {
          "indexed": false,
          "internalType": "address",
          "name": "oldValue",
          "type": "address"
        },
        {
          "indexed": false,
          "internalType": "address",
          "name": "newValue",
          "type": "address"
        }
      ],
      "name": "SetNft",
      "type": "event"
    },
    {
      "anonymous": false,
      "inputs": [
        {
          "indexed": false,
          "internalType": "address",
          "name": "oldValue",
          "type": "address"
        },
        {
          "indexed": false,
          "internalType": "address",
          "name": "newValue",
          "type": "address"
        }
      ],
      "name": "SetOracle",
      "type": "event"
    },
    {
      "anonymous": false,
      "inputs": [
        {
          "indexed": false,
          "internalType": "uint256",
          "name": "oldValue",
          "type": "uint256"
        },
        {
          "indexed": false,
          "internalType": "uint256",
          "name": "newValue",
          "type": "uint256"
        }
      ],
      "name": "SetSoldBond",
      "type": "event"
    },
    {
      "anonymous": false,
      "inputs": [
        {
          "indexed": false,
          "internalType": "address",
          "name": "account",
          "type": "address"
        }
      ],
      "name": "Unpaused",
      "type": "event"
    },
    {
      "inputs": [],
      "name": "DEFAULT_ADMIN_ROLE",
      "outputs": [
        {
          "internalType": "bytes32",
          "name": "",
          "type": "bytes32"
        }
      ],
      "stateMutability": "view",
      "type": "function"
    },
    {
      "inputs": [],
      "name": "PAUSER_ROLE",
      "outputs": [
        {
          "internalType": "bytes32",
          "name": "",
          "type": "bytes32"
        }
      ],
      "stateMutability": "view",
      "type": "function"
    },
    {
      "inputs": [],
      "name": "TRUSTY_ROLE",
      "outputs": [
        {
          "internalType": "bytes32",
          "name": "",
          "type": "bytes32"
        }
      ],
      "stateMutability": "view",
      "type": "function"
    },
    {
      "inputs": [
        {
          "internalType": "address",
          "name": "token",
          "type": "address"
        },
        {
          "internalType": "address",
          "name": "to",
          "type": "address"
        }
      ],
      "name": "approve",
      "outputs": [],
      "stateMutability": "nonpayable",
      "type": "function"
    },
    {
      "inputs": [],
      "name": "apyCalculator",
      "outputs": [
        {
          "internalType": "address",
          "name": "",
          "type": "address"
        }
      ],
      "stateMutability": "view",
      "type": "function"
    },
    {
      "inputs": [
        {
          "internalType": "uint256",
          "name": "",
          "type": "uint256"
        }
      ],
      "name": "bonds",
      "outputs": [
        {
          "internalType": "uint256",
          "name": "amount",
          "type": "uint256"
        },
        {
          "internalType": "uint256",
          "name": "apy",
          "type": "uint256"
        },
        {
          "internalType": "uint256",
          "name": "duration",
          "type": "uint256"
        },
        {
          "internalType": "uint256",
          "name": "startTime",
          "type": "uint256"
        },
        {
          "internalType": "uint256",
          "name": "lastClaimTimestamp",
          "type": "uint256"
        }
      ],
      "stateMutability": "view",
      "type": "function"
    },
    {
      "inputs": [
        {
          "internalType": "address",
          "name": "user",
          "type": "address"
        }
      ],
      "name": "bondsOfOwner",
      "outputs": [
        {
          "components": [
            {
              "internalType": "uint256",
              "name": "amount",
              "type": "uint256"
            },
            {
              "internalType": "uint256",
              "name": "apy",
              "type": "uint256"
            },
            {
              "internalType": "uint256",
              "name": "duration",
              "type": "uint256"
            },
            {
              "internalType": "uint256",
              "name": "startTime",
              "type": "uint256"
            },
            {
              "internalType": "uint256",
              "name": "lastClaimTimestamp",
              "type": "uint256"
            }
          ],
          "internalType": "struct IDeiBonds.Bond[]",
          "name": "",
          "type": "tuple[]"
        }
      ],
      "stateMutability": "view",
      "type": "function"
    },
    {
      "inputs": [
        {
          "internalType": "uint256",
          "name": "amount",
          "type": "uint256"
        },
        {
          "internalType": "uint256",
          "name": "minApy",
          "type": "uint256"
        }
      ],
      "name": "buyBond",
      "outputs": [],
      "stateMutability": "nonpayable",
      "type": "function"
    },
    {
      "inputs": [],
      "name": "capacity",
      "outputs": [
        {
          "internalType": "uint256",
          "name": "",
          "type": "uint256"
        }
      ],
      "stateMutability": "view",
      "type": "function"
    },
    {
      "inputs": [
        {
          "internalType": "uint256",
          "name": "bondId",
          "type": "uint256"
        }
      ],
      "name": "claim",
      "outputs": [],
      "stateMutability": "nonpayable",
      "type": "function"
    },
    {
      "inputs": [],
      "name": "claimInterval",
      "outputs": [
        {
          "internalType": "uint256",
          "name": "",
          "type": "uint256"
        }
      ],
      "stateMutability": "view",
      "type": "function"
    },
    {
      "inputs": [
        {
          "internalType": "uint256",
          "name": "bondId",
          "type": "uint256"
        },
        {
          "internalType": "uint256",
          "name": "deusPrice",
          "type": "uint256"
        }
      ],
      "name": "claimableDeus",
      "outputs": [
        {
          "internalType": "uint256",
          "name": "deusAmount",
          "type": "uint256"
        }
      ],
      "stateMutability": "view",
      "type": "function"
    },
    {
      "inputs": [],
      "name": "deus",
      "outputs": [
        {
          "internalType": "address",
          "name": "",
          "type": "address"
        }
      ],
      "stateMutability": "view",
      "type": "function"
    },
    {
      "inputs": [],
      "name": "entryToken",
      "outputs": [
        {
          "internalType": "address",
          "name": "",
          "type": "address"
        }
      ],
      "stateMutability": "view",
      "type": "function"
    },
    {
      "inputs": [
        {
          "internalType": "uint256",
          "name": "bondId",
          "type": "uint256"
        }
      ],
      "name": "escape",
      "outputs": [],
      "stateMutability": "nonpayable",
      "type": "function"
    },
    {
      "inputs": [],
      "name": "escapeBondCalculator",
      "outputs": [
        {
          "internalType": "address",
          "name": "",
          "type": "address"
        }
      ],
      "stateMutability": "view",
      "type": "function"
    },
    {
      "inputs": [
        {
          "internalType": "uint256",
          "name": "bondId",
          "type": "uint256"
        }
      ],
      "name": "exit",
      "outputs": [],
      "stateMutability": "nonpayable",
      "type": "function"
    },
    {
      "inputs": [],
      "name": "exitToken",
      "outputs": [
        {
          "internalType": "address",
          "name": "",
          "type": "address"
        }
      ],
      "stateMutability": "view",
      "type": "function"
    },
    {
      "inputs": [],
      "name": "getApy",
      "outputs": [
        {
          "internalType": "uint256",
          "name": "apyValue",
          "type": "uint256"
        }
      ],
      "stateMutability": "view",
      "type": "function"
    },
    {
      "inputs": [
        {
          "internalType": "bytes32",
          "name": "role",
          "type": "bytes32"
        }
      ],
      "name": "getRoleAdmin",
      "outputs": [
        {
          "internalType": "bytes32",
          "name": "",
          "type": "bytes32"
        }
      ],
      "stateMutability": "view",
      "type": "function"
    },
    {
      "inputs": [
        {
          "internalType": "bytes32",
          "name": "role",
          "type": "bytes32"
        },
        {
          "internalType": "uint256",
          "name": "index",
          "type": "uint256"
        }
      ],
      "name": "getRoleMember",
      "outputs": [
        {
          "internalType": "address",
          "name": "",
          "type": "address"
        }
      ],
      "stateMutability": "view",
      "type": "function"
    },
    {
      "inputs": [
        {
          "internalType": "bytes32",
          "name": "role",
          "type": "bytes32"
        }
      ],
      "name": "getRoleMemberCount",
      "outputs": [
        {
          "internalType": "uint256",
          "name": "",
          "type": "uint256"
        }
      ],
      "stateMutability": "view",
      "type": "function"
    },
    {
      "inputs": [
        {
          "internalType": "bytes32",
          "name": "role",
          "type": "bytes32"
        },
        {
          "internalType": "address",
          "name": "account",
          "type": "address"
        }
      ],
      "name": "grantRole",
      "outputs": [],
      "stateMutability": "nonpayable",
      "type": "function"
    },
    {
      "inputs": [
        {
          "internalType": "bytes32",
          "name": "role",
          "type": "bytes32"
        },
        {
          "internalType": "address",
          "name": "account",
          "type": "address"
        }
      ],
      "name": "hasRole",
      "outputs": [
        {
          "internalType": "bool",
          "name": "",
          "type": "bool"
        }
      ],
      "stateMutability": "view",
      "type": "function"
    },
    {
      "inputs": [],
      "name": "nft",
      "outputs": [
        {
          "internalType": "address",
          "name": "",
          "type": "address"
        }
      ],
      "stateMutability": "view",
      "type": "function"
    },
    {
      "inputs": [],
      "name": "oracle",
      "outputs": [
        {
          "internalType": "address",
          "name": "",
          "type": "address"
        }
      ],
      "stateMutability": "view",
      "type": "function"
    },
    {
      "inputs": [],
      "name": "pause",
      "outputs": [],
      "stateMutability": "nonpayable",
      "type": "function"
    },
    {
      "inputs": [],
      "name": "paused",
      "outputs": [
        {
          "internalType": "bool",
          "name": "",
          "type": "bool"
        }
      ],
      "stateMutability": "view",
      "type": "function"
    },
    {
      "inputs": [
        {
          "internalType": "bytes32",
          "name": "role",
          "type": "bytes32"
        },
        {
          "internalType": "address",
          "name": "account",
          "type": "address"
        }
      ],
      "name": "renounceRole",
      "outputs": [],
      "stateMutability": "nonpayable",
      "type": "function"
    },
    {
      "inputs": [
        {
          "internalType": "bytes32",
          "name": "role",
          "type": "bytes32"
        },
        {
          "internalType": "address",
          "name": "account",
          "type": "address"
        }
      ],
      "name": "revokeRole",
      "outputs": [],
      "stateMutability": "nonpayable",
      "type": "function"
    },
    {
      "inputs": [
        {
          "internalType": "address",
          "name": "apyCalculator_",
          "type": "address"
        }
      ],
      "name": "setApyCalculator",
      "outputs": [],
      "stateMutability": "nonpayable",
      "type": "function"
    },
    {
      "inputs": [
        {
          "internalType": "uint256",
          "name": "cap",
          "type": "uint256"
        }
      ],
      "name": "setCap",
      "outputs": [],
      "stateMutability": "nonpayable",
      "type": "function"
    },
    {
      "inputs": [
        {
          "internalType": "uint256",
          "name": "claimInterval_",
          "type": "uint256"
        }
      ],
      "name": "setClaimInterval",
      "outputs": [],
      "stateMutability": "nonpayable",
      "type": "function"
    },
    {
      "inputs": [
        {
          "internalType": "address",
          "name": "escapeBondCalculator_",
          "type": "address"
        }
      ],
      "name": "setEscapeBondCalculator",
      "outputs": [],
      "stateMutability": "nonpayable",
      "type": "function"
    },
    {
      "inputs": [
        {
          "internalType": "address",
          "name": "nft_",
          "type": "address"
        }
      ],
      "name": "setNFT",
      "outputs": [],
      "stateMutability": "nonpayable",
      "type": "function"
    },
    {
      "inputs": [
        {
          "internalType": "address",
          "name": "oracle_",
          "type": "address"
        }
      ],
      "name": "setOracle",
      "outputs": [],
      "stateMutability": "nonpayable",
      "type": "function"
    },
    {
      "inputs": [
        {
          "internalType": "uint256",
          "name": "soldBond_",
          "type": "uint256"
        }
      ],
      "name": "setSoldBond",
      "outputs": [],
      "stateMutability": "nonpayable",
      "type": "function"
    },
    {
      "inputs": [],
      "name": "soldBond",
      "outputs": [
        {
          "internalType": "uint256",
          "name": "",
          "type": "uint256"
        }
      ],
      "stateMutability": "view",
      "type": "function"
    },
    {
      "inputs": [
        {
          "internalType": "bytes4",
          "name": "interfaceId",
          "type": "bytes4"
        }
      ],
      "name": "supportsInterface",
      "outputs": [
        {
          "internalType": "bool",
          "name": "",
          "type": "bool"
        }
      ],
      "stateMutability": "view",
      "type": "function"
    },
    {
      "inputs": [],
      "name": "unpause",
      "outputs": [],
      "stateMutability": "nonpayable",
      "type": "function"
    },
    {
      "inputs": [
        {
          "internalType": "address",
          "name": "token",
          "type": "address"
        },
        {
          "internalType": "uint256",
          "name": "amount",
          "type": "uint256"
        }
      ],
      "name": "withdrawERC20",
      "outputs": [],
      "stateMutability": "nonpayable",
      "type": "function"
    },
    {
      "inputs": [
        {
          "internalType": "uint256",
          "name": "amount",
          "type": "uint256"
        }
      ],
      "name": "withdrawETH",
      "outputs": [],
      "stateMutability": "nonpayable",
      "type": "function"
    }
  ],
  "bytecode": "0x608060405261a8c0600d553480156200001757600080fd5b5060405162004315380380620043158339810160408190526200003a9162000282565b6002805460ff19169055600480546001600160a01b03199081166001600160a01b038b8116919091179092556005805482168a8416179055600680548216898416179055600780548216888416179055600980548216878416179055600a8054821686841617905560088054909116918416919091179055600b819055620000c460008b62000100565b620000f07f0db189261133fd7647d3308512b693b47bed44004cac80fb59aa64b63a231e2c8a62000100565b5050505050505050505062000348565b6200010c828262000110565b5050565b6200012782826200015360201b620029c81760201c565b60008281526001602090815260409091206200014e91839062002ab8620001f3821b17901c565b505050565b6000828152602081815260408083206001600160a01b038516845290915290205460ff166200010c576000828152602081815260408083206001600160a01b03851684529091529020805460ff19166001179055620001af3390565b6001600160a01b0316816001600160a01b0316837f2f8788117e7eff1d82e926ec794901d17c78024a50270940304540a733656f0d60405160405180910390a45050565b60006200020a836001600160a01b03841662000213565b90505b92915050565b60008181526001830160205260408120546200025c575081546001818101845560008481526020808220909301849055845484825282860190935260409020919091556200020d565b5060006200020d565b80516001600160a01b03811681146200027d57600080fd5b919050565b6000806000806000806000806000806101408b8d031215620002a357600080fd5b620002ae8b62000265565b9950620002be60208c0162000265565b9850620002ce60408c0162000265565b9750620002de60608c0162000265565b9650620002ee60808c0162000265565b9550620002fe60a08c0162000265565b94506200030e60c08c0162000265565b93506200031e60e08c0162000265565b92506200032f6101008c0162000265565b91506101208b015190509295989b9194979a5092959850565b613fbd80620003586000396000f3fe608060405234801561001057600080fd5b50600436106102de5760003560e01c80635f1c17c01161018657806391d14854116100e3578063ca15c87311610097578063f14210a611610071578063f14210a6146106e4578063f2d57adf146106f7578063f56e9c661461070a57600080fd5b8063ca15c87314610697578063d547741f146106aa578063e63ab1e9146106bd57600080fd5b8063a1db9782116100c8578063a1db978214610669578063a217fddf1461067c578063c2ca269a1461068457600080fd5b806391d14854146106125780639ca5814d1461065657600080fd5b80637e5465ba1161013a5780638456cb591161011f5780638456cb59146105ee5780639010d07c146105f6578063911920c91461060957600080fd5b80637e5465ba146105c85780637f8661a1146105db57600080fd5b80637adbf9731161016b5780637adbf973146105755780637c63362b146105885780637dc0d1d0146105a857600080fd5b80635f1c17c0146104ef5780636e50fc461461055557600080fd5b8063379607f51161023f57806347ccca02116101f3578063556cb000116101cd578063556cb000146104bb5780635c975abb146104db5780635cfc1a51146104e657600080fd5b806347ccca02146104685780634a0a66a8146104885780634bc537a81461049b57600080fd5b80633f4ba83a116102245780633f4ba83a1461043a578063466985f31461044257806347786d371461045557600080fd5b8063379607f51461041457806338ea0d711461042757600080fd5b8063248a9ca3116102965780632f2ff15d1161027b5780632f2ff15d146103c557806334ddb95d146103da57806336568abe1461040157600080fd5b8063248a9ca31461038f5780632aee25d3146103b257600080fd5b80630f705cbf116102c75780630f705cbf14610322578063119d4614146103425780631fb922e01461038757600080fd5b806301ffc9a7146102e35780630b433a121461030b575b600080fd5b6102f66102f1366004613830565b61071d565b60405190151581526020015b60405180910390f35b610314600d5481565b604051908152602001610302565b610335610330366004613894565b610779565b60405161030291906138b1565b6009546103629073ffffffffffffffffffffffffffffffffffffffff1681565b60405173ffffffffffffffffffffffffffffffffffffffff9091168152602001610302565b610314610a2c565b61031461039d36600461391f565b60009081526020819052604090206001015490565b6103146103c0366004613938565b610ac5565b6103d86103d336600461395a565b610cad565b005b6103147f0db189261133fd7647d3308512b693b47bed44004cac80fb59aa64b63a231e2c81565b6103d861040f36600461395a565b610cd7565b6103d861042236600461391f565b610d8f565b6103d861043536600461391f565b6111cc565b6103d8611238565b6103d861045036600461391f565b61126d565b6103d861046336600461391f565b611701565b6007546103629073ffffffffffffffffffffffffffffffffffffffff1681565b6103d8610496366004613894565b61176d565b6004546103629073ffffffffffffffffffffffffffffffffffffffff1681565b600a546103629073ffffffffffffffffffffffffffffffffffffffff1681565b60025460ff166102f6565b610314600b5481565b61052d6104fd36600461391f565b60036020819052600091825260409091208054600182015460028301549383015460049093015491939092909185565b604080519586526020860194909452928401919091526060830152608082015260a001610302565b6006546103629073ffffffffffffffffffffffffffffffffffffffff1681565b6103d8610583366004613894565b611833565b6005546103629073ffffffffffffffffffffffffffffffffffffffff1681565b6008546103629073ffffffffffffffffffffffffffffffffffffffff1681565b6103d86105d636600461398a565b6118f9565b6103d86105e936600461391f565b611964565b6103d861223e565b610362610604366004613938565b612270565b610314600c5481565b6102f661062036600461395a565b60009182526020828152604080842073ffffffffffffffffffffffffffffffffffffffff93909316845291905290205460ff1690565b6103d8610664366004613894565b61228f565b6103d86106773660046139b8565b612355565b610314600081565b6103d8610692366004613938565b6123a0565b6103146106a536600461391f565b612803565b6103d86106b836600461395a565b61281a565b6103147f65d7a28e3265b37a6474929f336521b332c1681b933f6cb9f3376673440d862a81565b6103d86106f236600461391f565b61283f565b6103d861070536600461391f565b612896565b6103d8610718366004613894565b612902565b60007fffffffff0000000000000000000000000000000000000000000000000000000082167f5a05180f000000000000000000000000000000000000000000000000000000001480610773575061077382612ada565b92915050565b6007546040517f5a3f267200000000000000000000000000000000000000000000000000000000815273ffffffffffffffffffffffffffffffffffffffff8381166004830152606092600092911690635a3f267290602401600060405180830381865afa1580156107ee573d6000803e3d6000fd5b505050506040513d6000823e601f3d9081017fffffffffffffffffffffffffffffffffffffffffffffffffffffffffffffffe01682016040526108349190810190613a13565b90506000815167ffffffffffffffff811115610852576108526139e4565b6040519080825280602002602001820160405280156108b557816020015b6108a26040518060a0016040528060008152602001600081526020016000815260200160008152602001600081525090565b8152602001906001900390816108705790505b5090506000805b8351811015610a22576007548451309173ffffffffffffffffffffffffffffffffffffffff1690634c0610ab908790859081106108fb576108fb613aef565b60200260200101516040518263ffffffff1660e01b815260040161092191815260200190565b602060405180830381865afa15801561093e573d6000803e3d6000fd5b505050506040513d601f19601f820116820180604052508101906109629190613b1e565b73ffffffffffffffffffffffffffffffffffffffff1603610a10576003600085838151811061099357610993613aef565b602002602001015181526020019081526020016000206040518060a0016040529081600082015481526020016001820154815260200160028201548152602001600382015481526020016004820154815250508383806109f290613b6a565b945081518110610a0457610a04613aef565b60200260200101819052505b80610a1a81613b6a565b9150506108bc565b5090949350505050565b600954604080517f1fb922e0000000000000000000000000000000000000000000000000000000008152905160009273ffffffffffffffffffffffffffffffffffffffff1691631fb922e09160048083019260209291908290030181865afa158015610a9c573d6000803e3d6000fd5b505050506040513d601f19601f82011682018060405250810190610ac09190613ba2565b905090565b6000828152600360208181526040808420815160a08101835281548152600182015493810193909352600281015491830182905292830154606083018190526004909301546080830152909183918291610b1f9190613bbb565b905080421115610b3157809150610b35565b4291505b6000600d5484606001518560800151610b4e9190613bd3565b610b589190613bea565b600d546060860151610b6a9086613bd3565b610b749190613bea565b610b7e9190613bd3565b90506000600d548560400151610b949190613bea565b90506000610baa82670de0b6b3a7640000613c25565b60208701518751610bbc908690613c25565b610bc69190613c25565b610bd09190613bea565b905087600660009054906101000a900473ffffffffffffffffffffffffffffffffffffffff1673ffffffffffffffffffffffffffffffffffffffff1663313ce5676040518163ffffffff1660e01b8152600401602060405180830381865afa158015610c40573d6000803e3d6000fd5b505050506040513d601f19601f82011682018060405250810190610c649190613c62565b610c6f906012613c85565b610c7a90600a613dc8565b610c849083613c25565b610c9690670de0b6b3a7640000613c25565b610ca09190613bea565b9998505050505050505050565b600082815260208190526040902060010154610cc881612b71565b610cd28383612b7b565b505050565b73ffffffffffffffffffffffffffffffffffffffff81163314610d81576040517f08c379a000000000000000000000000000000000000000000000000000000000815260206004820152602f60248201527f416363657373436f6e74726f6c3a2063616e206f6e6c792072656e6f756e636560448201527f20726f6c657320666f722073656c66000000000000000000000000000000000060648201526084015b60405180910390fd5b610d8b8282612b9d565b5050565b60025460ff1615610dfc576040517f08c379a000000000000000000000000000000000000000000000000000000000815260206004820152601060248201527f5061757361626c653a20706175736564000000000000000000000000000000006044820152606401610d78565b6007546040517f6352211e0000000000000000000000000000000000000000000000000000000081526004810183905260009173ffffffffffffffffffffffffffffffffffffffff1690636352211e90602401602060405180830381865afa158015610e6c573d6000803e3d6000fd5b505050506040513d601f19601f82011682018060405250810190610e909190613b1e565b905073ffffffffffffffffffffffffffffffffffffffff81163314610f37576040517f08c379a000000000000000000000000000000000000000000000000000000000815260206004820152602160248201527f446569426f6e643a2053454e444552204953204e4f5420424f4e44204f574e4560448201527f52000000000000000000000000000000000000000000000000000000000000006064820152608401610d78565b6007546040517f4c0610ab00000000000000000000000000000000000000000000000000000000815260048101849052309173ffffffffffffffffffffffffffffffffffffffff1690634c0610ab90602401602060405180830381865afa158015610fa6573d6000803e3d6000fd5b505050506040513d601f19601f82011682018060405250810190610fca9190613b1e565b73ffffffffffffffffffffffffffffffffffffffff1614611047576040517f08c379a000000000000000000000000000000000000000000000000000000000815260206004820152601d60248201527f446569426f6e643a204e4654204953204e4f5420535550504f525445440000006044820152606401610d78565b600854604080517f98d5fdca000000000000000000000000000000000000000000000000000000008152905160009273ffffffffffffffffffffffffffffffffffffffff16916398d5fdca9160048083019260209291908290030181865afa1580156110b7573d6000803e3d6000fd5b505050506040513d601f19601f820116820180604052508101906110db9190613ba2565b905060006110e98483610ac5565b905060008111611155576040517f08c379a000000000000000000000000000000000000000000000000000000000815260206004820152601d60248201527f446569426f6e643a20434c41494d20414d4f554e54204953205a45524f0000006044820152606401610d78565b6000848152600360205260409020426004918201555461118c9073ffffffffffffffffffffffffffffffffffffffff163383612bbf565b60408051858152602081018390527f022e3d29644ead4083349ca84d24bcac368b2461819b70f5921fea15de4dec4d91015b60405180910390a150505050565b7f0db189261133fd7647d3308512b693b47bed44004cac80fb59aa64b63a231e2c6111f681612b71565b600c5460408051918252602082018490527fff4bb68dc43e13871b6387180350b878fa778a446b0015c8c681a83b047ac049910160405180910390a150600c55565b7f0db189261133fd7647d3308512b693b47bed44004cac80fb59aa64b63a231e2c61126281612b71565b61126a612c93565b50565b60025460ff16156112da576040517f08c379a000000000000000000000000000000000000000000000000000000000815260206004820152601060248201527f5061757361626c653a20706175736564000000000000000000000000000000006044820152606401610d78565b6007546040517f6352211e0000000000000000000000000000000000000000000000000000000081526004810183905260009173ffffffffffffffffffffffffffffffffffffffff1690636352211e90602401602060405180830381865afa15801561134a573d6000803e3d6000fd5b505050506040513d601f19601f8201168201806040525081019061136e9190613b1e565b905073ffffffffffffffffffffffffffffffffffffffff81163314611415576040517f08c379a000000000000000000000000000000000000000000000000000000000815260206004820152602160248201527f446569426f6e643a2053454e444552204953204e4f5420424f4e44204f574e4560448201527f52000000000000000000000000000000000000000000000000000000000000006064820152608401610d78565b6007546040517f4c0610ab00000000000000000000000000000000000000000000000000000000815260048101849052309173ffffffffffffffffffffffffffffffffffffffff1690634c0610ab90602401602060405180830381865afa158015611484573d6000803e3d6000fd5b505050506040513d601f19601f820116820180604052508101906114a89190613b1e565b73ffffffffffffffffffffffffffffffffffffffff1614611525576040517f08c379a000000000000000000000000000000000000000000000000000000000815260206004820152601a60248201527f446569426f6e643a204e4654204e4f5420535550504f525445440000000000006044820152606401610d78565b600082815260036020818152604092839020835160a0810185528154815260018201549281019290925260028101549382018490529182015460608201819052600490920154608082015291429161157c91613bbb565b116115e3576040517f08c379a000000000000000000000000000000000000000000000000000000000815260206004820152601860248201527f446569426f6e643a20424f4e44204953204558504952454400000000000000006044820152606401610d78565b8051600c80546000906115f7908490613bd3565b9091555050600083815260036020526040808220829055600a5460075491517fe73c71ca0000000000000000000000000000000000000000000000000000000081526004810187905273ffffffffffffffffffffffffffffffffffffffff928316602482015291169063e73c71ca90604401602060405180830381865afa158015611686573d6000803e3d6000fd5b505050506040513d601f19601f820116820180604052508101906116aa9190613ba2565b6006549091506116d19073ffffffffffffffffffffffffffffffffffffffff163383612bbf565b6040518481527fdc25a587892a5689753940ce4e58586b04acf57394700ce22bf0a329ed03b452906020016111be565b7f0db189261133fd7647d3308512b693b47bed44004cac80fb59aa64b63a231e2c61172b81612b71565b600b5460408051918252602082018490527fdbbbb176683582b710ef3349793b8d62658724a9d9b54deccf193c4b0aa90c4c910160405180910390a150600b55565b7f0db189261133fd7647d3308512b693b47bed44004cac80fb59aa64b63a231e2c61179781612b71565b600a546040805173ffffffffffffffffffffffffffffffffffffffff928316815291841660208301527f166cb725cf49d10940cd1e3a305792656619b950a7c105fbaf890f8d2d7ae119910160405180910390a150600a80547fffffffffffffffffffffffff00000000000000000000000000000000000000001673ffffffffffffffffffffffffffffffffffffffff92909216919091179055565b7f0db189261133fd7647d3308512b693b47bed44004cac80fb59aa64b63a231e2c61185d81612b71565b6008546040805173ffffffffffffffffffffffffffffffffffffffff928316815291841660208301527fb7261e9c33aa7c56209c3bf60b424a8f9551ce28876c0ab3d0c487695e943487910160405180910390a150600880547fffffffffffffffffffffffff00000000000000000000000000000000000000001673ffffffffffffffffffffffffffffffffffffffff92909216919091179055565b7f0db189261133fd7647d3308512b693b47bed44004cac80fb59aa64b63a231e2c61192381612b71565b610cd273ffffffffffffffffffffffffffffffffffffffff8416837fffffffffffffffffffffffffffffffffffffffffffffffffffffffffffffffff612d74565b60025460ff16156119d1576040517f08c379a000000000000000000000000000000000000000000000000000000000815260206004820152601060248201527f5061757361626c653a20706175736564000000000000000000000000000000006044820152606401610d78565b6007546040517f6352211e0000000000000000000000000000000000000000000000000000000081526004810183905260009173ffffffffffffffffffffffffffffffffffffffff1690636352211e90602401602060405180830381865afa158015611a41573d6000803e3d6000fd5b505050506040513d601f19601f82011682018060405250810190611a659190613b1e565b905073ffffffffffffffffffffffffffffffffffffffff81163314611b0c576040517f08c379a000000000000000000000000000000000000000000000000000000000815260206004820152602160248201527f446569426f6e643a2053454e444552204953204e4f5420424f4e44204f574e4560448201527f52000000000000000000000000000000000000000000000000000000000000006064820152608401610d78565b6007546040517f4c0610ab00000000000000000000000000000000000000000000000000000000815260048101849052309173ffffffffffffffffffffffffffffffffffffffff1690634c0610ab90602401602060405180830381865afa158015611b7b573d6000803e3d6000fd5b505050506040513d601f19601f82011682018060405250810190611b9f9190613b1e565b73ffffffffffffffffffffffffffffffffffffffff1614611c1c576040517f08c379a000000000000000000000000000000000000000000000000000000000815260206004820152601a60248201527f446569426f6e643a204e4654204e4f5420535550504f525445440000000000006044820152606401610d78565b600082815260036020818152604092839020835160a08101855281548152600182015492810192909252600281015493820184905291820154606082018190526004909201546080820152914291611c7391613bbb565b10611cda576040517f08c379a000000000000000000000000000000000000000000000000000000000815260206004820152601c60248201527f446569426f6e643a20424f4e44204953204e4f542045585049524544000000006044820152606401610d78565b600854604080517f98d5fdca000000000000000000000000000000000000000000000000000000008152905160009273ffffffffffffffffffffffffffffffffffffffff16916398d5fdca9160048083019260209291908290030181865afa158015611d4a573d6000803e3d6000fd5b505050506040513d601f19601f82011682018060405250810190611d6e9190613ba2565b90506000611d7c8583610ac5565b90508015611de6576040517f08c379a000000000000000000000000000000000000000000000000000000000815260206004820152601a60248201527f446569426f6e643a20444944204e4f5420434c41494d205945540000000000006044820152606401610d78565b8251600c8054829190600090611dfd908490613bd3565b9091555050600086815260036020908152604080832083905560055481517f313ce567000000000000000000000000000000000000000000000000000000008152915173ffffffffffffffffffffffffffffffffffffffff9091169263313ce56792600480820193918290030181865afa158015611e7f573d6000803e3d6000fd5b505050506040513d601f19601f82011682018060405250810190611ea39190613c62565b60ff16600660009054906101000a900473ffffffffffffffffffffffffffffffffffffffff1673ffffffffffffffffffffffffffffffffffffffff1663313ce5676040518163ffffffff1660e01b8152600401602060405180830381865afa158015611f13573d6000803e3d6000fd5b505050506040513d601f19601f82011682018060405250810190611f379190613c62565b60ff16101561209157600654604080517f313ce567000000000000000000000000000000000000000000000000000000008152905160009273ffffffffffffffffffffffffffffffffffffffff169163313ce5679160048083019260209291908290030181865afa158015611fb0573d6000803e3d6000fd5b505050506040513d601f19601f82011682018060405250810190611fd49190613c62565b600560009054906101000a900473ffffffffffffffffffffffffffffffffffffffff1673ffffffffffffffffffffffffffffffffffffffff1663313ce5676040518163ffffffff1660e01b8152600401602060405180830381865afa158015612041573d6000803e3d6000fd5b505050506040513d601f19601f820116820180604052508101906120659190613c62565b61206f9190613c85565b60ff16905061207f81600a613dd7565b6120899084613c25565b9150506121de565b600554604080517f313ce567000000000000000000000000000000000000000000000000000000008152905160009273ffffffffffffffffffffffffffffffffffffffff169163313ce5679160048083019260209291908290030181865afa158015612101573d6000803e3d6000fd5b505050506040513d601f19601f820116820180604052508101906121259190613c62565b600660009054906101000a900473ffffffffffffffffffffffffffffffffffffffff1673ffffffffffffffffffffffffffffffffffffffff1663313ce5676040518163ffffffff1660e01b8152600401602060405180830381865afa158015612192573d6000803e3d6000fd5b505050506040513d601f19601f820116820180604052508101906121b69190613c62565b6121c09190613c85565b60ff1690506121d081600a613dd7565b6121da9084613bea565b9150505b6005546122029073ffffffffffffffffffffffffffffffffffffffff163383612bbf565b6040518781527f30d88f1f2b40e638b3e2c425a87a723364cf5fb9f6aab60ef2bb41ec99340c0f9060200160405180910390a150505050505050565b7f65d7a28e3265b37a6474929f336521b332c1681b933f6cb9f3376673440d862a61226881612b71565b61126a612ef6565b60008281526001602052604081206122889083612fb6565b9392505050565b7f0db189261133fd7647d3308512b693b47bed44004cac80fb59aa64b63a231e2c6122b981612b71565b6009546040805173ffffffffffffffffffffffffffffffffffffffff928316815291841660208301527f39952e6ac34862b47935b341829699a128ff4eb186c7f46592d1b04f5b240815910160405180910390a150600980547fffffffffffffffffffffffff00000000000000000000000000000000000000001673ffffffffffffffffffffffffffffffffffffffff92909216919091179055565b7f0db189261133fd7647d3308512b693b47bed44004cac80fb59aa64b63a231e2c61237f81612b71565b610cd273ffffffffffffffffffffffffffffffffffffffff84163384612bbf565b60025460ff161561240d576040517f08c379a000000000000000000000000000000000000000000000000000000000815260206004820152601060248201527f5061757361626c653a20706175736564000000000000000000000000000000006044820152606401610d78565b600b54600c5461241d9084613bbb565b1115612485576040517f08c379a000000000000000000000000000000000000000000000000000000000815260206004820152601860248201527f446569426f6e643a205448455245204953204e4f2043415000000000000000006044820152606401610d78565b600960009054906101000a900473ffffffffffffffffffffffffffffffffffffffff1673ffffffffffffffffffffffffffffffffffffffff16631fb922e06040518163ffffffff1660e01b8152600401602060405180830381865afa1580156124f2573d6000803e3d6000fd5b505050506040513d601f19601f820116820180604052508101906125169190613ba2565b81111561257f576040517f08c379a000000000000000000000000000000000000000000000000000000000815260206004820152601960248201527f446569426f6e643a20494e53554646494349454e5420415059000000000000006044820152606401610d78565b6006546040517f23b872dd0000000000000000000000000000000000000000000000000000000081523360048201523060248201526044810184905273ffffffffffffffffffffffffffffffffffffffff909116906323b872dd906064016020604051808303816000875af11580156125fc573d6000803e3d6000fd5b505050506040513d601f19601f820116820180604052508101906126209190613de3565b506007546040517fee1fe2ad00000000000000000000000000000000000000000000000000000000815233600482015230602482015260009173ffffffffffffffffffffffffffffffffffffffff169063ee1fe2ad906044016020604051808303816000875af1158015612698573d6000803e3d6000fd5b505050506040513d601f19601f820116820180604052508101906126bc9190613ba2565b905060006040518060a00160405280858152602001600960009054906101000a900473ffffffffffffffffffffffffffffffffffffffff1673ffffffffffffffffffffffffffffffffffffffff16631fb922e06040518163ffffffff1660e01b8152600401602060405180830381865afa15801561273e573d6000803e3d6000fd5b505050506040513d601f19601f820116820180604052508101906127629190613ba2565b81526020016301e13380815260200142815260200142815250905083600c600082825461278f9190613bbb565b9091555050600082815260036020818152604092839020845181559084015160018201558284015160028201556060840151918101919091556080830151600490910155517fb1aa4b8adbab5695762dfd9d53c48cf9ade864709f7b6fd3cd544f6ffbe75a83906111be9084815260200190565b600081815260016020526040812061077390612fc2565b60008281526020819052604090206001015461283581612b71565b610cd28383612b9d565b7f0db189261133fd7647d3308512b693b47bed44004cac80fb59aa64b63a231e2c61286981612b71565b604051339083156108fc029084906000818181858888f19350505050158015610cd2573d6000803e3d6000fd5b7f0db189261133fd7647d3308512b693b47bed44004cac80fb59aa64b63a231e2c6128c081612b71565b600d5460408051918252602082018490527f0d8e7a61135a0b471ca4c20f606c82e40bfdfa34727d5bb209bda99fdaf9d6c1910160405180910390a150600d55565b7f0db189261133fd7647d3308512b693b47bed44004cac80fb59aa64b63a231e2c61292c81612b71565b6007546040805173ffffffffffffffffffffffffffffffffffffffff928316815291841660208301527f18903e593d168b3b8e4aacad99d15d9bce69a044067a51b09a757f96134791aa910160405180910390a150600780547fffffffffffffffffffffffff00000000000000000000000000000000000000001673ffffffffffffffffffffffffffffffffffffffff92909216919091179055565b60008281526020818152604080832073ffffffffffffffffffffffffffffffffffffffff8516845290915290205460ff16610d8b5760008281526020818152604080832073ffffffffffffffffffffffffffffffffffffffff85168452909152902080547fffffffffffffffffffffffffffffffffffffffffffffffffffffffffffffff00166001179055612a5a3390565b73ffffffffffffffffffffffffffffffffffffffff168173ffffffffffffffffffffffffffffffffffffffff16837f2f8788117e7eff1d82e926ec794901d17c78024a50270940304540a733656f0d60405160405180910390a45050565b60006122888373ffffffffffffffffffffffffffffffffffffffff8416612fcc565b60007fffffffff0000000000000000000000000000000000000000000000000000000082167f7965db0b00000000000000000000000000000000000000000000000000000000148061077357507f01ffc9a7000000000000000000000000000000000000000000000000000000007fffffffff00000000000000000000000000000000000000000000000000000000831614610773565b61126a813361301b565b612b8582826129c8565b6000828152600160205260409020610cd29082612ab8565b612ba782826130eb565b6000828152600160205260409020610cd290826131a2565b60405173ffffffffffffffffffffffffffffffffffffffff8316602482015260448101829052610cd29084907fa9059cbb00000000000000000000000000000000000000000000000000000000906064015b604080517fffffffffffffffffffffffffffffffffffffffffffffffffffffffffffffffe08184030181529190526020810180517bffffffffffffffffffffffffffffffffffffffffffffffffffffffff167fffffffff00000000000000000000000000000000000000000000000000000000909316929092179091526131c4565b60025460ff16612cff576040517f08c379a000000000000000000000000000000000000000000000000000000000815260206004820152601460248201527f5061757361626c653a206e6f74207061757365640000000000000000000000006044820152606401610d78565b600280547fffffffffffffffffffffffffffffffffffffffffffffffffffffffffffffff001690557f5db9ee0a495bf2e6ff9c91a7834c1ba4fdd244a5e8aa4e537bd38aeae4b073aa335b60405173ffffffffffffffffffffffffffffffffffffffff909116815260200160405180910390a1565b801580612e1457506040517fdd62ed3e00000000000000000000000000000000000000000000000000000000815230600482015273ffffffffffffffffffffffffffffffffffffffff838116602483015284169063dd62ed3e90604401602060405180830381865afa158015612dee573d6000803e3d6000fd5b505050506040513d601f19601f82011682018060405250810190612e129190613ba2565b155b612ea0576040517f08c379a000000000000000000000000000000000000000000000000000000000815260206004820152603660248201527f5361666545524332303a20617070726f76652066726f6d206e6f6e2d7a65726f60448201527f20746f206e6f6e2d7a65726f20616c6c6f77616e6365000000000000000000006064820152608401610d78565b60405173ffffffffffffffffffffffffffffffffffffffff8316602482015260448101829052610cd29084907f095ea7b30000000000000000000000000000000000000000000000000000000090606401612c11565b60025460ff1615612f63576040517f08c379a000000000000000000000000000000000000000000000000000000000815260206004820152601060248201527f5061757361626c653a20706175736564000000000000000000000000000000006044820152606401610d78565b600280547fffffffffffffffffffffffffffffffffffffffffffffffffffffffffffffff001660011790557f62e78cea01bee320cd4e420270b5ea74000d11b0c9f74754ebdbfc544b05a258612d4a3390565b600061228883836132d0565b6000610773825490565b600081815260018301602052604081205461301357508154600181810184556000848152602080822090930184905584548482528286019093526040902091909155610773565b506000610773565b60008281526020818152604080832073ffffffffffffffffffffffffffffffffffffffff8516845290915290205460ff16610d8b576130718173ffffffffffffffffffffffffffffffffffffffff1660146132fa565b61307c8360206132fa565b60405160200161308d929190613e35565b604080517fffffffffffffffffffffffffffffffffffffffffffffffffffffffffffffffe0818403018152908290527f08c379a0000000000000000000000000000000000000000000000000000000008252610d7891600401613eb6565b60008281526020818152604080832073ffffffffffffffffffffffffffffffffffffffff8516845290915290205460ff1615610d8b5760008281526020818152604080832073ffffffffffffffffffffffffffffffffffffffff8516808552925280832080547fffffffffffffffffffffffffffffffffffffffffffffffffffffffffffffff0016905551339285917ff6391f5c32d9c69d2a47ea670b442974b53935d1edc7fd64eb21e047a839171b9190a45050565b60006122888373ffffffffffffffffffffffffffffffffffffffff841661353d565b6000613226826040518060400160405280602081526020017f5361666545524332303a206c6f772d6c6576656c2063616c6c206661696c65648152508573ffffffffffffffffffffffffffffffffffffffff166136309092919063ffffffff16565b805190915015610cd257808060200190518101906132449190613de3565b610cd2576040517f08c379a000000000000000000000000000000000000000000000000000000000815260206004820152602a60248201527f5361666545524332303a204552433230206f7065726174696f6e20646964206e60448201527f6f742073756363656564000000000000000000000000000000000000000000006064820152608401610d78565b60008260000182815481106132e7576132e7613aef565b9060005260206000200154905092915050565b60606000613309836002613c25565b613314906002613bbb565b67ffffffffffffffff81111561332c5761332c6139e4565b6040519080825280601f01601f191660200182016040528015613356576020820181803683370190505b5090507f30000000000000000000000000000000000000000000000000000000000000008160008151811061338d5761338d613aef565b60200101907effffffffffffffffffffffffffffffffffffffffffffffffffffffffffffff1916908160001a9053507f7800000000000000000000000000000000000000000000000000000000000000816001815181106133f0576133f0613aef565b60200101907effffffffffffffffffffffffffffffffffffffffffffffffffffffffffffff1916908160001a905350600061342c846002613c25565b613437906001613bbb565b90505b60018111156134d4577f303132333435363738396162636465660000000000000000000000000000000085600f166010811061347857613478613aef565b1a60f81b82828151811061348e5761348e613aef565b60200101907effffffffffffffffffffffffffffffffffffffffffffffffffffffffffffff1916908160001a90535060049490941c936134cd81613f07565b905061343a565b508315612288576040517f08c379a000000000000000000000000000000000000000000000000000000000815260206004820181905260248201527f537472696e67733a20686578206c656e67746820696e73756666696369656e746044820152606401610d78565b60008181526001830160205260408120548015613626576000613561600183613bd3565b855490915060009061357590600190613bd3565b90508181146135da57600086600001828154811061359557613595613aef565b90600052602060002001549050808760000184815481106135b8576135b8613aef565b6000918252602080832090910192909255918252600188019052604090208390555b85548690806135eb576135eb613f3c565b600190038181906000526020600020016000905590558560010160008681526020019081526020016000206000905560019350505050610773565b6000915050610773565b606061363f8484600085613647565b949350505050565b6060824710156136d9576040517f08c379a000000000000000000000000000000000000000000000000000000000815260206004820152602660248201527f416464726573733a20696e73756666696369656e742062616c616e636520666f60448201527f722063616c6c00000000000000000000000000000000000000000000000000006064820152608401610d78565b73ffffffffffffffffffffffffffffffffffffffff85163b613757576040517f08c379a000000000000000000000000000000000000000000000000000000000815260206004820152601d60248201527f416464726573733a2063616c6c20746f206e6f6e2d636f6e74726163740000006044820152606401610d78565b6000808673ffffffffffffffffffffffffffffffffffffffff1685876040516137809190613f6b565b60006040518083038185875af1925050503d80600081146137bd576040519150601f19603f3d011682016040523d82523d6000602084013e6137c2565b606091505b50915091506137d28282866137dd565b979650505050505050565b606083156137ec575081612288565b8251156137fc5782518084602001fd5b816040517f08c379a0000000000000000000000000000000000000000000000000000000008152600401610d789190613eb6565b60006020828403121561384257600080fd5b81357fffffffff000000000000000000000000000000000000000000000000000000008116811461228857600080fd5b73ffffffffffffffffffffffffffffffffffffffff8116811461126a57600080fd5b6000602082840312156138a657600080fd5b813561228881613872565b602080825282518282018190526000919060409081850190868401855b828110156139125781518051855286810151878601528581015186860152606080820151908601526080908101519085015260a090930192908501906001016138ce565b5091979650505050505050565b60006020828403121561393157600080fd5b5035919050565b6000806040838503121561394b57600080fd5b50508035926020909101359150565b6000806040838503121561396d57600080fd5b82359150602083013561397f81613872565b809150509250929050565b6000806040838503121561399d57600080fd5b82356139a881613872565b9150602083013561397f81613872565b600080604083850312156139cb57600080fd5b82356139d681613872565b946020939093013593505050565b7f4e487b7100000000000000000000000000000000000000000000000000000000600052604160045260246000fd5b60006020808385031215613a2657600080fd5b825167ffffffffffffffff80821115613a3e57600080fd5b818501915085601f830112613a5257600080fd5b815181811115613a6457613a646139e4565b8060051b6040517fffffffffffffffffffffffffffffffffffffffffffffffffffffffffffffffe0603f83011681018181108582111715613aa757613aa76139e4565b604052918252848201925083810185019188831115613ac557600080fd5b938501935b82851015613ae357845184529385019392850192613aca565b98975050505050505050565b7f4e487b7100000000000000000000000000000000000000000000000000000000600052603260045260246000fd5b600060208284031215613b3057600080fd5b815161228881613872565b7f4e487b7100000000000000000000000000000000000000000000000000000000600052601160045260246000fd5b60007fffffffffffffffffffffffffffffffffffffffffffffffffffffffffffffffff8203613b9b57613b9b613b3b565b5060010190565b600060208284031215613bb457600080fd5b5051919050565b60008219821115613bce57613bce613b3b565b500190565b600082821015613be557613be5613b3b565b500390565b600082613c20577f4e487b7100000000000000000000000000000000000000000000000000000000600052601260045260246000fd5b500490565b6000817fffffffffffffffffffffffffffffffffffffffffffffffffffffffffffffffff0483118215151615613c5d57613c5d613b3b565b500290565b600060208284031215613c7457600080fd5b815160ff8116811461228857600080fd5b600060ff821660ff841680821015613c9f57613c9f613b3b565b90039392505050565b600181815b80851115613d0157817fffffffffffffffffffffffffffffffffffffffffffffffffffffffffffffffff04821115613ce757613ce7613b3b565b80851615613cf457918102915b93841c9390800290613cad565b509250929050565b600082613d1857506001610773565b81613d2557506000610773565b8160018114613d3b5760028114613d4557613d61565b6001915050610773565b60ff841115613d5657613d56613b3b565b50506001821b610773565b5060208310610133831016604e8410600b8410161715613d84575081810a610773565b613d8e8383613ca8565b807fffffffffffffffffffffffffffffffffffffffffffffffffffffffffffffffff04821115613dc057613dc0613b3b565b029392505050565b600061228860ff841683613d09565b60006122888383613d09565b600060208284031215613df557600080fd5b8151801515811461228857600080fd5b60005b83811015613e20578181015183820152602001613e08565b83811115613e2f576000848401525b50505050565b7f416363657373436f6e74726f6c3a206163636f756e7420000000000000000000815260008351613e6d816017850160208801613e05565b7f206973206d697373696e6720726f6c65200000000000000000000000000000006017918401918201528351613eaa816028840160208801613e05565b01602801949350505050565b6020815260008251806020840152613ed5816040850160208701613e05565b601f017fffffffffffffffffffffffffffffffffffffffffffffffffffffffffffffffe0169190910160400192915050565b600081613f1657613f16613b3b565b507fffffffffffffffffffffffffffffffffffffffffffffffffffffffffffffffff0190565b7f4e487b7100000000000000000000000000000000000000000000000000000000600052603160045260246000fd5b60008251613f7d818460208701613e05565b919091019291505056fea2646970667358221220bc28106dc097dc648d6379ef07eeeaf7eb327be6e2002fb553c1e0883ee8d02964736f6c634300080d0033",
  "linkReferences": {},
  "deployedLinkReferences": {}
}