{
  "_format": "hh-sol-artifact-1",
  "contractName": "Oracle",
  "sourceName": "contracts/Oracle.sol",
  "abi": [
    {
      "inputs": [
        {
          "internalType": "address",
          "name": "spookyPair_",
          "type": "address"
        },
        {
          "internalType": "address",
          "name": "spookyV2Router_",
          "type": "address"
        },
        {
          "internalType": "address",
          "name": "ftmUsdPriceFeed_",
          "type": "address"
        },
        {
          "internalType": "address",
          "name": "muon_",
          "type": "address"
        },
        {
          "internalType": "uint32",
          "name": "appId_",
          "type": "uint32"
        },
        {
          "internalType": "uint256",
          "name": "minimumRequiredSignatures_",
          "type": "uint256"
        },
        {
          "internalType": "uint256",
          "name": "validEpoch_",
          "type": "uint256"
        },
        {
          "internalType": "uint256",
          "name": "onChainThreshold_",
          "type": "uint256"
        },
        {
          "internalType": "uint256",
          "name": "muonThreshold_",
          "type": "uint256"
        },
        {
          "internalType": "address",
          "name": "admin",
          "type": "address"
        },
        {
          "internalType": "address",
          "name": "setter",
          "type": "address"
        }
      ],
      "stateMutability": "nonpayable",
      "type": "constructor"
    },
    {
      "anonymous": false,
      "inputs": [
        {
          "indexed": true,
          "internalType": "bytes32",
          "name": "role",
          "type": "bytes32"
        },
        {
          "indexed": true,
          "internalType": "bytes32",
          "name": "previousAdminRole",
          "type": "bytes32"
        },
        {
          "indexed": true,
          "internalType": "bytes32",
          "name": "newAdminRole",
          "type": "bytes32"
        }
      ],
      "name": "RoleAdminChanged",
      "type": "event"
    },
    {
      "anonymous": false,
      "inputs": [
        {
          "indexed": true,
          "internalType": "bytes32",
          "name": "role",
          "type": "bytes32"
        },
        {
          "indexed": true,
          "internalType": "address",
          "name": "account",
          "type": "address"
        },
        {
          "indexed": true,
          "internalType": "address",
          "name": "sender",
          "type": "address"
        }
      ],
      "name": "RoleGranted",
      "type": "event"
    },
    {
      "anonymous": false,
      "inputs": [
        {
          "indexed": true,
          "internalType": "bytes32",
          "name": "role",
          "type": "bytes32"
        },
        {
          "indexed": true,
          "internalType": "address",
          "name": "account",
          "type": "address"
        },
        {
          "indexed": true,
          "internalType": "address",
          "name": "sender",
          "type": "address"
        }
      ],
      "name": "RoleRevoked",
      "type": "event"
    },
    {
      "anonymous": false,
      "inputs": [
        {
          "indexed": false,
          "internalType": "uint32",
          "name": "oldValue",
          "type": "uint32"
        },
        {
          "indexed": false,
          "internalType": "uint32",
          "name": "newValue",
          "type": "uint32"
        }
      ],
      "name": "SetAppId",
      "type": "event"
    },
    {
      "anonymous": false,
      "inputs": [
        {
          "indexed": false,
          "internalType": "uint256",
          "name": "oldValue",
          "type": "uint256"
        },
        {
          "indexed": false,
          "internalType": "uint256",
          "name": "newValue",
          "type": "uint256"
        }
      ],
      "name": "SetMinimumRequiredSignatures",
      "type": "event"
    },
    {
      "anonymous": false,
      "inputs": [
        {
          "indexed": false,
          "internalType": "address",
          "name": "oldValue",
          "type": "address"
        },
        {
          "indexed": false,
          "internalType": "address",
          "name": "newValue",
          "type": "address"
        }
      ],
      "name": "SetMuon",
      "type": "event"
    },
    {
      "anonymous": false,
      "inputs": [
        {
          "indexed": false,
          "internalType": "uint256",
          "name": "oldValue",
          "type": "uint256"
        },
        {
          "indexed": false,
          "internalType": "uint256",
          "name": "newValue",
          "type": "uint256"
        }
      ],
      "name": "SetValiTime",
      "type": "event"
    },
    {
      "anonymous": false,
      "inputs": [
        {
          "indexed": false,
          "internalType": "uint256",
          "name": "oldValue",
          "type": "uint256"
        },
        {
          "indexed": false,
          "internalType": "uint256",
          "name": "newValue",
          "type": "uint256"
        }
      ],
      "name": "SetValidEpoch",
      "type": "event"
    },
    {
      "inputs": [],
      "name": "DEFAULT_ADMIN_ROLE",
      "outputs": [
        {
          "internalType": "bytes32",
          "name": "",
          "type": "bytes32"
        }
      ],
      "stateMutability": "view",
      "type": "function"
    },
    {
      "inputs": [],
      "name": "SETTER_ROLE",
      "outputs": [
        {
          "internalType": "bytes32",
          "name": "",
          "type": "bytes32"
        }
      ],
      "stateMutability": "view",
      "type": "function"
    },
    {
      "inputs": [],
      "name": "appId",
      "outputs": [
        {
          "internalType": "uint32",
          "name": "",
          "type": "uint32"
        }
      ],
      "stateMutability": "view",
      "type": "function"
    },
    {
      "inputs": [],
      "name": "ftmUsdPriceFeed",
      "outputs": [
        {
          "internalType": "address",
          "name": "",
          "type": "address"
        }
      ],
      "stateMutability": "view",
      "type": "function"
    },
    {
      "inputs": [],
      "name": "getOnChainPrice",
      "outputs": [
        {
          "internalType": "uint256",
          "name": "",
          "type": "uint256"
        }
      ],
      "stateMutability": "view",
      "type": "function"
    },
    {
      "inputs": [],
      "name": "getPrice",
      "outputs": [
        {
          "internalType": "uint256",
          "name": "",
          "type": "uint256"
        }
      ],
      "stateMutability": "view",
      "type": "function"
    },
    {
      "inputs": [
        {
          "internalType": "bytes32",
          "name": "role",
          "type": "bytes32"
        }
      ],
      "name": "getRoleAdmin",
      "outputs": [
        {
          "internalType": "bytes32",
          "name": "",
          "type": "bytes32"
        }
      ],
      "stateMutability": "view",
      "type": "function"
    },
    {
      "inputs": [
        {
          "internalType": "bytes32",
          "name": "role",
          "type": "bytes32"
        },
        {
          "internalType": "address",
          "name": "account",
          "type": "address"
        }
      ],
      "name": "grantRole",
      "outputs": [],
      "stateMutability": "nonpayable",
      "type": "function"
    },
    {
      "inputs": [
        {
          "internalType": "bytes32",
          "name": "role",
          "type": "bytes32"
        },
        {
          "internalType": "address",
          "name": "account",
          "type": "address"
        }
      ],
      "name": "hasRole",
      "outputs": [
        {
          "internalType": "bool",
          "name": "",
          "type": "bool"
        }
      ],
      "stateMutability": "view",
      "type": "function"
    },
    {
      "inputs": [],
      "name": "lastPriceUpdate",
      "outputs": [
        {
          "internalType": "uint256",
          "name": "",
          "type": "uint256"
        }
      ],
      "stateMutability": "view",
      "type": "function"
    },
    {
      "inputs": [],
      "name": "minimumRequiredSignatures",
      "outputs": [
        {
          "internalType": "uint256",
          "name": "",
          "type": "uint256"
        }
      ],
      "stateMutability": "view",
      "type": "function"
    },
    {
      "inputs": [],
      "name": "muon",
      "outputs": [
        {
          "internalType": "address",
          "name": "",
          "type": "address"
        }
      ],
      "stateMutability": "view",
      "type": "function"
    },
    {
      "inputs": [],
      "name": "muonThreshold",
      "outputs": [
        {
          "internalType": "uint256",
          "name": "",
          "type": "uint256"
        }
      ],
      "stateMutability": "view",
      "type": "function"
    },
    {
      "inputs": [],
      "name": "onChainThreshold",
      "outputs": [
        {
          "internalType": "uint256",
          "name": "",
          "type": "uint256"
        }
      ],
      "stateMutability": "view",
      "type": "function"
    },
    {
      "inputs": [
        {
          "internalType": "bytes32",
          "name": "role",
          "type": "bytes32"
        },
        {
          "internalType": "address",
          "name": "account",
          "type": "address"
        }
      ],
      "name": "renounceRole",
      "outputs": [],
      "stateMutability": "nonpayable",
      "type": "function"
    },
    {
      "inputs": [
        {
          "internalType": "bytes32",
          "name": "role",
          "type": "bytes32"
        },
        {
          "internalType": "address",
          "name": "account",
          "type": "address"
        }
      ],
      "name": "revokeRole",
      "outputs": [],
      "stateMutability": "nonpayable",
      "type": "function"
    },
    {
      "inputs": [
        {
          "internalType": "uint32",
          "name": "appId_",
          "type": "uint32"
        }
      ],
      "name": "setAppId",
      "outputs": [],
      "stateMutability": "nonpayable",
      "type": "function"
    },
    {
      "inputs": [
        {
          "internalType": "uint256",
          "name": "minimumRequiredSignatures_",
          "type": "uint256"
        }
      ],
      "name": "setMinimumRequiredSignatures",
      "outputs": [],
      "stateMutability": "nonpayable",
      "type": "function"
    },
    {
      "inputs": [
        {
          "internalType": "address",
          "name": "muon_",
          "type": "address"
        }
      ],
      "name": "setMuon",
      "outputs": [],
      "stateMutability": "nonpayable",
      "type": "function"
    },
    {
      "inputs": [
        {
          "components": [
            {
              "internalType": "uint256",
              "name": "price",
              "type": "uint256"
            },
            {
              "internalType": "uint256",
              "name": "timestamp",
              "type": "uint256"
            },
            {
              "internalType": "bytes",
              "name": "reqId",
              "type": "bytes"
            },
            {
              "components": [
                {
                  "internalType": "uint256",
                  "name": "signature",
                  "type": "uint256"
                },
                {
                  "internalType": "address",
                  "name": "owner",
                  "type": "address"
                },
                {
                  "internalType": "address",
                  "name": "nonce",
                  "type": "address"
                }
              ],
              "internalType": "struct SchnorrSign[]",
              "name": "sigs",
              "type": "tuple[]"
            }
          ],
          "internalType": "struct IOracle.Signature",
          "name": "signature",
          "type": "tuple"
        }
      ],
      "name": "setPrice",
      "outputs": [],
      "stateMutability": "nonpayable",
      "type": "function"
    },
    {
      "inputs": [
        {
          "internalType": "uint256",
          "name": "validEpoch_",
          "type": "uint256"
        }
      ],
      "name": "setValidEpoch",
      "outputs": [],
      "stateMutability": "nonpayable",
      "type": "function"
    },
    {
      "inputs": [],
      "name": "spookyPair",
      "outputs": [
        {
          "internalType": "address",
          "name": "",
          "type": "address"
        }
      ],
      "stateMutability": "view",
      "type": "function"
    },
    {
      "inputs": [],
      "name": "spookyV2Router",
      "outputs": [
        {
          "internalType": "address",
          "name": "",
          "type": "address"
        }
      ],
      "stateMutability": "view",
      "type": "function"
    },
    {
      "inputs": [
        {
          "internalType": "bytes4",
          "name": "interfaceId",
          "type": "bytes4"
        }
      ],
      "name": "supportsInterface",
      "outputs": [
        {
          "internalType": "bool",
          "name": "",
          "type": "bool"
        }
      ],
      "stateMutability": "view",
      "type": "function"
    },
    {
      "inputs": [],
      "name": "validEpoch",
      "outputs": [
        {
          "internalType": "uint256",
          "name": "",
          "type": "uint256"
        }
      ],
      "stateMutability": "view",
      "type": "function"
    }
  ],
  "bytecode": "0x60806040523480156200001157600080fd5b5060405162001ed238038062001ed2833981016040819052620000349162000287565b6001600160a01b038b16158015906200005557506001600160a01b038a1615155b80156200006a57506001600160a01b03891615155b80156200007f57506001600160a01b03881615155b80156200009457506001600160a01b03821615155b8015620000a957506001600160a01b03811615155b620000fa5760405162461bcd60e51b815260206004820152601d60248201527f4f7261636c653a205a45524f5f414444524553535f4445544543544544000000604482015260640160405180910390fd5b600180546001600160a01b03199081166001600160a01b038e8116919091179092556002805482168d8416179055600380549091168b831617905560048054918a166001600160c01b031990921691909117600160a01b63ffffffff8a160217905560068590556007849055600883905560058690556200017d600083620001ba565b620001a97f61c92169ef077349011ff0b1383c894d86c5f0b41d986366b58a6cf31e93beda82620001ba565b505050505050505050505062000352565b620001c68282620001ca565b5050565b6000828152602081815260408083206001600160a01b038516845290915290205460ff16620001c6576000828152602081815260408083206001600160a01b03851684529091529020805460ff19166001179055620002263390565b6001600160a01b0316816001600160a01b0316837f2f8788117e7eff1d82e926ec794901d17c78024a50270940304540a733656f0d60405160405180910390a45050565b80516001600160a01b03811681146200028257600080fd5b919050565b60008060008060008060008060008060006101608c8e031215620002aa57600080fd5b620002b58c6200026a565b9a50620002c560208d016200026a565b9950620002d560408d016200026a565b9850620002e560608d016200026a565b975060808c015163ffffffff81168114620002ff57600080fd5b8097505060a08c0151955060c08c0151945060e08c015193506101008c015192506200032f6101208d016200026a565b9150620003406101408d016200026a565b90509295989b509295989b9093969950565b611b7080620003626000396000f3fe608060405234801561001057600080fd5b50600436106101a35760003560e01c806391d14854116100ee578063bd2a9d2c11610097578063d5681d9c11610071578063d5681d9c146103e8578063e35d1653146103f1578063f06711cb146103fa578063f7ae9b6e1461041a57600080fd5b8063bd2a9d2c146103ad578063c0f2553d146103b5578063d547741f146103d557600080fd5b8063a2011b3f116100c8578063a2011b3f1461035e578063a217fddf14610385578063a828569c1461038d57600080fd5b806391d148541461030957806398d5fdca1461034d5780639b3467041461035557600080fd5b806336568abe1161015057806377ee96c71161012a57806377ee96c7146102a657806380afdea8146102b95780638e9999ac146102f657600080fd5b806336568abe146102775780633708af921461028a5780636949faeb1461029d57600080fd5b8063248a9ca311610181578063248a9ca31461022a5780632f2ff15d1461025b57806331cac1ad1461026e57600080fd5b806301ffc9a7146101a857806311490d29146101d05780631607df9e14610215575b600080fd5b6101bb6101b63660046113e0565b61042d565b60405190151581526020015b60405180910390f35b6004546101f09073ffffffffffffffffffffffffffffffffffffffff1681565b60405173ffffffffffffffffffffffffffffffffffffffff90911681526020016101c7565b610228610223366004611422565b6104c6565b005b61024d610238366004611422565b60009081526020819052604090206001015490565b6040519081526020016101c7565b610228610269366004611464565b610532565b61024d60075481565b610228610285366004611464565b61055c565b610228610298366004611616565b610614565b61024d600a5481565b6102286102b436600461172a565b61096a565b6004546102e19074010000000000000000000000000000000000000000900463ffffffff1681565b60405163ffffffff90911681526020016101c7565b610228610304366004611757565b610a30565b6101bb610317366004611464565b60009182526020828152604080842073ffffffffffffffffffffffffffffffffffffffff93909316845291905290205460ff1690565b61024d610b06565b61024d60065481565b61024d7f61c92169ef077349011ff0b1383c894d86c5f0b41d986366b58a6cf31e93beda81565b61024d600081565b6001546101f09073ffffffffffffffffffffffffffffffffffffffff1681565b61024d610cd1565b6002546101f09073ffffffffffffffffffffffffffffffffffffffff1681565b6102286103e3366004611464565b610e81565b61024d60085481565b61024d60055481565b6003546101f09073ffffffffffffffffffffffffffffffffffffffff1681565b610228610428366004611422565b610ea6565b60007fffffffff0000000000000000000000000000000000000000000000000000000082167f7965db0b0000000000000000000000000000000000000000000000000000000014806104c057507f01ffc9a7000000000000000000000000000000000000000000000000000000007fffffffff000000000000000000000000000000000000000000000000000000008316145b92915050565b7f61c92169ef077349011ff0b1383c894d86c5f0b41d986366b58a6cf31e93beda6104f081610f12565b60065460408051918252602082018490527f6715e681c0e25309ee129635cc00a0c2e18a6ba3bd351fc4e2cc43c18a42e6e2910160405180910390a150600655565b60008281526020819052604090206001015461054d81610f12565b6105578383610f1f565b505050565b73ffffffffffffffffffffffffffffffffffffffff81163314610606576040517f08c379a000000000000000000000000000000000000000000000000000000000815260206004820152602f60248201527f416363657373436f6e74726f6c3a2063616e206f6e6c792072656e6f756e636560448201527f20726f6c657320666f722073656c66000000000000000000000000000000000060648201526084015b60405180910390fd5b610610828261100f565b5050565b6005548160600151511015610685576040517f08c379a000000000000000000000000000000000000000000000000000000000815260206004820152601f60248201527f4f7261636c653a20494e53554646494349454e545f5349474e4154555245530060448201526064016105fd565b42600654826020015161069891906117a3565b1015610700576040517f08c379a000000000000000000000000000000000000000000000000000000000815260206004820152601960248201527f4f7261636c653a205349474e41545552455f455850495245440000000000000060448201526064016105fd565b600061070a610cd1565b905060008260000151821061073e578251829061072f90670de0b6b3a76400006117bb565b61073991906117f8565b61075c565b825161075283670de0b6b3a76400006117bb565b61075c91906117f8565b60085490915061077482670de0b6b3a7640000611833565b106107db576040517f08c379a000000000000000000000000000000000000000000000000000000000815260206004820152601160248201527f4f5241434c453a2050524943455f47415000000000000000000000000000000060448201526064016105fd565b6004548351602080860151604080517fffffffff0000000000000000000000000000000000000000000000000000000074010000000000000000000000000000000000000000870460e01b168185015260248101949094526044808501929092528051808503909201825260648401808252825192909301919091209087015160608801517fe80876cf00000000000000000000000000000000000000000000000000000000909352909373ffffffffffffffffffffffffffffffffffffffff169263e80876cf926108b392918691906068016118c4565b6020604051808303816000875af11580156108d2573d6000803e3d6000fd5b505050506040513d601f19601f820116820180604052508101906108f69190611951565b61095c576040517f08c379a000000000000000000000000000000000000000000000000000000000815260206004820152601d60248201527f4f7261636c653a20554e56455249464945445f5349474e41545552455300000060448201526064016105fd565b505090516009555042600a55565b7f61c92169ef077349011ff0b1383c894d86c5f0b41d986366b58a6cf31e93beda61099481610f12565b6004546040805173ffffffffffffffffffffffffffffffffffffffff928316815291841660208301527f4c8697ba13ff39b68a4162330fe12e737d6730d7057a6559a8fadfbfdafab8e1910160405180910390a150600480547fffffffffffffffffffffffff00000000000000000000000000000000000000001673ffffffffffffffffffffffffffffffffffffffff92909216919091179055565b7f61c92169ef077349011ff0b1383c894d86c5f0b41d986366b58a6cf31e93beda610a5a81610f12565b6004546040805163ffffffff740100000000000000000000000000000000000000009093048316815291841660208301527fc11199c9503e4170ffa9169992e543acf16753412b171bfe973cab923dfcf7d1910160405180910390a1506004805463ffffffff90921674010000000000000000000000000000000000000000027fffffffffffffffff00000000ffffffffffffffffffffffffffffffffffffffff909216919091179055565b600042600654600a54610b1991906117a3565b1015610b81576040517f08c379a000000000000000000000000000000000000000000000000000000000815260206004820152601560248201527f4f7261636c653a2050524943455f45585049524544000000000000000000000060448201526064016105fd565b42600a5410610bec576040517f08c379a000000000000000000000000000000000000000000000000000000000815260206004820152601d60248201527f4f7261636c653a204745545f50524943455f4e4f545f414c4c4f57454400000060448201526064016105fd565b6000610bf6610cd1565b905060006009548210610c295781600954670de0b6b3a7640000610c1a91906117bb565b610c2491906117f8565b610c48565b600954610c3e83670de0b6b3a76400006117bb565b610c4891906117f8565b600754909150610c6082670de0b6b3a7640000611833565b10610cc7576040517f08c379a000000000000000000000000000000000000000000000000000000000815260206004820152601960248201527f4f5241434c453a204f4e434841494e5f50524943455f4741500000000000000060448201526064016105fd565b6009549250505090565b6000806000600160009054906101000a900473ffffffffffffffffffffffffffffffffffffffff1673ffffffffffffffffffffffffffffffffffffffff16630902f1ac6040518163ffffffff1660e01b8152600401606060405180830381865afa158015610d43573d6000803e3d6000fd5b505050506040513d601f19601f82011682018060405250810190610d679190611991565b506dffffffffffffffffffffffffffff1691506dffffffffffffffffffffffffffff1691506000600360009054906101000a900473ffffffffffffffffffffffffffffffffffffffff1673ffffffffffffffffffffffffffffffffffffffff1663feaf968c6040518163ffffffff1660e01b815260040160a060405180830381865afa158015610dfb573d6000803e3d6000fd5b505050506040513d601f19601f82011682018060405250810190610e1f91906119f2565b5091935083925060009150849050610e3f86670de0b6b3a76400006117bb565b610e4991906117f8565b9050670de0b6b3a7640000610e5e83836117bb565b610e6d906402540be4006117bb565b610e7791906117f8565b9550505050505090565b600082815260208190526040902060010154610e9c81610f12565b610557838361100f565b7f61c92169ef077349011ff0b1383c894d86c5f0b41d986366b58a6cf31e93beda610ed081610f12565b60055460408051918252602082018490527f092a1c3df5a46c69efd992cb36b8936380869a45e840ac982b066e80e9ff1643910160405180910390a150600555565b610f1c81336110c6565b50565b60008281526020818152604080832073ffffffffffffffffffffffffffffffffffffffff8516845290915290205460ff166106105760008281526020818152604080832073ffffffffffffffffffffffffffffffffffffffff85168452909152902080547fffffffffffffffffffffffffffffffffffffffffffffffffffffffffffffff00166001179055610fb13390565b73ffffffffffffffffffffffffffffffffffffffff168173ffffffffffffffffffffffffffffffffffffffff16837f2f8788117e7eff1d82e926ec794901d17c78024a50270940304540a733656f0d60405160405180910390a45050565b60008281526020818152604080832073ffffffffffffffffffffffffffffffffffffffff8516845290915290205460ff16156106105760008281526020818152604080832073ffffffffffffffffffffffffffffffffffffffff8516808552925280832080547fffffffffffffffffffffffffffffffffffffffffffffffffffffffffffffff0016905551339285917ff6391f5c32d9c69d2a47ea670b442974b53935d1edc7fd64eb21e047a839171b9190a45050565b60008281526020818152604080832073ffffffffffffffffffffffffffffffffffffffff8516845290915290205460ff166106105761111c8173ffffffffffffffffffffffffffffffffffffffff166014611196565b611127836020611196565b604051602001611138929190611a42565b604080517fffffffffffffffffffffffffffffffffffffffffffffffffffffffffffffffe0818403018152908290527f08c379a00000000000000000000000000000000000000000000000000000000082526105fd91600401611ac3565b606060006111a58360026117bb565b6111b09060026117a3565b67ffffffffffffffff8111156111c8576111c8611490565b6040519080825280601f01601f1916602001820160405280156111f2576020820181803683370190505b5090507f30000000000000000000000000000000000000000000000000000000000000008160008151811061122957611229611ad6565b60200101907effffffffffffffffffffffffffffffffffffffffffffffffffffffffffffff1916908160001a9053507f78000000000000000000000000000000000000000000000000000000000000008160018151811061128c5761128c611ad6565b60200101907effffffffffffffffffffffffffffffffffffffffffffffffffffffffffffff1916908160001a90535060006112c88460026117bb565b6112d39060016117a3565b90505b6001811115611370577f303132333435363738396162636465660000000000000000000000000000000085600f166010811061131457611314611ad6565b1a60f81b82828151811061132a5761132a611ad6565b60200101907effffffffffffffffffffffffffffffffffffffffffffffffffffffffffffff1916908160001a90535060049490941c9361136981611b05565b90506112d6565b5083156113d9576040517f08c379a000000000000000000000000000000000000000000000000000000000815260206004820181905260248201527f537472696e67733a20686578206c656e67746820696e73756666696369656e7460448201526064016105fd565b9392505050565b6000602082840312156113f257600080fd5b81357fffffffff00000000000000000000000000000000000000000000000000000000811681146113d957600080fd5b60006020828403121561143457600080fd5b5035919050565b803573ffffffffffffffffffffffffffffffffffffffff8116811461145f57600080fd5b919050565b6000806040838503121561147757600080fd5b823591506114876020840161143b565b90509250929050565b7f4e487b7100000000000000000000000000000000000000000000000000000000600052604160045260246000fd5b6040516060810167ffffffffffffffff811182821017156114e2576114e2611490565b60405290565b6040516080810167ffffffffffffffff811182821017156114e2576114e2611490565b604051601f82017fffffffffffffffffffffffffffffffffffffffffffffffffffffffffffffffe016810167ffffffffffffffff8111828210171561155257611552611490565b604052919050565b600082601f83011261156b57600080fd5b8135602067ffffffffffffffff82111561158757611587611490565b611595818360051b0161150b565b828152606092830285018201928282019190878511156115b457600080fd5b8387015b858110156116095781818a0312156115d05760008081fd5b6115d86114bf565b813581526115e786830161143b565b8682015260406115f881840161143b565b9082015284529284019281016115b8565b5090979650505050505050565b6000602080838503121561162957600080fd5b823567ffffffffffffffff8082111561164157600080fd5b908401906080828703121561165557600080fd5b61165d6114e8565b82358152838301358482015260408301358281111561167b57600080fd5b8301601f8101881361168c57600080fd5b80358381111561169e5761169e611490565b6116ce867fffffffffffffffffffffffffffffffffffffffffffffffffffffffffffffffe0601f8401160161150b565b81815289878385010111156116e257600080fd5b81878401888301376000878383010152806040850152505050606083013593508184111561170f57600080fd5b61171b8785850161155a565b60608201529695505050505050565b60006020828403121561173c57600080fd5b6113d98261143b565b63ffffffff81168114610f1c57600080fd5b60006020828403121561176957600080fd5b81356113d981611745565b7f4e487b7100000000000000000000000000000000000000000000000000000000600052601160045260246000fd5b600082198211156117b6576117b6611774565b500190565b6000817fffffffffffffffffffffffffffffffffffffffffffffffffffffffffffffffff04831182151516156117f3576117f3611774565b500290565b60008261182e577f4e487b7100000000000000000000000000000000000000000000000000000000600052601260045260246000fd5b500490565b60008282101561184557611845611774565b500390565b60005b8381101561186557818101518382015260200161184d565b83811115611874576000848401525b50505050565b6000815180845261189281602086016020860161184a565b601f017fffffffffffffffffffffffffffffffffffffffffffffffffffffffffffffffe0169290920160200192915050565b600060608083526118d78184018761187a565b602086818601526040858303818701528287518085528385019150838901945060005b81811015611941578551805184528581015173ffffffffffffffffffffffffffffffffffffffff9081168786015290850151168484015294840194918601916001016118fa565b50909a9950505050505050505050565b60006020828403121561196357600080fd5b815180151581146113d957600080fd5b80516dffffffffffffffffffffffffffff8116811461145f57600080fd5b6000806000606084860312156119a657600080fd5b6119af84611973565b92506119bd60208501611973565b915060408401516119cd81611745565b809150509250925092565b805169ffffffffffffffffffff8116811461145f57600080fd5b600080600080600060a08688031215611a0a57600080fd5b611a13866119d8565b9450602086015193506040860151925060608601519150611a36608087016119d8565b90509295509295909350565b7f416363657373436f6e74726f6c3a206163636f756e7420000000000000000000815260008351611a7a81601785016020880161184a565b7f206973206d697373696e6720726f6c65200000000000000000000000000000006017918401918201528351611ab781602884016020880161184a565b01602801949350505050565b6020815260006113d9602083018461187a565b7f4e487b7100000000000000000000000000000000000000000000000000000000600052603260045260246000fd5b600081611b1457611b14611774565b507fffffffffffffffffffffffffffffffffffffffffffffffffffffffffffffffff019056fea26469706673582212207dd9f6ecbb1a6ad129b970aca7aac57294623c6a4f217634b3297b07cd55e7df64736f6c634300080d0033",
  "linkReferences": {},
  "deployedLinkReferences": {}
}