{
  "_format": "hh-sol-artifact-1",
  "contractName": "BondNFT",
  "sourceName": "contracts/BondNFT.sol",
  "abi": [
    {
      "inputs": [
        {
          "internalType": "address",
          "name": "admin",
          "type": "address"
        }
      ],
      "stateMutability": "nonpayable",
      "type": "constructor"
    },
    {
      "anonymous": false,
      "inputs": [
        {
          "indexed": true,
          "internalType": "address",
          "name": "owner",
          "type": "address"
        },
        {
          "indexed": true,
          "internalType": "address",
          "name": "approved",
          "type": "address"
        },
        {
          "indexed": true,
          "internalType": "uint256",
          "name": "tokenId",
          "type": "uint256"
        }
      ],
      "name": "Approval",
      "type": "event"
    },
    {
      "anonymous": false,
      "inputs": [
        {
          "indexed": true,
          "internalType": "address",
          "name": "owner",
          "type": "address"
        },
        {
          "indexed": true,
          "internalType": "address",
          "name": "operator",
          "type": "address"
        },
        {
          "indexed": false,
          "internalType": "bool",
          "name": "approved",
          "type": "bool"
        }
      ],
      "name": "ApprovalForAll",
      "type": "event"
    },
    {
      "anonymous": false,
      "inputs": [
        {
          "indexed": true,
          "internalType": "bytes32",
          "name": "role",
          "type": "bytes32"
        },
        {
          "indexed": true,
          "internalType": "bytes32",
          "name": "previousAdminRole",
          "type": "bytes32"
        },
        {
          "indexed": true,
          "internalType": "bytes32",
          "name": "newAdminRole",
          "type": "bytes32"
        }
      ],
      "name": "RoleAdminChanged",
      "type": "event"
    },
    {
      "anonymous": false,
      "inputs": [
        {
          "indexed": true,
          "internalType": "bytes32",
          "name": "role",
          "type": "bytes32"
        },
        {
          "indexed": true,
          "internalType": "address",
          "name": "account",
          "type": "address"
        },
        {
          "indexed": true,
          "internalType": "address",
          "name": "sender",
          "type": "address"
        }
      ],
      "name": "RoleGranted",
      "type": "event"
    },
    {
      "anonymous": false,
      "inputs": [
        {
          "indexed": true,
          "internalType": "bytes32",
          "name": "role",
          "type": "bytes32"
        },
        {
          "indexed": true,
          "internalType": "address",
          "name": "account",
          "type": "address"
        },
        {
          "indexed": true,
          "internalType": "address",
          "name": "sender",
          "type": "address"
        }
      ],
      "name": "RoleRevoked",
      "type": "event"
    },
    {
      "anonymous": false,
      "inputs": [
        {
          "indexed": true,
          "internalType": "address",
          "name": "from",
          "type": "address"
        },
        {
          "indexed": true,
          "internalType": "address",
          "name": "to",
          "type": "address"
        },
        {
          "indexed": true,
          "internalType": "uint256",
          "name": "tokenId",
          "type": "uint256"
        }
      ],
      "name": "Transfer",
      "type": "event"
    },
    {
      "inputs": [],
      "name": "BOND_SETTER_ROLE",
      "outputs": [
        {
          "internalType": "bytes32",
          "name": "",
          "type": "bytes32"
        }
      ],
      "stateMutability": "view",
      "type": "function"
    },
    {
      "inputs": [],
      "name": "DEFAULT_ADMIN_ROLE",
      "outputs": [
        {
          "internalType": "bytes32",
          "name": "",
          "type": "bytes32"
        }
      ],
      "stateMutability": "view",
      "type": "function"
    },
    {
      "inputs": [],
      "name": "MINTER_ROLE",
      "outputs": [
        {
          "internalType": "bytes32",
          "name": "",
          "type": "bytes32"
        }
      ],
      "stateMutability": "view",
      "type": "function"
    },
    {
      "inputs": [
        {
          "internalType": "address",
          "name": "to",
          "type": "address"
        },
        {
          "internalType": "uint256",
          "name": "tokenId",
          "type": "uint256"
        }
      ],
      "name": "approve",
      "outputs": [],
      "stateMutability": "nonpayable",
      "type": "function"
    },
    {
      "inputs": [
        {
          "internalType": "address",
          "name": "owner",
          "type": "address"
        }
      ],
      "name": "balanceOf",
      "outputs": [
        {
          "internalType": "uint256",
          "name": "",
          "type": "uint256"
        }
      ],
      "stateMutability": "view",
      "type": "function"
    },
    {
      "inputs": [
        {
          "internalType": "uint256",
          "name": "",
          "type": "uint256"
        }
      ],
      "name": "bondContract",
      "outputs": [
        {
          "internalType": "address",
          "name": "",
          "type": "address"
        }
      ],
      "stateMutability": "view",
      "type": "function"
    },
    {
      "inputs": [
        {
          "internalType": "uint256",
          "name": "tokenId",
          "type": "uint256"
        },
        {
          "internalType": "address",
          "name": "bondContract_",
          "type": "address"
        }
      ],
      "name": "changeTokenBond",
      "outputs": [],
      "stateMutability": "nonpayable",
      "type": "function"
    },
    {
      "inputs": [
        {
          "internalType": "uint256",
          "name": "tokenId",
          "type": "uint256"
        }
      ],
      "name": "getApproved",
      "outputs": [
        {
          "internalType": "address",
          "name": "",
          "type": "address"
        }
      ],
      "stateMutability": "view",
      "type": "function"
    },
    {
      "inputs": [
        {
          "internalType": "bytes32",
          "name": "role",
          "type": "bytes32"
        }
      ],
      "name": "getRoleAdmin",
      "outputs": [
        {
          "internalType": "bytes32",
          "name": "",
          "type": "bytes32"
        }
      ],
      "stateMutability": "view",
      "type": "function"
    },
    {
      "inputs": [
        {
          "internalType": "bytes32",
          "name": "role",
          "type": "bytes32"
        },
        {
          "internalType": "address",
          "name": "account",
          "type": "address"
        }
      ],
      "name": "grantRole",
      "outputs": [],
      "stateMutability": "nonpayable",
      "type": "function"
    },
    {
      "inputs": [
        {
          "internalType": "bytes32",
          "name": "role",
          "type": "bytes32"
        },
        {
          "internalType": "address",
          "name": "account",
          "type": "address"
        }
      ],
      "name": "hasRole",
      "outputs": [
        {
          "internalType": "bool",
          "name": "",
          "type": "bool"
        }
      ],
      "stateMutability": "view",
      "type": "function"
    },
    {
      "inputs": [
        {
          "internalType": "address",
          "name": "owner",
          "type": "address"
        },
        {
          "internalType": "address",
          "name": "operator",
          "type": "address"
        }
      ],
      "name": "isApprovedForAll",
      "outputs": [
        {
          "internalType": "bool",
          "name": "",
          "type": "bool"
        }
      ],
      "stateMutability": "view",
      "type": "function"
    },
    {
      "inputs": [
        {
          "internalType": "address",
          "name": "user",
          "type": "address"
        },
        {
          "internalType": "address",
          "name": "bondContract_",
          "type": "address"
        }
      ],
      "name": "mint",
      "outputs": [
        {
          "internalType": "uint256",
          "name": "",
          "type": "uint256"
        }
      ],
      "stateMutability": "nonpayable",
      "type": "function"
    },
    {
      "inputs": [],
      "name": "name",
      "outputs": [
        {
          "internalType": "string",
          "name": "",
          "type": "string"
        }
      ],
      "stateMutability": "view",
      "type": "function"
    },
    {
      "inputs": [
        {
          "internalType": "uint256",
          "name": "tokenId",
          "type": "uint256"
        }
      ],
      "name": "ownerOf",
      "outputs": [
        {
          "internalType": "address",
          "name": "",
          "type": "address"
        }
      ],
      "stateMutability": "view",
      "type": "function"
    },
    {
      "inputs": [
        {
          "internalType": "bytes32",
          "name": "role",
          "type": "bytes32"
        },
        {
          "internalType": "address",
          "name": "account",
          "type": "address"
        }
      ],
      "name": "renounceRole",
      "outputs": [],
      "stateMutability": "nonpayable",
      "type": "function"
    },
    {
      "inputs": [
        {
          "internalType": "bytes32",
          "name": "role",
          "type": "bytes32"
        },
        {
          "internalType": "address",
          "name": "account",
          "type": "address"
        }
      ],
      "name": "revokeRole",
      "outputs": [],
      "stateMutability": "nonpayable",
      "type": "function"
    },
    {
      "inputs": [
        {
          "internalType": "address",
          "name": "from",
          "type": "address"
        },
        {
          "internalType": "address",
          "name": "to",
          "type": "address"
        },
        {
          "internalType": "uint256",
          "name": "tokenId",
          "type": "uint256"
        }
      ],
      "name": "safeTransferFrom",
      "outputs": [],
      "stateMutability": "nonpayable",
      "type": "function"
    },
    {
      "inputs": [
        {
          "internalType": "address",
          "name": "from",
          "type": "address"
        },
        {
          "internalType": "address",
          "name": "to",
          "type": "address"
        },
        {
          "internalType": "uint256",
          "name": "tokenId",
          "type": "uint256"
        },
        {
          "internalType": "bytes",
          "name": "_data",
          "type": "bytes"
        }
      ],
      "name": "safeTransferFrom",
      "outputs": [],
      "stateMutability": "nonpayable",
      "type": "function"
    },
    {
      "inputs": [
        {
          "internalType": "address",
          "name": "operator",
          "type": "address"
        },
        {
          "internalType": "bool",
          "name": "approved",
          "type": "bool"
        }
      ],
      "name": "setApprovalForAll",
      "outputs": [],
      "stateMutability": "nonpayable",
      "type": "function"
    },
    {
      "inputs": [
        {
          "internalType": "bytes4",
          "name": "_interfaceID",
          "type": "bytes4"
        }
      ],
      "name": "supportsInterface",
      "outputs": [
        {
          "internalType": "bool",
          "name": "",
          "type": "bool"
        }
      ],
      "stateMutability": "view",
      "type": "function"
    },
    {
      "inputs": [],
      "name": "symbol",
      "outputs": [
        {
          "internalType": "string",
          "name": "",
          "type": "string"
        }
      ],
      "stateMutability": "view",
      "type": "function"
    },
    {
      "inputs": [
        {
          "internalType": "uint256",
          "name": "index",
          "type": "uint256"
        }
      ],
      "name": "tokenByIndex",
      "outputs": [
        {
          "internalType": "uint256",
          "name": "",
          "type": "uint256"
        }
      ],
      "stateMutability": "view",
      "type": "function"
    },
    {
      "inputs": [
        {
          "internalType": "address",
          "name": "owner",
          "type": "address"
        },
        {
          "internalType": "uint256",
          "name": "index",
          "type": "uint256"
        }
      ],
      "name": "tokenOfOwnerByIndex",
      "outputs": [
        {
          "internalType": "uint256",
          "name": "",
          "type": "uint256"
        }
      ],
      "stateMutability": "view",
      "type": "function"
    },
    {
      "inputs": [
        {
          "internalType": "uint256",
          "name": "tokenId",
          "type": "uint256"
        }
      ],
      "name": "tokenURI",
      "outputs": [
        {
          "internalType": "string",
          "name": "",
          "type": "string"
        }
      ],
      "stateMutability": "view",
      "type": "function"
    },
    {
      "inputs": [
        {
          "internalType": "address",
          "name": "owner",
          "type": "address"
        }
      ],
      "name": "tokensOf",
      "outputs": [
        {
          "internalType": "uint256[]",
          "name": "",
          "type": "uint256[]"
        }
      ],
      "stateMutability": "view",
      "type": "function"
    },
    {
      "inputs": [],
      "name": "totalSupply",
      "outputs": [
        {
          "internalType": "uint256",
          "name": "",
          "type": "uint256"
        }
      ],
      "stateMutability": "view",
      "type": "function"
    },
    {
      "inputs": [
        {
          "internalType": "address",
          "name": "from",
          "type": "address"
        },
        {
          "internalType": "address",
          "name": "to",
          "type": "address"
        },
        {
          "internalType": "uint256",
          "name": "tokenId",
          "type": "uint256"
        }
      ],
      "name": "transferFrom",
      "outputs": [],
      "stateMutability": "nonpayable",
      "type": "function"
    }
  ],
  "bytecode": "0x60806040523480156200001157600080fd5b5060405162002df438038062002df4833981016040819052620000349162000298565b6040805180820182526008815267446569426f6e647360c01b6020808301918252835180850190945260048452631110939160e21b9084015281519192916200008091600191620001f2565b50805162000096906002906020840190620001f2565b5050600b602052507f6fc4fe54b7713e8c3beb98c1633f1a7c51390dad7f13255e19999c5edaf38b658054600160ff1991821681179092557f58dbcb8b42477ba587235ed21c9227789266bd956417ae5420ec8c31552e27628054821683179055635b5e139f60e01b60009081527f392a5f45591c4d9c05a109aeb535f975c0e2d81925e3ac029c52e6ec2139a20b805490921690921790556200013b908262000142565b5062000306565b6200014e828262000152565b5050565b6000828152602081815260408083206001600160a01b038516845290915290205460ff166200014e576000828152602081815260408083206001600160a01b03851684529091529020805460ff19166001179055620001ae3390565b6001600160a01b0316816001600160a01b0316837f2f8788117e7eff1d82e926ec794901d17c78024a50270940304540a733656f0d60405160405180910390a45050565b8280546200020090620002ca565b90600052602060002090601f0160209004810192826200022457600085556200026f565b82601f106200023f57805160ff19168380011785556200026f565b828001600101855582156200026f579182015b828111156200026f57825182559160200191906001019062000252565b506200027d92915062000281565b5090565b5b808211156200027d576000815560010162000282565b600060208284031215620002ab57600080fd5b81516001600160a01b0381168114620002c357600080fd5b9392505050565b600181811c90821680620002df57607f821691505b6020821081036200030057634e487b7160e01b600052602260045260246000fd5b50919050565b612ade80620003166000396000f3fe608060405234801561001057600080fd5b50600436106101c45760003560e01c80635a3f2672116100f9578063a22cb46511610097578063d539139311610071578063d53913931461046f578063d547741f14610496578063e985e9c5146104a9578063ee1fe2ad146104f257600080fd5b8063a22cb46514610436578063b88d4fde14610449578063c87b56dd1461045c57600080fd5b806370a08231116100d357806370a08231146103cf57806391d14854146103e257806395d89b4114610426578063a217fddf1461042e57600080fd5b80635a3f2672146103755780636352211e1461039557806365996ddd146103a857600080fd5b80632f2ff15d1161016657806342842e0e1161014057806342842e0e146103065780634c0610ab146103195780634f6ccce71461034f57806352b2e11d1461036257600080fd5b80632f2ff15d146102cd5780632f745c59146102e057806336568abe146102f357600080fd5b8063095ea7b3116101a2578063095ea7b31461027057806318160ddd1461028557806323b872dd14610297578063248a9ca3146102aa57600080fd5b806301ffc9a7146101c957806306fdde0314610223578063081812fc14610238575b600080fd5b61020e6101d736600461241a565b7fffffffff00000000000000000000000000000000000000000000000000000000166000908152600b602052604090205460ff1690565b60405190151581526020015b60405180910390f35b61022b610505565b60405161021a91906124ad565b61024b6102463660046124c0565b610597565b60405173ffffffffffffffffffffffffffffffffffffffff909116815260200161021a565b61028361027e366004612502565b610676565b005b6009545b60405190815260200161021a565b6102836102a536600461252c565b610802565b6102896102b83660046124c0565b60009081526020819052604090206001015490565b6102836102db366004612568565b6108a3565b6102896102ee366004612502565b6108c8565b610283610301366004612568565b610997565b61028361031436600461252c565b610a4a565b61024b6103273660046124c0565b600c6020526000908152604090205473ffffffffffffffffffffffffffffffffffffffff1681565b61028961035d3660046124c0565b610a65565b610283610370366004612568565b610b23565b610388610383366004612594565b610ba1565b60405161021a91906125af565b61024b6103a33660046124c0565b610c43565b6102897f628fc4593c8b802027572c9e7ea6deb73ef76623c446d655837ad3a198a0980581565b6102896103dd366004612594565b610cfb565b61020e6103f0366004612568565b60009182526020828152604080842073ffffffffffffffffffffffffffffffffffffffff93909316845291905290205460ff1690565b61022b610dc9565b610289600081565b6102836104443660046125f3565b610dd8565b61028361045736600461265e565b610de3565b61022b61046a3660046124c0565b610e8b565b6102897f9f2df0fed2c77648de5860a4cc508cd0818c85b8b8a1ab4ceeef8d981c8956a681565b6102836104a4366004612568565b610fa8565b61020e6104b7366004612758565b73ffffffffffffffffffffffffffffffffffffffff918216600090815260066020908152604080832093909416825291909152205460ff1690565b610289610500366004612758565b610fcd565b60606001805461051490612782565b80601f016020809104026020016040519081016040528092919081815260200182805461054090612782565b801561058d5780601f106105625761010080835404028352916020019161058d565b820191906000526020600020905b81548152906001019060200180831161057057829003601f168201915b5050505050905090565b60008181526003602052604081205473ffffffffffffffffffffffffffffffffffffffff1661064d576040517f08c379a000000000000000000000000000000000000000000000000000000000815260206004820152602c60248201527f4552433732313a20617070726f76656420717565727920666f72206e6f6e657860448201527f697374656e7420746f6b656e000000000000000000000000000000000000000060648201526084015b60405180910390fd5b5060009081526005602052604090205473ffffffffffffffffffffffffffffffffffffffff1690565b600061068182610c43565b90508073ffffffffffffffffffffffffffffffffffffffff168373ffffffffffffffffffffffffffffffffffffffff160361073e576040517f08c379a000000000000000000000000000000000000000000000000000000000815260206004820152602160248201527f4552433732313a20617070726f76616c20746f2063757272656e74206f776e6560448201527f72000000000000000000000000000000000000000000000000000000000000006064820152608401610644565b3373ffffffffffffffffffffffffffffffffffffffff82161480610767575061076781336104b7565b6107f3576040517f08c379a000000000000000000000000000000000000000000000000000000000815260206004820152603860248201527f4552433732313a20617070726f76652063616c6c6572206973206e6f74206f7760448201527f6e6572206e6f7220617070726f76656420666f7220616c6c00000000000000006064820152608401610644565b6107fd8383611064565b505050565b61080c3382611104565b610898576040517f08c379a000000000000000000000000000000000000000000000000000000000815260206004820152603160248201527f4552433732313a207472616e736665722063616c6c6572206973206e6f74206f60448201527f776e6572206e6f7220617070726f7665640000000000000000000000000000006064820152608401610644565b6107fd838383611273565b6000828152602081905260409020600101546108be816114e5565b6107fd83836114f2565b60006108d383610cfb565b8210610961576040517f08c379a000000000000000000000000000000000000000000000000000000000815260206004820152602b60248201527f455243373231456e756d657261626c653a206f776e657220696e646578206f7560448201527f74206f6620626f756e64730000000000000000000000000000000000000000006064820152608401610644565b5073ffffffffffffffffffffffffffffffffffffffff919091166000908152600760209081526040808320938352929052205490565b73ffffffffffffffffffffffffffffffffffffffff81163314610a3c576040517f08c379a000000000000000000000000000000000000000000000000000000000815260206004820152602f60248201527f416363657373436f6e74726f6c3a2063616e206f6e6c792072656e6f756e636560448201527f20726f6c657320666f722073656c6600000000000000000000000000000000006064820152608401610644565b610a4682826115e2565b5050565b6107fd83838360405180602001604052806000815250610de3565b6000610a7060095490565b8210610afe576040517f08c379a000000000000000000000000000000000000000000000000000000000815260206004820152602c60248201527f455243373231456e756d657261626c653a20676c6f62616c20696e646578206f60448201527f7574206f6620626f756e647300000000000000000000000000000000000000006064820152608401610644565b60098281548110610b1157610b116127d5565b90600052602060002001549050919050565b7f628fc4593c8b802027572c9e7ea6deb73ef76623c446d655837ad3a198a09805610b4d816114e5565b506000918252600c602052604090912080547fffffffffffffffffffffffff00000000000000000000000000000000000000001673ffffffffffffffffffffffffffffffffffffffff909216919091179055565b60606000610bae83610cfb565b905060008167ffffffffffffffff811115610bcb57610bcb61262f565b604051908082528060200260200182016040528015610bf4578160200160208202803683370190505b50905060005b82811015610c3b57610c0c85826108c8565b828281518110610c1e57610c1e6127d5565b602090810291909101015280610c3381612833565b915050610bfa565b509392505050565b60008181526003602052604081205473ffffffffffffffffffffffffffffffffffffffff1680610cf5576040517f08c379a000000000000000000000000000000000000000000000000000000000815260206004820152602960248201527f4552433732313a206f776e657220717565727920666f72206e6f6e657869737460448201527f656e7420746f6b656e00000000000000000000000000000000000000000000006064820152608401610644565b92915050565b600073ffffffffffffffffffffffffffffffffffffffff8216610da0576040517f08c379a000000000000000000000000000000000000000000000000000000000815260206004820152602a60248201527f4552433732313a2062616c616e636520717565727920666f7220746865207a6560448201527f726f2061646472657373000000000000000000000000000000000000000000006064820152608401610644565b5073ffffffffffffffffffffffffffffffffffffffff1660009081526004602052604090205490565b60606002805461051490612782565b610a46338383611699565b610ded3383611104565b610e79576040517f08c379a000000000000000000000000000000000000000000000000000000000815260206004820152603160248201527f4552433732313a207472616e736665722063616c6c6572206973206e6f74206f60448201527f776e6572206e6f7220617070726f7665640000000000000000000000000000006064820152608401610644565b610e85848484846117c6565b50505050565b60008181526003602052604090205460609073ffffffffffffffffffffffffffffffffffffffff16610f3f576040517f08c379a000000000000000000000000000000000000000000000000000000000815260206004820152602f60248201527f4552433732314d657461646174613a2055524920717565727920666f72206e6f60448201527f6e6578697374656e7420746f6b656e00000000000000000000000000000000006064820152608401610644565b6000610f5660408051602081019091526000815290565b90506000815111610f765760405180602001604052806000815250610fa1565b80610f8084611869565b604051602001610f9192919061286b565b6040516020818303038152906040525b9392505050565b600082815260208190526040902060010154610fc3816114e5565b6107fd83836115e2565b60007f9f2df0fed2c77648de5860a4cc508cd0818c85b8b8a1ab4ceeef8d981c8956a6610ff9816114e5565b600061100460095490565b6000818152600c6020526040902080547fffffffffffffffffffffffff00000000000000000000000000000000000000001673ffffffffffffffffffffffffffffffffffffffff8716179055905061105c858261199e565b949350505050565b600081815260056020526040902080547fffffffffffffffffffffffff00000000000000000000000000000000000000001673ffffffffffffffffffffffffffffffffffffffff841690811790915581906110be82610c43565b73ffffffffffffffffffffffffffffffffffffffff167f8c5be1e5ebec7d5bd14f71427d1e84f3dd0314c0f7b2291e5b200ac8c7c3b92560405160405180910390a45050565b60008181526003602052604081205473ffffffffffffffffffffffffffffffffffffffff166111b5576040517f08c379a000000000000000000000000000000000000000000000000000000000815260206004820152602c60248201527f4552433732313a206f70657261746f7220717565727920666f72206e6f6e657860448201527f697374656e7420746f6b656e00000000000000000000000000000000000000006064820152608401610644565b60006111c083610c43565b90508073ffffffffffffffffffffffffffffffffffffffff168473ffffffffffffffffffffffffffffffffffffffff16148061122e575073ffffffffffffffffffffffffffffffffffffffff80821660009081526006602090815260408083209388168352929052205460ff165b8061105c57508373ffffffffffffffffffffffffffffffffffffffff1661125484610597565b73ffffffffffffffffffffffffffffffffffffffff1614949350505050565b8273ffffffffffffffffffffffffffffffffffffffff1661129382610c43565b73ffffffffffffffffffffffffffffffffffffffff1614611336576040517f08c379a000000000000000000000000000000000000000000000000000000000815260206004820152602560248201527f4552433732313a207472616e736665722066726f6d20696e636f72726563742060448201527f6f776e65720000000000000000000000000000000000000000000000000000006064820152608401610644565b73ffffffffffffffffffffffffffffffffffffffff82166113d8576040517f08c379a0000000000000000000000000000000000000000000000000000000008152602060048201526024808201527f4552433732313a207472616e7366657220746f20746865207a65726f2061646460448201527f72657373000000000000000000000000000000000000000000000000000000006064820152608401610644565b6113e38383836119b8565b6113ee600082611064565b73ffffffffffffffffffffffffffffffffffffffff8316600090815260046020526040812080546001929061142490849061289a565b909155505073ffffffffffffffffffffffffffffffffffffffff8216600090815260046020526040812080546001929061145f9084906128b1565b909155505060008181526003602052604080822080547fffffffffffffffffffffffff00000000000000000000000000000000000000001673ffffffffffffffffffffffffffffffffffffffff86811691821790925591518493918716917fddf252ad1be2c89b69c2b068fc378daa952ba7f163c4a11628f55a4df523b3ef91a4505050565b6114ef8133611abe565b50565b60008281526020818152604080832073ffffffffffffffffffffffffffffffffffffffff8516845290915290205460ff16610a465760008281526020818152604080832073ffffffffffffffffffffffffffffffffffffffff85168452909152902080547fffffffffffffffffffffffffffffffffffffffffffffffffffffffffffffff001660011790556115843390565b73ffffffffffffffffffffffffffffffffffffffff168173ffffffffffffffffffffffffffffffffffffffff16837f2f8788117e7eff1d82e926ec794901d17c78024a50270940304540a733656f0d60405160405180910390a45050565b60008281526020818152604080832073ffffffffffffffffffffffffffffffffffffffff8516845290915290205460ff1615610a465760008281526020818152604080832073ffffffffffffffffffffffffffffffffffffffff8516808552925280832080547fffffffffffffffffffffffffffffffffffffffffffffffffffffffffffffff0016905551339285917ff6391f5c32d9c69d2a47ea670b442974b53935d1edc7fd64eb21e047a839171b9190a45050565b8173ffffffffffffffffffffffffffffffffffffffff168373ffffffffffffffffffffffffffffffffffffffff160361172e576040517f08c379a000000000000000000000000000000000000000000000000000000000815260206004820152601960248201527f4552433732313a20617070726f766520746f2063616c6c6572000000000000006044820152606401610644565b73ffffffffffffffffffffffffffffffffffffffff83811660008181526006602090815260408083209487168084529482529182902080547fffffffffffffffffffffffffffffffffffffffffffffffffffffffffffffff001686151590811790915591519182527f17307eab39ab6107e8899845ad3d59bd9653f200f220920489ca2b5937696c31910160405180910390a3505050565b6117d1848484611273565b6117dd84848484611b8e565b610e85576040517f08c379a000000000000000000000000000000000000000000000000000000000815260206004820152603260248201527f4552433732313a207472616e7366657220746f206e6f6e20455243373231526560448201527f63656976657220696d706c656d656e74657200000000000000000000000000006064820152608401610644565b6060816000036118ac57505060408051808201909152600181527f3000000000000000000000000000000000000000000000000000000000000000602082015290565b8160005b81156118d657806118c081612833565b91506118cf9050600a836128f8565b91506118b0565b60008167ffffffffffffffff8111156118f1576118f161262f565b6040519080825280601f01601f19166020018201604052801561191b576020820181803683370190505b5090505b841561105c5761193060018361289a565b915061193d600a8661290c565b6119489060306128b1565b60f81b81838151811061195d5761195d6127d5565b60200101907effffffffffffffffffffffffffffffffffffffffffffffffffffffffffffff1916908160001a905350611997600a866128f8565b945061191f565b610a46828260405180602001604052806000815250611d81565b73ffffffffffffffffffffffffffffffffffffffff8316611a2057611a1b81600980546000838152600a60205260408120829055600182018355919091527f6e1540171b6c0c960b71a7020d9f60077f6af931a8bbf590da0223dacf75c7af0155565b611a5d565b8173ffffffffffffffffffffffffffffffffffffffff168373ffffffffffffffffffffffffffffffffffffffff1614611a5d57611a5d8382611e24565b73ffffffffffffffffffffffffffffffffffffffff8216611a81576107fd81611edb565b8273ffffffffffffffffffffffffffffffffffffffff168273ffffffffffffffffffffffffffffffffffffffff16146107fd576107fd8282611f8a565b60008281526020818152604080832073ffffffffffffffffffffffffffffffffffffffff8516845290915290205460ff16610a4657611b148173ffffffffffffffffffffffffffffffffffffffff166014611fdb565b611b1f836020611fdb565b604051602001611b30929190612920565b604080517fffffffffffffffffffffffffffffffffffffffffffffffffffffffffffffffe0818403018152908290527f08c379a0000000000000000000000000000000000000000000000000000000008252610644916004016124ad565b600073ffffffffffffffffffffffffffffffffffffffff84163b15611d76576040517f150b7a0200000000000000000000000000000000000000000000000000000000815273ffffffffffffffffffffffffffffffffffffffff85169063150b7a0290611c059033908990889088906004016129a1565b6020604051808303816000875af1925050508015611c5e575060408051601f3d9081017fffffffffffffffffffffffffffffffffffffffffffffffffffffffffffffffe0168201909252611c5b918101906129ea565b60015b611d2b573d808015611c8c576040519150601f19603f3d011682016040523d82523d6000602084013e611c91565b606091505b508051600003611d23576040517f08c379a000000000000000000000000000000000000000000000000000000000815260206004820152603260248201527f4552433732313a207472616e7366657220746f206e6f6e20455243373231526560448201527f63656976657220696d706c656d656e74657200000000000000000000000000006064820152608401610644565b805181602001fd5b7fffffffff00000000000000000000000000000000000000000000000000000000167f150b7a020000000000000000000000000000000000000000000000000000000014905061105c565b506001949350505050565b611d8b838361221e565b611d986000848484611b8e565b6107fd576040517f08c379a000000000000000000000000000000000000000000000000000000000815260206004820152603260248201527f4552433732313a207472616e7366657220746f206e6f6e20455243373231526560448201527f63656976657220696d706c656d656e74657200000000000000000000000000006064820152608401610644565b60006001611e3184610cfb565b611e3b919061289a565b600083815260086020526040902054909150808214611e9b5773ffffffffffffffffffffffffffffffffffffffff841660009081526007602090815260408083208584528252808320548484528184208190558352600890915290208190555b50600091825260086020908152604080842084905573ffffffffffffffffffffffffffffffffffffffff9094168352600781528383209183525290812055565b600954600090611eed9060019061289a565b6000838152600a602052604081205460098054939450909284908110611f1557611f156127d5565b906000526020600020015490508060098381548110611f3657611f366127d5565b6000918252602080832090910192909255828152600a90915260408082208490558582528120556009805480611f6e57611f6e612a07565b6001900381819060005260206000200160009055905550505050565b6000611f9583610cfb565b73ffffffffffffffffffffffffffffffffffffffff9093166000908152600760209081526040808320868452825280832085905593825260089052919091209190915550565b60606000611fea836002612a36565b611ff59060026128b1565b67ffffffffffffffff81111561200d5761200d61262f565b6040519080825280601f01601f191660200182016040528015612037576020820181803683370190505b5090507f30000000000000000000000000000000000000000000000000000000000000008160008151811061206e5761206e6127d5565b60200101907effffffffffffffffffffffffffffffffffffffffffffffffffffffffffffff1916908160001a9053507f7800000000000000000000000000000000000000000000000000000000000000816001815181106120d1576120d16127d5565b60200101907effffffffffffffffffffffffffffffffffffffffffffffffffffffffffffff1916908160001a905350600061210d846002612a36565b6121189060016128b1565b90505b60018111156121b5577f303132333435363738396162636465660000000000000000000000000000000085600f1660108110612159576121596127d5565b1a60f81b82828151811061216f5761216f6127d5565b60200101907effffffffffffffffffffffffffffffffffffffffffffffffffffffffffffff1916908160001a90535060049490941c936121ae81612a73565b905061211b565b508315610fa1576040517f08c379a000000000000000000000000000000000000000000000000000000000815260206004820181905260248201527f537472696e67733a20686578206c656e67746820696e73756666696369656e746044820152606401610644565b73ffffffffffffffffffffffffffffffffffffffff821661229b576040517f08c379a000000000000000000000000000000000000000000000000000000000815260206004820181905260248201527f4552433732313a206d696e7420746f20746865207a65726f20616464726573736044820152606401610644565b60008181526003602052604090205473ffffffffffffffffffffffffffffffffffffffff1615612327576040517f08c379a000000000000000000000000000000000000000000000000000000000815260206004820152601c60248201527f4552433732313a20746f6b656e20616c7265616479206d696e746564000000006044820152606401610644565b612333600083836119b8565b73ffffffffffffffffffffffffffffffffffffffff821660009081526004602052604081208054600192906123699084906128b1565b909155505060008181526003602052604080822080547fffffffffffffffffffffffff00000000000000000000000000000000000000001673ffffffffffffffffffffffffffffffffffffffff861690811790915590518392907fddf252ad1be2c89b69c2b068fc378daa952ba7f163c4a11628f55a4df523b3ef908290a45050565b7fffffffff00000000000000000000000000000000000000000000000000000000811681146114ef57600080fd5b60006020828403121561242c57600080fd5b8135610fa1816123ec565b60005b8381101561245257818101518382015260200161243a565b83811115610e855750506000910152565b6000815180845261247b816020860160208601612437565b601f017fffffffffffffffffffffffffffffffffffffffffffffffffffffffffffffffe0169290920160200192915050565b602081526000610fa16020830184612463565b6000602082840312156124d257600080fd5b5035919050565b803573ffffffffffffffffffffffffffffffffffffffff811681146124fd57600080fd5b919050565b6000806040838503121561251557600080fd5b61251e836124d9565b946020939093013593505050565b60008060006060848603121561254157600080fd5b61254a846124d9565b9250612558602085016124d9565b9150604084013590509250925092565b6000806040838503121561257b57600080fd5b8235915061258b602084016124d9565b90509250929050565b6000602082840312156125a657600080fd5b610fa1826124d9565b6020808252825182820181905260009190848201906040850190845b818110156125e7578351835292840192918401916001016125cb565b50909695505050505050565b6000806040838503121561260657600080fd5b61260f836124d9565b91506020830135801515811461262457600080fd5b809150509250929050565b7f4e487b7100000000000000000000000000000000000000000000000000000000600052604160045260246000fd5b6000806000806080858703121561267457600080fd5b61267d856124d9565b935061268b602086016124d9565b925060408501359150606085013567ffffffffffffffff808211156126af57600080fd5b818701915087601f8301126126c357600080fd5b8135818111156126d5576126d561262f565b604051601f82017fffffffffffffffffffffffffffffffffffffffffffffffffffffffffffffffe0908116603f0116810190838211818310171561271b5761271b61262f565b816040528281528a602084870101111561273457600080fd5b82602086016020830137600060208483010152809550505050505092959194509250565b6000806040838503121561276b57600080fd5b612774836124d9565b915061258b602084016124d9565b600181811c9082168061279657607f821691505b6020821081036127cf577f4e487b7100000000000000000000000000000000000000000000000000000000600052602260045260246000fd5b50919050565b7f4e487b7100000000000000000000000000000000000000000000000000000000600052603260045260246000fd5b7f4e487b7100000000000000000000000000000000000000000000000000000000600052601160045260246000fd5b60007fffffffffffffffffffffffffffffffffffffffffffffffffffffffffffffffff820361286457612864612804565b5060010190565b6000835161287d818460208801612437565b835190830190612891818360208801612437565b01949350505050565b6000828210156128ac576128ac612804565b500390565b600082198211156128c4576128c4612804565b500190565b7f4e487b7100000000000000000000000000000000000000000000000000000000600052601260045260246000fd5b600082612907576129076128c9565b500490565b60008261291b5761291b6128c9565b500690565b7f416363657373436f6e74726f6c3a206163636f756e7420000000000000000000815260008351612958816017850160208801612437565b7f206973206d697373696e6720726f6c65200000000000000000000000000000006017918401918201528351612995816028840160208801612437565b01602801949350505050565b600073ffffffffffffffffffffffffffffffffffffffff8087168352808616602084015250836040830152608060608301526129e06080830184612463565b9695505050505050565b6000602082840312156129fc57600080fd5b8151610fa1816123ec565b7f4e487b7100000000000000000000000000000000000000000000000000000000600052603160045260246000fd5b6000817fffffffffffffffffffffffffffffffffffffffffffffffffffffffffffffffff0483118215151615612a6e57612a6e612804565b500290565b600081612a8257612a82612804565b507fffffffffffffffffffffffffffffffffffffffffffffffffffffffffffffffff019056fea2646970667358221220c6372a76bbf245949c6e46e9fe2167d3dff66a789cdd202a0f7edfccd1c064de64736f6c634300080d0033",
  "linkReferences": {},
  "deployedLinkReferences": {}
}