{
  "_format": "hh-sol-artifact-1",
  "contractName": "BondAPY",
  "sourceName": "contracts/BondApy.sol",
  "abi": [
    {
      "inputs": [
        {
          "internalType": "address",
          "name": "admin",
          "type": "address"
        },
        {
          "internalType": "address",
          "name": "trusty",
          "type": "address"
        },
        {
          "internalType": "uint256",
          "name": "apy_",
          "type": "uint256"
        }
      ],
      "stateMutability": "nonpayable",
      "type": "constructor"
    },
    {
      "anonymous": false,
      "inputs": [
        {
          "indexed": true,
          "internalType": "bytes32",
          "name": "role",
          "type": "bytes32"
        },
        {
          "indexed": true,
          "internalType": "bytes32",
          "name": "previousAdminRole",
          "type": "bytes32"
        },
        {
          "indexed": true,
          "internalType": "bytes32",
          "name": "newAdminRole",
          "type": "bytes32"
        }
      ],
      "name": "RoleAdminChanged",
      "type": "event"
    },
    {
      "anonymous": false,
      "inputs": [
        {
          "indexed": true,
          "internalType": "bytes32",
          "name": "role",
          "type": "bytes32"
        },
        {
          "indexed": true,
          "internalType": "address",
          "name": "account",
          "type": "address"
        },
        {
          "indexed": true,
          "internalType": "address",
          "name": "sender",
          "type": "address"
        }
      ],
      "name": "RoleGranted",
      "type": "event"
    },
    {
      "anonymous": false,
      "inputs": [
        {
          "indexed": true,
          "internalType": "bytes32",
          "name": "role",
          "type": "bytes32"
        },
        {
          "indexed": true,
          "internalType": "address",
          "name": "account",
          "type": "address"
        },
        {
          "indexed": true,
          "internalType": "address",
          "name": "sender",
          "type": "address"
        }
      ],
      "name": "RoleRevoked",
      "type": "event"
    },
    {
      "inputs": [],
      "name": "APY_PRECISION",
      "outputs": [
        {
          "internalType": "uint256",
          "name": "",
          "type": "uint256"
        }
      ],
      "stateMutability": "view",
      "type": "function"
    },
    {
      "inputs": [],
      "name": "DEFAULT_ADMIN_ROLE",
      "outputs": [
        {
          "internalType": "bytes32",
          "name": "",
          "type": "bytes32"
        }
      ],
      "stateMutability": "view",
      "type": "function"
    },
    {
      "inputs": [],
      "name": "TRSUTY_ROLE",
      "outputs": [
        {
          "internalType": "bytes32",
          "name": "",
          "type": "bytes32"
        }
      ],
      "stateMutability": "view",
      "type": "function"
    },
    {
      "inputs": [],
      "name": "apy",
      "outputs": [
        {
          "internalType": "uint256",
          "name": "",
          "type": "uint256"
        }
      ],
      "stateMutability": "view",
      "type": "function"
    },
    {
      "inputs": [],
      "name": "getApy",
      "outputs": [
        {
          "internalType": "uint256",
          "name": "",
          "type": "uint256"
        }
      ],
      "stateMutability": "view",
      "type": "function"
    },
    {
      "inputs": [
        {
          "internalType": "bytes32",
          "name": "role",
          "type": "bytes32"
        }
      ],
      "name": "getRoleAdmin",
      "outputs": [
        {
          "internalType": "bytes32",
          "name": "",
          "type": "bytes32"
        }
      ],
      "stateMutability": "view",
      "type": "function"
    },
    {
      "inputs": [
        {
          "internalType": "bytes32",
          "name": "role",
          "type": "bytes32"
        },
        {
          "internalType": "address",
          "name": "account",
          "type": "address"
        }
      ],
      "name": "grantRole",
      "outputs": [],
      "stateMutability": "nonpayable",
      "type": "function"
    },
    {
      "inputs": [
        {
          "internalType": "bytes32",
          "name": "role",
          "type": "bytes32"
        },
        {
          "internalType": "address",
          "name": "account",
          "type": "address"
        }
      ],
      "name": "hasRole",
      "outputs": [
        {
          "internalType": "bool",
          "name": "",
          "type": "bool"
        }
      ],
      "stateMutability": "view",
      "type": "function"
    },
    {
      "inputs": [
        {
          "internalType": "bytes32",
          "name": "role",
          "type": "bytes32"
        },
        {
          "internalType": "address",
          "name": "account",
          "type": "address"
        }
      ],
      "name": "renounceRole",
      "outputs": [],
      "stateMutability": "nonpayable",
      "type": "function"
    },
    {
      "inputs": [
        {
          "internalType": "bytes32",
          "name": "role",
          "type": "bytes32"
        },
        {
          "internalType": "address",
          "name": "account",
          "type": "address"
        }
      ],
      "name": "revokeRole",
      "outputs": [],
      "stateMutability": "nonpayable",
      "type": "function"
    },
    {
      "inputs": [
        {
          "internalType": "uint256",
          "name": "apy_",
          "type": "uint256"
        }
      ],
      "name": "setApy",
      "outputs": [],
      "stateMutability": "nonpayable",
      "type": "function"
    },
    {
      "inputs": [
        {
          "internalType": "bytes4",
          "name": "interfaceId",
          "type": "bytes4"
        }
      ],
      "name": "supportsInterface",
      "outputs": [
        {
          "internalType": "bool",
          "name": "",
          "type": "bool"
        }
      ],
      "stateMutability": "view",
      "type": "function"
    }
  ],
  "bytecode": "0x6080604052670de0b6b3a764000060025534801561001c57600080fd5b50604051610d2a380380610d2a83398101604081905261003b91610145565b600181905561004b60008461007d565b6100757fa5bb5ba0b3a524582d460aec3ffcb984cd738c6bd4642a77497674b88de212e78361007d565b505050610181565b610087828261008b565b5050565b6000828152602081815260408083206001600160a01b038516845290915290205460ff16610087576000828152602081815260408083206001600160a01b03851684529091529020805460ff191660011790556100e53390565b6001600160a01b0316816001600160a01b0316837f2f8788117e7eff1d82e926ec794901d17c78024a50270940304540a733656f0d60405160405180910390a45050565b80516001600160a01b038116811461014057600080fd5b919050565b60008060006060848603121561015a57600080fd5b61016384610129565b925061017160208501610129565b9150604084015190509250925092565b610b9a806101906000396000f3fe608060405234801561001057600080fd5b50600436106100d45760003560e01c80633bcfc4b811610081578063a217fddf1161005b578063a217fddf146101e5578063d19dd147146101ed578063d547741f146101f657600080fd5b80633bcfc4b8146101715780634d73845d1461017a57806391d14854146101a157600080fd5b80632f2ff15d116100b25780632f2ff15d1461013657806336568abe1461014b5780633b3f5e361461015e57600080fd5b806301ffc9a7146100d95780631fb922e014610101578063248a9ca314610113575b600080fd5b6100ec6100e73660046108a7565b610209565b60405190151581526020015b60405180910390f35b6001545b6040519081526020016100f8565b6101056101213660046108e9565b60009081526020819052604090206001015490565b610149610144366004610902565b6102a2565b005b610149610159366004610902565b6102cc565b61014961016c3660046108e9565b610384565b61010560015481565b6101057fa5bb5ba0b3a524582d460aec3ffcb984cd738c6bd4642a77497674b88de212e781565b6100ec6101af366004610902565b60009182526020828152604080842073ffffffffffffffffffffffffffffffffffffffff93909316845291905290205460ff1690565b610105600081565b61010560025481565b610149610204366004610902565b6103b4565b60007fffffffff0000000000000000000000000000000000000000000000000000000082167f7965db0b00000000000000000000000000000000000000000000000000000000148061029c57507f01ffc9a7000000000000000000000000000000000000000000000000000000007fffffffff000000000000000000000000000000000000000000000000000000008316145b92915050565b6000828152602081905260409020600101546102bd816103d9565b6102c783836103e6565b505050565b73ffffffffffffffffffffffffffffffffffffffff81163314610376576040517f08c379a000000000000000000000000000000000000000000000000000000000815260206004820152602f60248201527f416363657373436f6e74726f6c3a2063616e206f6e6c792072656e6f756e636560448201527f20726f6c657320666f722073656c66000000000000000000000000000000000060648201526084015b60405180910390fd5b61038082826104d6565b5050565b7fa5bb5ba0b3a524582d460aec3ffcb984cd738c6bd4642a77497674b88de212e76103ae816103d9565b50600155565b6000828152602081905260409020600101546103cf816103d9565b6102c783836104d6565b6103e3813361058d565b50565b60008281526020818152604080832073ffffffffffffffffffffffffffffffffffffffff8516845290915290205460ff166103805760008281526020818152604080832073ffffffffffffffffffffffffffffffffffffffff85168452909152902080547fffffffffffffffffffffffffffffffffffffffffffffffffffffffffffffff001660011790556104783390565b73ffffffffffffffffffffffffffffffffffffffff168173ffffffffffffffffffffffffffffffffffffffff16837f2f8788117e7eff1d82e926ec794901d17c78024a50270940304540a733656f0d60405160405180910390a45050565b60008281526020818152604080832073ffffffffffffffffffffffffffffffffffffffff8516845290915290205460ff16156103805760008281526020818152604080832073ffffffffffffffffffffffffffffffffffffffff8516808552925280832080547fffffffffffffffffffffffffffffffffffffffffffffffffffffffffffffff0016905551339285917ff6391f5c32d9c69d2a47ea670b442974b53935d1edc7fd64eb21e047a839171b9190a45050565b60008281526020818152604080832073ffffffffffffffffffffffffffffffffffffffff8516845290915290205460ff16610380576105e38173ffffffffffffffffffffffffffffffffffffffff16601461065d565b6105ee83602061065d565b6040516020016105ff92919061097b565b604080517fffffffffffffffffffffffffffffffffffffffffffffffffffffffffffffffe0818403018152908290527f08c379a000000000000000000000000000000000000000000000000000000000825261036d916004016109fc565b6060600061066c836002610a7c565b610677906002610ab9565b67ffffffffffffffff81111561068f5761068f610ad1565b6040519080825280601f01601f1916602001820160405280156106b9576020820181803683370190505b5090507f3000000000000000000000000000000000000000000000000000000000000000816000815181106106f0576106f0610b00565b60200101907effffffffffffffffffffffffffffffffffffffffffffffffffffffffffffff1916908160001a9053507f78000000000000000000000000000000000000000000000000000000000000008160018151811061075357610753610b00565b60200101907effffffffffffffffffffffffffffffffffffffffffffffffffffffffffffff1916908160001a905350600061078f846002610a7c565b61079a906001610ab9565b90505b6001811115610837577f303132333435363738396162636465660000000000000000000000000000000085600f16601081106107db576107db610b00565b1a60f81b8282815181106107f1576107f1610b00565b60200101907effffffffffffffffffffffffffffffffffffffffffffffffffffffffffffff1916908160001a90535060049490941c9361083081610b2f565b905061079d565b5083156108a0576040517f08c379a000000000000000000000000000000000000000000000000000000000815260206004820181905260248201527f537472696e67733a20686578206c656e67746820696e73756666696369656e74604482015260640161036d565b9392505050565b6000602082840312156108b957600080fd5b81357fffffffff00000000000000000000000000000000000000000000000000000000811681146108a057600080fd5b6000602082840312156108fb57600080fd5b5035919050565b6000806040838503121561091557600080fd5b82359150602083013573ffffffffffffffffffffffffffffffffffffffff8116811461094057600080fd5b809150509250929050565b60005b8381101561096657818101518382015260200161094e565b83811115610975576000848401525b50505050565b7f416363657373436f6e74726f6c3a206163636f756e74200000000000000000008152600083516109b381601785016020880161094b565b7f206973206d697373696e6720726f6c652000000000000000000000000000000060179184019182015283516109f081602884016020880161094b565b01602801949350505050565b6020815260008251806020840152610a1b81604085016020870161094b565b601f017fffffffffffffffffffffffffffffffffffffffffffffffffffffffffffffffe0169190910160400192915050565b7f4e487b7100000000000000000000000000000000000000000000000000000000600052601160045260246000fd5b6000817fffffffffffffffffffffffffffffffffffffffffffffffffffffffffffffffff0483118215151615610ab457610ab4610a4d565b500290565b60008219821115610acc57610acc610a4d565b500190565b7f4e487b7100000000000000000000000000000000000000000000000000000000600052604160045260246000fd5b7f4e487b7100000000000000000000000000000000000000000000000000000000600052603260045260246000fd5b600081610b3e57610b3e610a4d565b507fffffffffffffffffffffffffffffffffffffffffffffffffffffffffffffffff019056fea2646970667358221220b9b812b70e4c35e4cee82844e6fce7fd70178e3a3491a127bb513555dcdc5d2c64736f6c634300080d0033",
  "linkReferences": {},
  "deployedLinkReferences": {}
}